{
	"data": {
		"bytecode": {
			"linkReferences": {},
			"object": "60806040526000600a60146101000a81548160ff0219169083151502179055506000600a60156101000a81548160ff021916908315150217905550670429d069189e0000600b556001600c556001600d556040518060400160405280600581526020017f2e6a736f6e000000000000000000000000000000000000000000000000000000815250601090805190602001906200009d92919062000409565b50348015620000ab57600080fd5b5060405162004ec038038062004ec08339818101604052810190620000d1919062000537565b6040518060400160405280600a81526020017f4b65697468204d657461000000000000000000000000000000000000000000008152506040518060400160405280600281526020017f4b4d00000000000000000000000000000000000000000000000000000000000081525081600090805190602001906200015592919062000409565b5080600190805190602001906200016e92919062000409565b5050506200019162000185620001bb60201b60201c565b620001c360201b60201c565b620001a2826200028960201b60201c565b620001b3816200033460201b60201c565b5050620007c3565b600033905090565b6000600a60009054906101000a900473ffffffffffffffffffffffffffffffffffffffff16905081600a60006101000a81548173ffffffffffffffffffffffffffffffffffffffff021916908373ffffffffffffffffffffffffffffffffffffffff1602179055508173ffffffffffffffffffffffffffffffffffffffff168173ffffffffffffffffffffffffffffffffffffffff167f8be0079c531659141344cd1fd0a4f28419497f9722a3daafe3b4186f6b6457e060405160405180910390a35050565b62000299620001bb60201b60201c565b73ffffffffffffffffffffffffffffffffffffffff16620002bf620003df60201b60201c565b73ffffffffffffffffffffffffffffffffffffffff161462000318576040517f08c379a00000000000000000000000000000000000000000000000000000000081526004016200030f90620005e3565b60405180910390fd5b80600e90805190602001906200033092919062000409565b5050565b62000344620001bb60201b60201c565b73ffffffffffffffffffffffffffffffffffffffff166200036a620003df60201b60201c565b73ffffffffffffffffffffffffffffffffffffffff1614620003c3576040517f08c379a0000000000000000000000000000000000000000000000000000000008152600401620003ba90620005e3565b60405180910390fd5b80600f9080519060200190620003db92919062000409565b5050565b6000600a60009054906101000a900473ffffffffffffffffffffffffffffffffffffffff16905090565b8280546200041790620006ab565b90600052602060002090601f0160209004810192826200043b576000855562000487565b82601f106200045657805160ff191683800117855562000487565b8280016001018555821562000487579182015b828111156200048657825182559160200191906001019062000469565b5b5090506200049691906200049a565b5090565b5b80821115620004b55760008160009055506001016200049b565b5090565b6000620004d0620004ca846200062e565b62000605565b905082815260208101848484011115620004ef57620004ee6200077a565b5b620004fc84828562000675565b509392505050565b600082601f8301126200051c576200051b62000775565b5b81516200052e848260208601620004b9565b91505092915050565b6000806040838503121562000551576200055062000784565b5b600083015167ffffffffffffffff8111156200057257620005716200077f565b5b620005808582860162000504565b925050602083015167ffffffffffffffff811115620005a457620005a36200077f565b5b620005b28582860162000504565b9150509250929050565b6000620005cb60208362000664565b9150620005d8826200079a565b602082019050919050565b60006020820190508181036000830152620005fe81620005bc565b9050919050565b60006200061162000624565b90506200061f8282620006e1565b919050565b6000604051905090565b600067ffffffffffffffff8211156200064c576200064b62000746565b5b620006578262000789565b9050602081019050919050565b600082825260208201905092915050565b60005b838110156200069557808201518184015260208101905062000678565b83811115620006a5576000848401525b50505050565b60006002820490506001821680620006c457607f821691505b60208210811415620006db57620006da62000717565b5b50919050565b620006ec8262000789565b810181811067ffffffffffffffff821117156200070e576200070d62000746565b5b80604052505050565b7f4e487b7100000000000000000000000000000000000000000000000000000000600052602260045260246000fd5b7f4e487b7100000000000000000000000000000000000000000000000000000000600052604160045260246000fd5b600080fd5b600080fd5b600080fd5b600080fd5b6000601f19601f8301169050919050565b7f4f776e61626c653a2063616c6c6572206973206e6f7420746865206f776e6572600082015250565b6146ed80620007d36000396000f3fe60806040526004361061021a5760003560e01c80637080d6fc11610123578063b88d4fde116100ab578063e985e9c51161006f578063e985e9c5146107ad578063f2c4ce1e146107ea578063f2fde38b14610813578063f4a0a5281461083c578063f8129892146108655761021a565b8063b88d4fde146106dc578063c668286214610705578063c87b56dd14610730578063da3ef23f1461076d578063de8b51e1146107965761021a565b80637501f741116100f25780637501f741146106095780638da5cb5b1461063457806395d89b411461065f5780639d51d9b71461068a578063a22cb465146106b35761021a565b80637080d6fc1461055f57806370a082311461058a578063715018a6146105c757806373ad468a146105de5761021a565b80633b84d9c6116101a6578063547520fe11610175578063547520fe1461047a57806355f804b3146104a35780636352211e146104cc5780636817c76c146105095780636ebeac85146105345761021a565b80633b84d9c6146103d457806342842e0e146103eb5780634f6ccce71461041457806351cff8d9146104515761021a565b8063095ea7b3116101ed578063095ea7b3146102ef57806318160ddd1461031857806323b872dd146103435780632f745c591461036c57806332cb6b0c146103a95761021a565b806301ffc9a71461021f57806306fdde031461025c578063081812fc14610287578063081c8c44146102c4575b600080fd5b34801561022b57600080fd5b5061024660048036038101906102419190613274565b610881565b6040516102539190613874565b60405180910390f35b34801561026857600080fd5b506102716108fb565b60405161027e919061388f565b60405180910390f35b34801561029357600080fd5b506102ae60048036038101906102a99190613317565b61098d565b6040516102bb919061380d565b60405180910390f35b3480156102d057600080fd5b506102d9610a12565b6040516102e6919061388f565b60405180910390f35b3480156102fb57600080fd5b5061031660048036038101906103119190613234565b610aa0565b005b34801561032457600080fd5b5061032d610bb8565b60405161033a9190613b91565b60405180910390f35b34801561034f57600080fd5b5061036a6004803603810190610365919061311e565b610bc5565b005b34801561037857600080fd5b50610393600480360381019061038e9190613234565b610c25565b6040516103a09190613b91565b60405180910390f35b3480156103b557600080fd5b506103be610cca565b6040516103cb9190613b91565b60405180910390f35b3480156103e057600080fd5b506103e9610ccf565b005b3480156103f757600080fd5b50610412600480360381019061040d919061311e565b610d77565b005b34801561042057600080fd5b5061043b60048036038101906104369190613317565b610d97565b6040516104489190613b91565b60405180910390f35b34801561045d57600080fd5b50610478600480360381019061047391906130b1565b610e08565b005b34801561048657600080fd5b506104a1600480360381019061049c9190613317565b610ed4565b005b3480156104af57600080fd5b506104ca60048036038101906104c591906132ce565b610f5a565b005b3480156104d857600080fd5b506104f360048036038101906104ee9190613317565b610ff0565b604051610500919061380d565b60405180910390f35b34801561051557600080fd5b5061051e6110a2565b60405161052b9190613b91565b60405180910390f35b34801561054057600080fd5b506105496110a8565b6040516105569190613874565b60405180910390f35b34801561056b57600080fd5b506105746110bb565b6040516105819190613874565b60405180910390f35b34801561059657600080fd5b506105b160048036038101906105ac91906130b1565b6110ce565b6040516105be9190613b91565b60405180910390f35b3480156105d357600080fd5b506105dc611186565b005b3480156105ea57600080fd5b506105f361120e565b6040516106009190613b91565b60405180910390f35b34801561061557600080fd5b5061061e611214565b60405161062b9190613b91565b60405180910390f35b34801561064057600080fd5b5061064961121a565b604051610656919061380d565b60405180910390f35b34801561066b57600080fd5b50610674611244565b604051610681919061388f565b60405180910390f35b34801561069657600080fd5b506106b160048036038101906106ac9190613317565b6112d6565b005b3480156106bf57600080fd5b506106da60048036038101906106d591906131f4565b61135c565b005b3480156106e857600080fd5b5061070360048036038101906106fe9190613171565b611372565b005b34801561071157600080fd5b5061071a6113d4565b604051610727919061388f565b60405180910390f35b34801561073c57600080fd5b5061075760048036038101906107529190613317565b611462565b604051610764919061388f565b60405180910390f35b34801561077957600080fd5b50610794600480360381019061078f91906132ce565b611686565b005b3480156107a257600080fd5b506107ab61171c565b005b3480156107b957600080fd5b506107d460048036038101906107cf91906130de565b6117c4565b6040516107e19190613874565b60405180910390f35b3480156107f657600080fd5b50610811600480360381019061080c91906132ce565b611858565b005b34801561081f57600080fd5b5061083a600480360381019061083591906130b1565b6118ee565b005b34801561084857600080fd5b50610863600480360381019061085e9190613317565b6119e6565b005b61087f600480360381019061087a9190613317565b611a6c565b005b60007f780e9d63000000000000000000000000000000000000000000000000000000007bffffffffffffffffffffffffffffffffffffffffffffffffffffffff1916827bffffffffffffffffffffffffffffffffffffffffffffffffffffffff191614806108f457506108f382611c0a565b5b9050919050565b60606000805461090a90613e56565b80601f016020809104026020016040519081016040528092919081815260200182805461093690613e56565b80156109835780601f1061095857610100808354040283529160200191610983565b820191906000526020600020905b81548152906001019060200180831161096657829003601f168201915b5050505050905090565b600061099882611cec565b6109d7576040517f08c379a00000000000000000000000000000000000000000000000000000000081526004016109ce90613ab1565b60405180910390fd5b6004600083815260200190815260200160002060009054906101000a900473ffffffffffffffffffffffffffffffffffffffff169050919050565b600f8054610a1f90613e56565b80601f0160208091040260200160405190810160405280929190818152602001828054610a4b90613e56565b8015610a985780601f10610a6d57610100808354040283529160200191610a98565b820191906000526020600020905b815481529060010190602001808311610a7b57829003601f168201915b505050505081565b6000610aab82610ff0565b90508073ffffffffffffffffffffffffffffffffffffffff168373ffffffffffffffffffffffffffffffffffffffff161415610b1c576040517f08c379a0000000000000000000000000000000000000000000000000000000008152600401610b1390613b11565b60405180910390fd5b8073ffffffffffffffffffffffffffffffffffffffff16610b3b611d58565b73ffffffffffffffffffffffffffffffffffffffff161480610b6a5750610b6981610b64611d58565b6117c4565b5b610ba9576040517f08c379a0000000000000000000000000000000000000000000000000000000008152600401610ba090613a31565b60405180910390fd5b610bb38383611d60565b505050565b6000600880549050905090565b610bd6610bd0611d58565b82611e19565b610c15576040517f08c379a0000000000000000000000000000000000000000000000000000000008152600401610c0c90613b31565b60405180910390fd5b610c20838383611ef7565b505050565b6000610c30836110ce565b8210610c71576040517f08c379a0000000000000000000000000000000000000000000000000000000008152600401610c68906138d1565b60405180910390fd5b600660008473ffffffffffffffffffffffffffffffffffffffff1673ffffffffffffffffffffffffffffffffffffffff168152602001908152602001600020600083815260200190815260200160002054905092915050565b600a81565b610cd7611d58565b73ffffffffffffffffffffffffffffffffffffffff16610cf561121a565b73ffffffffffffffffffffffffffffffffffffffff1614610d4b576040517f08c379a0000000000000000000000000000000000000000000000000000000008152600401610d4290613ad1565b60405180910390fd5b600a60159054906101000a900460ff1615600a60156101000a81548160ff021916908315150217905550565b610d9283838360405180602001604052806000815250611372565b505050565b6000610da1610bb8565b8210610de2576040517f08c379a0000000000000000000000000000000000000000000000000000000008152600401610dd990613b51565b60405180910390fd5b60088281548110610df657610df5613fef565b5b90600052602060002001549050919050565b610e10611d58565b73ffffffffffffffffffffffffffffffffffffffff16610e2e61121a565b73ffffffffffffffffffffffffffffffffffffffff1614610e84576040517f08c379a0000000000000000000000000000000000000000000000000000000008152600401610e7b90613ad1565b60405180910390fd5b60004790508173ffffffffffffffffffffffffffffffffffffffff166108fc829081150290604051600060405180830381858888f19350505050158015610ecf573d6000803e3d6000fd5b505050565b610edc611d58565b73ffffffffffffffffffffffffffffffffffffffff16610efa61121a565b73ffffffffffffffffffffffffffffffffffffffff1614610f50576040517f08c379a0000000000000000000000000000000000000000000000000000000008152600401610f4790613ad1565b60405180910390fd5b80600d8190555050565b610f62611d58565b73ffffffffffffffffffffffffffffffffffffffff16610f8061121a565b73ffffffffffffffffffffffffffffffffffffffff1614610fd6576040517f08c379a0000000000000000000000000000000000000000000000000000000008152600401610fcd90613ad1565b60405180910390fd5b80600e9080519060200190610fec929190612ec5565b5050565b6000806002600084815260200190815260200160002060009054906101000a900473ffffffffffffffffffffffffffffffffffffffff169050600073ffffffffffffffffffffffffffffffffffffffff168173ffffffffffffffffffffffffffffffffffffffff161415611099576040517f08c379a000000000000000000000000000000000000000000000000000000000815260040161109090613a71565b60405180910390fd5b80915050919050565b600b5481565b600a60159054906101000a900460ff1681565b600a60149054906101000a900460ff1681565b60008073ffffffffffffffffffffffffffffffffffffffff168273ffffffffffffffffffffffffffffffffffffffff16141561113f576040517f08c379a000000000000000000000000000000000000000000000000000000000815260040161113690613a51565b60405180910390fd5b600360008373ffffffffffffffffffffffffffffffffffffffff1673ffffffffffffffffffffffffffffffffffffffff168152602001908152602001600020549050919050565b61118e611d58565b73ffffffffffffffffffffffffffffffffffffffff166111ac61121a565b73ffffffffffffffffffffffffffffffffffffffff1614611202576040517f08c379a00000000000000000000000000000000000000000000000000000000081526004016111f990613ad1565b60405180910390fd5b61120c600061215e565b565b600c5481565b600d5481565b6000600a60009054906101000a900473ffffffffffffffffffffffffffffffffffffffff16905090565b60606001805461125390613e56565b80601f016020809104026020016040519081016040528092919081815260200182805461127f90613e56565b80156112cc5780601f106112a1576101008083540402835291602001916112cc565b820191906000526020600020905b8154815290600101906020018083116112af57829003601f168201915b5050505050905090565b6112de611d58565b73ffffffffffffffffffffffffffffffffffffffff166112fc61121a565b73ffffffffffffffffffffffffffffffffffffffff1614611352576040517f08c379a000000000000000000000000000000000000000000000000000000000815260040161134990613ad1565b60405180910390fd5b80600c8190555050565b61136e611367611d58565b8383612224565b5050565b61138361137d611d58565b83611e19565b6113c2576040517f08c379a00000000000000000000000000000000000000000000000000000000081526004016113b990613b31565b60405180910390fd5b6113ce84848484612391565b50505050565b601080546113e190613e56565b80601f016020809104026020016040519081016040528092919081815260200182805461140d90613e56565b801561145a5780601f1061142f5761010080835404028352916020019161145a565b820191906000526020600020905b81548152906001019060200180831161143d57829003601f168201915b505050505081565b606061146d82611cec565b6114ac576040517f08c379a00000000000000000000000000000000000000000000000000000000081526004016114a390613af1565b60405180910390fd5b60001515600a60159054906101000a900460ff161515141561155a57600f80546114d590613e56565b80601f016020809104026020016040519081016040528092919081815260200182805461150190613e56565b801561154e5780601f106115235761010080835404028352916020019161154e565b820191906000526020600020905b81548152906001019060200180831161153157829003601f168201915b50505050509050611681565b600060116000848152602001908152602001600020805461157a90613e56565b80601f01602080910402602001604051908101604052809291908181526020018280546115a690613e56565b80156115f35780601f106115c8576101008083540402835291602001916115f3565b820191906000526020600020905b8154815290600101906020018083116115d657829003601f168201915b5050505050905060006116046123ed565b905060008151141561161a578192505050611681565b60008251111561164f5780826040516020016116379291906137b8565b60405160208183030381529060405292505050611681565b806116598561247f565b601060405160200161166d939291906137dc565b604051602081830303815290604052925050505b919050565b61168e611d58565b73ffffffffffffffffffffffffffffffffffffffff166116ac61121a565b73ffffffffffffffffffffffffffffffffffffffff1614611702576040517f08c379a00000000000000000000000000000000000000000000000000000000081526004016116f990613ad1565b60405180910390fd5b8060109080519060200190611718929190612ec5565b5050565b611724611d58565b73ffffffffffffffffffffffffffffffffffffffff1661174261121a565b73ffffffffffffffffffffffffffffffffffffffff1614611798576040517f08c379a000000000000000000000000000000000000000000000000000000000815260040161178f90613ad1565b60405180910390fd5b600a60149054906101000a900460ff1615600a60146101000a81548160ff021916908315150217905550565b6000600560008473ffffffffffffffffffffffffffffffffffffffff1673ffffffffffffffffffffffffffffffffffffffff16815260200190815260200160002060008373ffffffffffffffffffffffffffffffffffffffff1673ffffffffffffffffffffffffffffffffffffffff16815260200190815260200160002060009054906101000a900460ff16905092915050565b611860611d58565b73ffffffffffffffffffffffffffffffffffffffff1661187e61121a565b73ffffffffffffffffffffffffffffffffffffffff16146118d4576040517f08c379a00000000000000000000000000000000000000000000000000000000081526004016118cb90613ad1565b60405180910390fd5b80600f90805190602001906118ea929190612ec5565b5050565b6118f6611d58565b73ffffffffffffffffffffffffffffffffffffffff1661191461121a565b73ffffffffffffffffffffffffffffffffffffffff161461196a576040517f08c379a000000000000000000000000000000000000000000000000000000000815260040161196190613ad1565b60405180910390fd5b600073ffffffffffffffffffffffffffffffffffffffff168173ffffffffffffffffffffffffffffffffffffffff1614156119da576040517f08c379a00000000000000000000000000000000000000000000000000000000081526004016119d190613911565b60405180910390fd5b6119e38161215e565b50565b6119ee611d58565b73ffffffffffffffffffffffffffffffffffffffff16611a0c61121a565b73ffffffffffffffffffffffffffffffffffffffff1614611a62576040517f08c379a0000000000000000000000000000000000000000000000000000000008152600401611a5990613ad1565b60405180910390fd5b80600b8190555050565b600a81611a77610bb8565b611a819190613c8b565b1115611ac2576040517f08c379a0000000000000000000000000000000000000000000000000000000008152600401611ab990613971565b60405180910390fd5b600a60149054906101000a900460ff16611b11576040517f08c379a0000000000000000000000000000000000000000000000000000000008152600401611b08906138b1565b60405180910390fd5b600c5481611b1e336110ce565b611b289190613c8b565b1115611b69576040517f08c379a0000000000000000000000000000000000000000000000000000000008152600401611b6090613a11565b60405180910390fd5b34600b5482611b789190613d12565b1115611bb9576040517f08c379a0000000000000000000000000000000000000000000000000000000008152600401611bb090613b71565b60405180910390fd5b600d54811115611bfe576040517f08c379a0000000000000000000000000000000000000000000000000000000008152600401611bf5906139f1565b60405180910390fd5b611c07816125e0565b50565b60007f80ac58cd000000000000000000000000000000000000000000000000000000007bffffffffffffffffffffffffffffffffffffffffffffffffffffffff1916827bffffffffffffffffffffffffffffffffffffffffffffffffffffffff19161480611cd557507f5b5e139f000000000000000000000000000000000000000000000000000000007bffffffffffffffffffffffffffffffffffffffffffffffffffffffff1916827bffffffffffffffffffffffffffffffffffffffffffffffffffffffff1916145b80611ce55750611ce48261262a565b5b9050919050565b60008073ffffffffffffffffffffffffffffffffffffffff166002600084815260200190815260200160002060009054906101000a900473ffffffffffffffffffffffffffffffffffffffff1673ffffffffffffffffffffffffffffffffffffffff1614159050919050565b600033905090565b816004600083815260200190815260200160002060006101000a81548173ffffffffffffffffffffffffffffffffffffffff021916908373ffffffffffffffffffffffffffffffffffffffff160217905550808273ffffffffffffffffffffffffffffffffffffffff16611dd383610ff0565b73ffffffffffffffffffffffffffffffffffffffff167f8c5be1e5ebec7d5bd14f71427d1e84f3dd0314c0f7b2291e5b200ac8c7c3b92560405160405180910390a45050565b6000611e2482611cec565b611e63576040517f08c379a0000000000000000000000000000000000000000000000000000000008152600401611e5a906139d1565b60405180910390fd5b6000611e6e83610ff0565b90508073ffffffffffffffffffffffffffffffffffffffff168473ffffffffffffffffffffffffffffffffffffffff161480611edd57508373ffffffffffffffffffffffffffffffffffffffff16611ec58461098d565b73ffffffffffffffffffffffffffffffffffffffff16145b80611eee5750611eed81856117c4565b5b91505092915050565b8273ffffffffffffffffffffffffffffffffffffffff16611f1782610ff0565b73ffffffffffffffffffffffffffffffffffffffff1614611f6d576040517f08c379a0000000000000000000000000000000000000000000000000000000008152600401611f6490613931565b60405180910390fd5b600073ffffffffffffffffffffffffffffffffffffffff168273ffffffffffffffffffffffffffffffffffffffff161415611fdd576040517f08c379a0000000000000000000000000000000000000000000000000000000008152600401611fd490613991565b60405180910390fd5b611fe8838383612694565b611ff3600082611d60565b6001600360008573ffffffffffffffffffffffffffffffffffffffff1673ffffffffffffffffffffffffffffffffffffffff16815260200190815260200160002060008282546120439190613d6c565b925050819055506001600360008473ffffffffffffffffffffffffffffffffffffffff1673ffffffffffffffffffffffffffffffffffffffff168152602001908152602001600020600082825461209a9190613c8b565b92505081905550816002600083815260200190815260200160002060006101000a81548173ffffffffffffffffffffffffffffffffffffffff021916908373ffffffffffffffffffffffffffffffffffffffff160217905550808273ffffffffffffffffffffffffffffffffffffffff168473ffffffffffffffffffffffffffffffffffffffff167fddf252ad1be2c89b69c2b068fc378daa952ba7f163c4a11628f55a4df523b3ef60405160405180910390a46121598383836127a8565b505050565b6000600a60009054906101000a900473ffffffffffffffffffffffffffffffffffffffff16905081600a60006101000a81548173ffffffffffffffffffffffffffffffffffffffff021916908373ffffffffffffffffffffffffffffffffffffffff1602179055508173ffffffffffffffffffffffffffffffffffffffff168173ffffffffffffffffffffffffffffffffffffffff167f8be0079c531659141344cd1fd0a4f28419497f9722a3daafe3b4186f6b6457e060405160405180910390a35050565b8173ffffffffffffffffffffffffffffffffffffffff168373ffffffffffffffffffffffffffffffffffffffff161415612293576040517f08c379a000000000000000000000000000000000000000000000000000000000815260040161228a906139b1565b60405180910390fd5b80600560008573ffffffffffffffffffffffffffffffffffffffff1673ffffffffffffffffffffffffffffffffffffffff16815260200190815260200160002060008473ffffffffffffffffffffffffffffffffffffffff1673ffffffffffffffffffffffffffffffffffffffff16815260200190815260200160002060006101000a81548160ff0219169083151502179055508173ffffffffffffffffffffffffffffffffffffffff168373ffffffffffffffffffffffffffffffffffffffff167f17307eab39ab6107e8899845ad3d59bd9653f200f220920489ca2b5937696c31836040516123849190613874565b60405180910390a3505050565b61239c848484611ef7565b6123a8848484846127ad565b6123e7576040517f08c379a00000000000000000000000000000000000000000000000000000000081526004016123de906138f1565b60405180910390fd5b50505050565b6060600e80546123fc90613e56565b80601f016020809104026020016040519081016040528092919081815260200182805461242890613e56565b80156124755780601f1061244a57610100808354040283529160200191612475565b820191906000526020600020905b81548152906001019060200180831161245857829003601f168201915b5050505050905090565b606060008214156124c7576040518060400160405280600181526020017f300000000000000000000000000000000000000000000000000000000000000081525090506125db565b600082905060005b600082146124f95780806124e290613eb9565b915050600a826124f29190613ce1565b91506124cf565b60008167ffffffffffffffff8111156125155761251461401e565b5b6040519080825280601f01601f1916602001820160405280156125475781602001600182028036833780820191505090505b5090505b600085146125d4576001826125609190613d6c565b9150600a8561256f9190613f02565b603061257b9190613c8b565b60f81b81838151811061259157612590613fef565b5b60200101907effffffffffffffffffffffffffffffffffffffffffffffffffffffffffffff1916908160001a905350600a856125cd9190613ce1565b945061254b565b8093505050505b919050565b60005b818110156126265760006125f5610bb8565b9050600a612601610bb8565b1015612612576126113382612944565b5b50808061261e90613eb9565b9150506125e3565b5050565b60007f01ffc9a7000000000000000000000000000000000000000000000000000000007bffffffffffffffffffffffffffffffffffffffffffffffffffffffff1916827bffffffffffffffffffffffffffffffffffffffffffffffffffffffff1916149050919050565b61269f838383612962565b600073ffffffffffffffffffffffffffffffffffffffff168373ffffffffffffffffffffffffffffffffffffffff1614156126e2576126dd81612967565b612721565b8173ffffffffffffffffffffffffffffffffffffffff168373ffffffffffffffffffffffffffffffffffffffff16146127205761271f83826129b0565b5b5b600073ffffffffffffffffffffffffffffffffffffffff168273ffffffffffffffffffffffffffffffffffffffff1614156127645761275f81612b1d565b6127a3565b8273ffffffffffffffffffffffffffffffffffffffff168273ffffffffffffffffffffffffffffffffffffffff16146127a2576127a18282612bee565b5b5b505050565b505050565b60006127ce8473ffffffffffffffffffffffffffffffffffffffff16612c6d565b15612937578373ffffffffffffffffffffffffffffffffffffffff1663150b7a026127f7611d58565b8786866040518563ffffffff1660e01b81526004016128199493929190613828565b602060405180830381600087803b15801561283357600080fd5b505af192505050801561286457506040513d601f19601f8201168201806040525081019061286191906132a1565b60015b6128e7573d8060008114612894576040519150601f19603f3d011682016040523d82523d6000602084013e612899565b606091505b506000815114156128df576040517f08c379a00000000000000000000000000000000000000000000000000000000081526004016128d6906138f1565b60405180910390fd5b805181602001fd5b63150b7a0260e01b7bffffffffffffffffffffffffffffffffffffffffffffffffffffffff1916817bffffffffffffffffffffffffffffffffffffffffffffffffffffffff19161491505061293c565b600190505b949350505050565b61295e828260405180602001604052806000815250612c90565b5050565b505050565b6008805490506009600083815260200190815260200160002081905550600881908060018154018082558091505060019003906000526020600020016000909190919091505550565b600060016129bd846110ce565b6129c79190613d6c565b9050600060076000848152602001908152602001600020549050818114612aac576000600660008673ffffffffffffffffffffffffffffffffffffffff1673ffffffffffffffffffffffffffffffffffffffff168152602001908152602001600020600084815260200190815260200160002054905080600660008773ffffffffffffffffffffffffffffffffffffffff1673ffffffffffffffffffffffffffffffffffffffff168152602001908152602001600020600084815260200190815260200160002081905550816007600083815260200190815260200160002081905550505b6007600084815260200190815260200160002060009055600660008573ffffffffffffffffffffffffffffffffffffffff1673ffffffffffffffffffffffffffffffffffffffff16815260200190815260200160002060008381526020019081526020016000206000905550505050565b60006001600880549050612b319190613d6c565b9050600060096000848152602001908152602001600020549050600060088381548110612b6157612b60613fef565b5b906000526020600020015490508060088381548110612b8357612b82613fef565b5b906000526020600020018190555081600960008381526020019081526020016000208190555060096000858152602001908152602001600020600090556008805480612bd257612bd1613fc0565b5b6001900381819060005260206000200160009055905550505050565b6000612bf9836110ce565b905081600660008573ffffffffffffffffffffffffffffffffffffffff1673ffffffffffffffffffffffffffffffffffffffff168152602001908152602001600020600083815260200190815260200160002081905550806007600084815260200190815260200160002081905550505050565b6000808273ffffffffffffffffffffffffffffffffffffffff163b119050919050565b612c9a8383612ceb565b612ca760008484846127ad565b612ce6576040517f08c379a0000000000000000000000000000000000000000000000000000000008152600401612cdd906138f1565b60405180910390fd5b505050565b600073ffffffffffffffffffffffffffffffffffffffff168273ffffffffffffffffffffffffffffffffffffffff161415612d5b576040517f08c379a0000000000000000000000000000000000000000000000000000000008152600401612d5290613a91565b60405180910390fd5b612d6481611cec565b15612da4576040517f08c379a0000000000000000000000000000000000000000000000000000000008152600401612d9b90613951565b60405180910390fd5b612db060008383612694565b6001600360008473ffffffffffffffffffffffffffffffffffffffff1673ffffffffffffffffffffffffffffffffffffffff1681526020019081526020016000206000828254612e009190613c8b565b92505081905550816002600083815260200190815260200160002060006101000a81548173ffffffffffffffffffffffffffffffffffffffff021916908373ffffffffffffffffffffffffffffffffffffffff160217905550808273ffffffffffffffffffffffffffffffffffffffff16600073ffffffffffffffffffffffffffffffffffffffff167fddf252ad1be2c89b69c2b068fc378daa952ba7f163c4a11628f55a4df523b3ef60405160405180910390a4612ec1600083836127a8565b5050565b828054612ed190613e56565b90600052602060002090601f016020900481019282612ef35760008555612f3a565b82601f10612f0c57805160ff1916838001178555612f3a565b82800160010185558215612f3a579182015b82811115612f39578251825591602001919060010190612f1e565b5b509050612f479190612f4b565b5090565b5b80821115612f64576000816000905550600101612f4c565b5090565b6000612f7b612f7684613bd1565b613bac565b905082815260208101848484011115612f9757612f96614052565b5b612fa2848285613e14565b509392505050565b6000612fbd612fb884613c02565b613bac565b905082815260208101848484011115612fd957612fd8614052565b5b612fe4848285613e14565b509392505050565b600081359050612ffb8161465b565b92915050565b60008135905061301081614672565b92915050565b60008135905061302581614689565b92915050565b60008151905061303a81614689565b92915050565b600082601f8301126130555761305461404d565b5b8135613065848260208601612f68565b91505092915050565b600082601f8301126130835761308261404d565b5b8135613093848260208601612faa565b91505092915050565b6000813590506130ab816146a0565b92915050565b6000602082840312156130c7576130c661405c565b5b60006130d584828501612fec565b91505092915050565b600080604083850312156130f5576130f461405c565b5b600061310385828601612fec565b925050602061311485828601612fec565b9150509250929050565b6000806000606084860312156131375761313661405c565b5b600061314586828701612fec565b935050602061315686828701612fec565b92505060406131678682870161309c565b9150509250925092565b6000806000806080858703121561318b5761318a61405c565b5b600061319987828801612fec565b94505060206131aa87828801612fec565b93505060406131bb8782880161309c565b925050606085013567ffffffffffffffff8111156131dc576131db614057565b5b6131e887828801613040565b91505092959194509250565b6000806040838503121561320b5761320a61405c565b5b600061321985828601612fec565b925050602061322a85828601613001565b9150509250929050565b6000806040838503121561324b5761324a61405c565b5b600061325985828601612fec565b925050602061326a8582860161309c565b9150509250929050565b60006020828403121561328a5761328961405c565b5b600061329884828501613016565b91505092915050565b6000602082840312156132b7576132b661405c565b5b60006132c58482850161302b565b91505092915050565b6000602082840312156132e4576132e361405c565b5b600082013567ffffffffffffffff81111561330257613301614057565b5b61330e8482850161306e565b91505092915050565b60006020828403121561332d5761332c61405c565b5b600061333b8482850161309c565b91505092915050565b61334d81613da0565b82525050565b61335c81613db2565b82525050565b600061336d82613c48565b6133778185613c5e565b9350613387818560208601613e23565b61339081614061565b840191505092915050565b60006133a682613c53565b6133b08185613c6f565b93506133c0818560208601613e23565b6133c981614061565b840191505092915050565b60006133df82613c53565b6133e98185613c80565b93506133f9818560208601613e23565b80840191505092915050565b6000815461341281613e56565b61341c8186613c80565b9450600182166000811461343757600181146134485761347b565b60ff1983168652818601935061347b565b61345185613c33565b60005b8381101561347357815481890152600182019150602081019050613454565b838801955050505b50505092915050565b6000613491602683613c6f565b915061349c82614072565b604082019050919050565b60006134b4602b83613c6f565b91506134bf826140c1565b604082019050919050565b60006134d7603283613c6f565b91506134e282614110565b604082019050919050565b60006134fa602683613c6f565b91506135058261415f565b604082019050919050565b600061351d602583613c6f565b9150613528826141ae565b604082019050919050565b6000613540601c83613c6f565b915061354b826141fd565b602082019050919050565b6000613563601c83613c6f565b915061356e82614226565b602082019050919050565b6000613586602483613c6f565b91506135918261424f565b604082019050919050565b60006135a9601983613c6f565b91506135b48261429e565b602082019050919050565b60006135cc602c83613c6f565b91506135d7826142c7565b604082019050919050565b60006135ef602083613c6f565b91506135fa82614316565b602082019050919050565b6000613612601d83613c6f565b915061361d8261433f565b602082019050919050565b6000613635603883613c6f565b915061364082614368565b604082019050919050565b6000613658602a83613c6f565b9150613663826143b7565b604082019050919050565b600061367b602983613c6f565b915061368682614406565b604082019050919050565b600061369e602083613c6f565b91506136a982614455565b602082019050919050565b60006136c1602c83613c6f565b91506136cc8261447e565b604082019050919050565b60006136e4602083613c6f565b91506136ef826144cd565b602082019050919050565b6000613707602f83613c6f565b9150613712826144f6565b604082019050919050565b600061372a602183613c6f565b915061373582614545565b604082019050919050565b600061374d603183613c6f565b915061375882614594565b604082019050919050565b6000613770602c83613c6f565b915061377b826145e3565b604082019050919050565b6000613793601583613c6f565b915061379e82614632565b602082019050919050565b6137b281613e0a565b82525050565b60006137c482856133d4565b91506137d082846133d4565b91508190509392505050565b60006137e882866133d4565b91506137f482856133d4565b91506138008284613405565b9150819050949350505050565b60006020820190506138226000830184613344565b92915050565b600060808201905061383d6000830187613344565b61384a6020830186613344565b61385760408301856137a9565b81810360608301526138698184613362565b905095945050505050565b60006020820190506138896000830184613353565b92915050565b600060208201905081810360008301526138a9818461339b565b905092915050565b600060208201905081810360008301526138ca81613484565b9050919050565b600060208201905081810360008301526138ea816134a7565b9050919050565b6000602082019050818103600083015261390a816134ca565b9050919050565b6000602082019050818103600083015261392a816134ed565b9050919050565b6000602082019050818103600083015261394a81613510565b9050919050565b6000602082019050818103600083015261396a81613533565b9050919050565b6000602082019050818103600083015261398a81613556565b9050919050565b600060208201905081810360008301526139aa81613579565b9050919050565b600060208201905081810360008301526139ca8161359c565b9050919050565b600060208201905081810360008301526139ea816135bf565b9050919050565b60006020820190508181036000830152613a0a816135e2565b9050919050565b60006020820190508181036000830152613a2a81613605565b9050919050565b60006020820190508181036000830152613a4a81613628565b9050919050565b60006020820190508181036000830152613a6a8161364b565b9050919050565b60006020820190508181036000830152613a8a8161366e565b9050919050565b60006020820190508181036000830152613aaa81613691565b9050919050565b60006020820190508181036000830152613aca816136b4565b9050919050565b60006020820190508181036000830152613aea816136d7565b9050919050565b60006020820190508181036000830152613b0a816136fa565b9050919050565b60006020820190508181036000830152613b2a8161371d565b9050919050565b60006020820190508181036000830152613b4a81613740565b9050919050565b60006020820190508181036000830152613b6a81613763565b9050919050565b60006020820190508181036000830152613b8a81613786565b9050919050565b6000602082019050613ba660008301846137a9565b92915050565b6000613bb6613bc7565b9050613bc28282613e88565b919050565b6000604051905090565b600067ffffffffffffffff821115613bec57613beb61401e565b5b613bf582614061565b9050602081019050919050565b600067ffffffffffffffff821115613c1d57613c1c61401e565b5b613c2682614061565b9050602081019050919050565b60008190508160005260206000209050919050565b600081519050919050565b600081519050919050565b600082825260208201905092915050565b600082825260208201905092915050565b600081905092915050565b6000613c9682613e0a565b9150613ca183613e0a565b9250827fffffffffffffffffffffffffffffffffffffffffffffffffffffffffffffffff03821115613cd657613cd5613f33565b5b828201905092915050565b6000613cec82613e0a565b9150613cf783613e0a565b925082613d0757613d06613f62565b5b828204905092915050565b6000613d1d82613e0a565b9150613d2883613e0a565b9250817fffffffffffffffffffffffffffffffffffffffffffffffffffffffffffffffff0483118215151615613d6157613d60613f33565b5b828202905092915050565b6000613d7782613e0a565b9150613d8283613e0a565b925082821015613d9557613d94613f33565b5b828203905092915050565b6000613dab82613dea565b9050919050565b60008115159050919050565b60007fffffffff0000000000000000000000000000000000000000000000000000000082169050919050565b600073ffffffffffffffffffffffffffffffffffffffff82169050919050565b6000819050919050565b82818337600083830152505050565b60005b83811015613e41578082015181840152602081019050613e26565b83811115613e50576000848401525b50505050565b60006002820490506001821680613e6e57607f821691505b60208210811415613e8257613e81613f91565b5b50919050565b613e9182614061565b810181811067ffffffffffffffff82111715613eb057613eaf61401e565b5b80604052505050565b6000613ec482613e0a565b91507fffffffffffffffffffffffffffffffffffffffffffffffffffffffffffffffff821415613ef757613ef6613f33565b5b600182019050919050565b6000613f0d82613e0a565b9150613f1883613e0a565b925082613f2857613f27613f62565b5b828206905092915050565b7f4e487b7100000000000000000000000000000000000000000000000000000000600052601160045260246000fd5b7f4e487b7100000000000000000000000000000000000000000000000000000000600052601260045260246000fd5b7f4e487b7100000000000000000000000000000000000000000000000000000000600052602260045260246000fd5b7f4e487b7100000000000000000000000000000000000000000000000000000000600052603160045260246000fd5b7f4e487b7100000000000000000000000000000000000000000000000000000000600052603260045260246000fd5b7f4e487b7100000000000000000000000000000000000000000000000000000000600052604160045260246000fd5b600080fd5b600080fd5b600080fd5b600080fd5b6000601f19601f8301169050919050565b7f53616c65206d7573742062652061637469766520746f206d696e74204b65697460008201527f684d657461730000000000000000000000000000000000000000000000000000602082015250565b7f455243373231456e756d657261626c653a206f776e657220696e646578206f7560008201527f74206f6620626f756e6473000000000000000000000000000000000000000000602082015250565b7f4552433732313a207472616e7366657220746f206e6f6e20455243373231526560008201527f63656976657220696d706c656d656e7465720000000000000000000000000000602082015250565b7f4f776e61626c653a206e6577206f776e657220697320746865207a65726f206160008201527f6464726573730000000000000000000000000000000000000000000000000000602082015250565b7f4552433732313a207472616e736665722066726f6d20696e636f72726563742060008201527f6f776e6572000000000000000000000000000000000000000000000000000000602082015250565b7f4552433732313a20746f6b656e20616c7265616479206d696e74656400000000600082015250565b7f53616c6520776f756c6420657863656564206d617820737570706c7900000000600082015250565b7f4552433732313a207472616e7366657220746f20746865207a65726f2061646460008201527f7265737300000000000000000000000000000000000000000000000000000000602082015250565b7f4552433732313a20617070726f766520746f2063616c6c657200000000000000600082015250565b7f4552433732313a206f70657261746f7220717565727920666f72206e6f6e657860008201527f697374656e7420746f6b656e0000000000000000000000000000000000000000602082015250565b7f43616e206f6e6c79206d696e74203120746f6b656e7320617420612074696d65600082015250565b7f53616c6520776f756c6420657863656564206d61782062616c616e6365000000600082015250565b7f4552433732313a20617070726f76652063616c6c6572206973206e6f74206f7760008201527f6e6572206e6f7220617070726f76656420666f7220616c6c0000000000000000602082015250565b7f4552433732313a2062616c616e636520717565727920666f7220746865207a6560008201527f726f206164647265737300000000000000000000000000000000000000000000602082015250565b7f4552433732313a206f776e657220717565727920666f72206e6f6e657869737460008201527f656e7420746f6b656e0000000000000000000000000000000000000000000000602082015250565b7f4552433732313a206d696e7420746f20746865207a65726f2061646472657373600082015250565b7f4552433732313a20617070726f76656420717565727920666f72206e6f6e657860008201527f697374656e7420746f6b656e0000000000000000000000000000000000000000602082015250565b7f4f776e61626c653a2063616c6c6572206973206e6f7420746865206f776e6572600082015250565b7f4552433732314d657461646174613a2055524920717565727920666f72206e6f60008201527f6e6578697374656e7420746f6b656e0000000000000000000000000000000000602082015250565b7f4552433732313a20617070726f76616c20746f2063757272656e74206f776e6560008201527f7200000000000000000000000000000000000000000000000000000000000000602082015250565b7f4552433732313a207472616e736665722063616c6c6572206973206e6f74206f60008201527f776e6572206e6f7220617070726f766564000000000000000000000000000000602082015250565b7f455243373231456e756d657261626c653a20676c6f62616c20696e646578206f60008201527f7574206f6620626f756e64730000000000000000000000000000000000000000602082015250565b7f4e6f7420656e6f7567682065746865722073656e740000000000000000000000600082015250565b61466481613da0565b811461466f57600080fd5b50565b61467b81613db2565b811461468657600080fd5b50565b61469281613dbe565b811461469d57600080fd5b50565b6146a981613e0a565b81146146b457600080fd5b5056fea264697066735822122040e7876b5dc6cf1a02dbdafce6f70ae42beb6698e8635176ad0af37c406af98364736f6c63430008070033",
			"opcodes": "PUSH1 0x80 PUSH1 0x40 MSTORE PUSH1 0x0 PUSH1 0xA PUSH1 0x14 PUSH2 0x100 EXP DUP2 SLOAD DUP2 PUSH1 0xFF MUL NOT AND SWAP1 DUP4 ISZERO ISZERO MUL OR SWAP1 SSTORE POP PUSH1 0x0 PUSH1 0xA PUSH1 0x15 PUSH2 0x100 EXP DUP2 SLOAD DUP2 PUSH1 0xFF MUL NOT AND SWAP1 DUP4 ISZERO ISZERO MUL OR SWAP1 SSTORE POP PUSH8 0x429D069189E0000 PUSH1 0xB SSTORE PUSH1 0x1 PUSH1 0xC SSTORE PUSH1 0x1 PUSH1 0xD SSTORE PUSH1 0x40 MLOAD DUP1 PUSH1 0x40 ADD PUSH1 0x40 MSTORE DUP1 PUSH1 0x5 DUP2 MSTORE PUSH1 0x20 ADD PUSH32 0x2E6A736F6E000000000000000000000000000000000000000000000000000000 DUP2 MSTORE POP PUSH1 0x10 SWAP1 DUP1 MLOAD SWAP1 PUSH1 0x20 ADD SWAP1 PUSH3 0x9D SWAP3 SWAP2 SWAP1 PUSH3 0x409 JUMP JUMPDEST POP CALLVALUE DUP1 ISZERO PUSH3 0xAB JUMPI PUSH1 0x0 DUP1 REVERT JUMPDEST POP PUSH1 0x40 MLOAD PUSH3 0x4EC0 CODESIZE SUB DUP1 PUSH3 0x4EC0 DUP4 CODECOPY DUP2 DUP2 ADD PUSH1 0x40 MSTORE DUP2 ADD SWAP1 PUSH3 0xD1 SWAP2 SWAP1 PUSH3 0x537 JUMP JUMPDEST PUSH1 0x40 MLOAD DUP1 PUSH1 0x40 ADD PUSH1 0x40 MSTORE DUP1 PUSH1 0xA DUP2 MSTORE PUSH1 0x20 ADD PUSH32 0x4B65697468204D65746100000000000000000000000000000000000000000000 DUP2 MSTORE POP PUSH1 0x40 MLOAD DUP1 PUSH1 0x40 ADD PUSH1 0x40 MSTORE DUP1 PUSH1 0x2 DUP2 MSTORE PUSH1 0x20 ADD PUSH32 0x4B4D000000000000000000000000000000000000000000000000000000000000 DUP2 MSTORE POP DUP2 PUSH1 0x0 SWAP1 DUP1 MLOAD SWAP1 PUSH1 0x20 ADD SWAP1 PUSH3 0x155 SWAP3 SWAP2 SWAP1 PUSH3 0x409 JUMP JUMPDEST POP DUP1 PUSH1 0x1 SWAP1 DUP1 MLOAD SWAP1 PUSH1 0x20 ADD SWAP1 PUSH3 0x16E SWAP3 SWAP2 SWAP1 PUSH3 0x409 JUMP JUMPDEST POP POP POP PUSH3 0x191 PUSH3 0x185 PUSH3 0x1BB PUSH1 0x20 SHL PUSH1 0x20 SHR JUMP JUMPDEST PUSH3 0x1C3 PUSH1 0x20 SHL PUSH1 0x20 SHR JUMP JUMPDEST PUSH3 0x1A2 DUP3 PUSH3 0x289 PUSH1 0x20 SHL PUSH1 0x20 SHR JUMP JUMPDEST PUSH3 0x1B3 DUP2 PUSH3 0x334 PUSH1 0x20 SHL PUSH1 0x20 SHR JUMP JUMPDEST POP POP PUSH3 0x7C3 JUMP JUMPDEST PUSH1 0x0 CALLER SWAP1 POP SWAP1 JUMP JUMPDEST PUSH1 0x0 PUSH1 0xA PUSH1 0x0 SWAP1 SLOAD SWAP1 PUSH2 0x100 EXP SWAP1 DIV PUSH20 0xFFFFFFFFFFFFFFFFFFFFFFFFFFFFFFFFFFFFFFFF AND SWAP1 POP DUP2 PUSH1 0xA PUSH1 0x0 PUSH2 0x100 EXP DUP2 SLOAD DUP2 PUSH20 0xFFFFFFFFFFFFFFFFFFFFFFFFFFFFFFFFFFFFFFFF MUL NOT AND SWAP1 DUP4 PUSH20 0xFFFFFFFFFFFFFFFFFFFFFFFFFFFFFFFFFFFFFFFF AND MUL OR SWAP1 SSTORE POP DUP2 PUSH20 0xFFFFFFFFFFFFFFFFFFFFFFFFFFFFFFFFFFFFFFFF AND DUP2 PUSH20 0xFFFFFFFFFFFFFFFFFFFFFFFFFFFFFFFFFFFFFFFF AND PUSH32 0x8BE0079C531659141344CD1FD0A4F28419497F9722A3DAAFE3B4186F6B6457E0 PUSH1 0x40 MLOAD PUSH1 0x40 MLOAD DUP1 SWAP2 SUB SWAP1 LOG3 POP POP JUMP JUMPDEST PUSH3 0x299 PUSH3 0x1BB PUSH1 0x20 SHL PUSH1 0x20 SHR JUMP JUMPDEST PUSH20 0xFFFFFFFFFFFFFFFFFFFFFFFFFFFFFFFFFFFFFFFF AND PUSH3 0x2BF PUSH3 0x3DF PUSH1 0x20 SHL PUSH1 0x20 SHR JUMP JUMPDEST PUSH20 0xFFFFFFFFFFFFFFFFFFFFFFFFFFFFFFFFFFFFFFFF AND EQ PUSH3 0x318 JUMPI PUSH1 0x40 MLOAD PUSH32 0x8C379A000000000000000000000000000000000000000000000000000000000 DUP2 MSTORE PUSH1 0x4 ADD PUSH3 0x30F SWAP1 PUSH3 0x5E3 JUMP JUMPDEST PUSH1 0x40 MLOAD DUP1 SWAP2 SUB SWAP1 REVERT JUMPDEST DUP1 PUSH1 0xE SWAP1 DUP1 MLOAD SWAP1 PUSH1 0x20 ADD SWAP1 PUSH3 0x330 SWAP3 SWAP2 SWAP1 PUSH3 0x409 JUMP JUMPDEST POP POP JUMP JUMPDEST PUSH3 0x344 PUSH3 0x1BB PUSH1 0x20 SHL PUSH1 0x20 SHR JUMP JUMPDEST PUSH20 0xFFFFFFFFFFFFFFFFFFFFFFFFFFFFFFFFFFFFFFFF AND PUSH3 0x36A PUSH3 0x3DF PUSH1 0x20 SHL PUSH1 0x20 SHR JUMP JUMPDEST PUSH20 0xFFFFFFFFFFFFFFFFFFFFFFFFFFFFFFFFFFFFFFFF AND EQ PUSH3 0x3C3 JUMPI PUSH1 0x40 MLOAD PUSH32 0x8C379A000000000000000000000000000000000000000000000000000000000 DUP2 MSTORE PUSH1 0x4 ADD PUSH3 0x3BA SWAP1 PUSH3 0x5E3 JUMP JUMPDEST PUSH1 0x40 MLOAD DUP1 SWAP2 SUB SWAP1 REVERT JUMPDEST DUP1 PUSH1 0xF SWAP1 DUP1 MLOAD SWAP1 PUSH1 0x20 ADD SWAP1 PUSH3 0x3DB SWAP3 SWAP2 SWAP1 PUSH3 0x409 JUMP JUMPDEST POP POP JUMP JUMPDEST PUSH1 0x0 PUSH1 0xA PUSH1 0x0 SWAP1 SLOAD SWAP1 PUSH2 0x100 EXP SWAP1 DIV PUSH20 0xFFFFFFFFFFFFFFFFFFFFFFFFFFFFFFFFFFFFFFFF AND SWAP1 POP SWAP1 JUMP JUMPDEST DUP3 DUP1 SLOAD PUSH3 0x417 SWAP1 PUSH3 0x6AB JUMP JUMPDEST SWAP1 PUSH1 0x0 MSTORE PUSH1 0x20 PUSH1 0x0 KECCAK256 SWAP1 PUSH1 0x1F ADD PUSH1 0x20 SWAP1 DIV DUP2 ADD SWAP3 DUP3 PUSH3 0x43B JUMPI PUSH1 0x0 DUP6 SSTORE PUSH3 0x487 JUMP JUMPDEST DUP3 PUSH1 0x1F LT PUSH3 0x456 JUMPI DUP1 MLOAD PUSH1 0xFF NOT AND DUP4 DUP1 ADD OR DUP6 SSTORE PUSH3 0x487 JUMP JUMPDEST DUP3 DUP1 ADD PUSH1 0x1 ADD DUP6 SSTORE DUP3 ISZERO PUSH3 0x487 JUMPI SWAP2 DUP3 ADD JUMPDEST DUP3 DUP2 GT ISZERO PUSH3 0x486 JUMPI DUP3 MLOAD DUP3 SSTORE SWAP2 PUSH1 0x20 ADD SWAP2 SWAP1 PUSH1 0x1 ADD SWAP1 PUSH3 0x469 JUMP JUMPDEST JUMPDEST POP SWAP1 POP PUSH3 0x496 SWAP2 SWAP1 PUSH3 0x49A JUMP JUMPDEST POP SWAP1 JUMP JUMPDEST JUMPDEST DUP1 DUP3 GT ISZERO PUSH3 0x4B5 JUMPI PUSH1 0x0 DUP2 PUSH1 0x0 SWAP1 SSTORE POP PUSH1 0x1 ADD PUSH3 0x49B JUMP JUMPDEST POP SWAP1 JUMP JUMPDEST PUSH1 0x0 PUSH3 0x4D0 PUSH3 0x4CA DUP5 PUSH3 0x62E JUMP JUMPDEST PUSH3 0x605 JUMP JUMPDEST SWAP1 POP DUP3 DUP2 MSTORE PUSH1 0x20 DUP2 ADD DUP5 DUP5 DUP5 ADD GT ISZERO PUSH3 0x4EF JUMPI PUSH3 0x4EE PUSH3 0x77A JUMP JUMPDEST JUMPDEST PUSH3 0x4FC DUP5 DUP3 DUP6 PUSH3 0x675 JUMP JUMPDEST POP SWAP4 SWAP3 POP POP POP JUMP JUMPDEST PUSH1 0x0 DUP3 PUSH1 0x1F DUP4 ADD SLT PUSH3 0x51C JUMPI PUSH3 0x51B PUSH3 0x775 JUMP JUMPDEST JUMPDEST DUP2 MLOAD PUSH3 0x52E DUP5 DUP3 PUSH1 0x20 DUP7 ADD PUSH3 0x4B9 JUMP JUMPDEST SWAP2 POP POP SWAP3 SWAP2 POP POP JUMP JUMPDEST PUSH1 0x0 DUP1 PUSH1 0x40 DUP4 DUP6 SUB SLT ISZERO PUSH3 0x551 JUMPI PUSH3 0x550 PUSH3 0x784 JUMP JUMPDEST JUMPDEST PUSH1 0x0 DUP4 ADD MLOAD PUSH8 0xFFFFFFFFFFFFFFFF DUP2 GT ISZERO PUSH3 0x572 JUMPI PUSH3 0x571 PUSH3 0x77F JUMP JUMPDEST JUMPDEST PUSH3 0x580 DUP6 DUP3 DUP7 ADD PUSH3 0x504 JUMP JUMPDEST SWAP3 POP POP PUSH1 0x20 DUP4 ADD MLOAD PUSH8 0xFFFFFFFFFFFFFFFF DUP2 GT ISZERO PUSH3 0x5A4 JUMPI PUSH3 0x5A3 PUSH3 0x77F JUMP JUMPDEST JUMPDEST PUSH3 0x5B2 DUP6 DUP3 DUP7 ADD PUSH3 0x504 JUMP JUMPDEST SWAP2 POP POP SWAP3 POP SWAP3 SWAP1 POP JUMP JUMPDEST PUSH1 0x0 PUSH3 0x5CB PUSH1 0x20 DUP4 PUSH3 0x664 JUMP JUMPDEST SWAP2 POP PUSH3 0x5D8 DUP3 PUSH3 0x79A JUMP JUMPDEST PUSH1 0x20 DUP3 ADD SWAP1 POP SWAP2 SWAP1 POP JUMP JUMPDEST PUSH1 0x0 PUSH1 0x20 DUP3 ADD SWAP1 POP DUP2 DUP2 SUB PUSH1 0x0 DUP4 ADD MSTORE PUSH3 0x5FE DUP2 PUSH3 0x5BC JUMP JUMPDEST SWAP1 POP SWAP2 SWAP1 POP JUMP JUMPDEST PUSH1 0x0 PUSH3 0x611 PUSH3 0x624 JUMP JUMPDEST SWAP1 POP PUSH3 0x61F DUP3 DUP3 PUSH3 0x6E1 JUMP JUMPDEST SWAP2 SWAP1 POP JUMP JUMPDEST PUSH1 0x0 PUSH1 0x40 MLOAD SWAP1 POP SWAP1 JUMP JUMPDEST PUSH1 0x0 PUSH8 0xFFFFFFFFFFFFFFFF DUP3 GT ISZERO PUSH3 0x64C JUMPI PUSH3 0x64B PUSH3 0x746 JUMP JUMPDEST JUMPDEST PUSH3 0x657 DUP3 PUSH3 0x789 JUMP JUMPDEST SWAP1 POP PUSH1 0x20 DUP2 ADD SWAP1 POP SWAP2 SWAP1 POP JUMP JUMPDEST PUSH1 0x0 DUP3 DUP3 MSTORE PUSH1 0x20 DUP3 ADD SWAP1 POP SWAP3 SWAP2 POP POP JUMP JUMPDEST PUSH1 0x0 JUMPDEST DUP4 DUP2 LT ISZERO PUSH3 0x695 JUMPI DUP1 DUP3 ADD MLOAD DUP2 DUP5 ADD MSTORE PUSH1 0x20 DUP2 ADD SWAP1 POP PUSH3 0x678 JUMP JUMPDEST DUP4 DUP2 GT ISZERO PUSH3 0x6A5 JUMPI PUSH1 0x0 DUP5 DUP5 ADD MSTORE JUMPDEST POP POP POP POP JUMP JUMPDEST PUSH1 0x0 PUSH1 0x2 DUP3 DIV SWAP1 POP PUSH1 0x1 DUP3 AND DUP1 PUSH3 0x6C4 JUMPI PUSH1 0x7F DUP3 AND SWAP2 POP JUMPDEST PUSH1 0x20 DUP3 LT DUP2 EQ ISZERO PUSH3 0x6DB JUMPI PUSH3 0x6DA PUSH3 0x717 JUMP JUMPDEST JUMPDEST POP SWAP2 SWAP1 POP JUMP JUMPDEST PUSH3 0x6EC DUP3 PUSH3 0x789 JUMP JUMPDEST DUP2 ADD DUP2 DUP2 LT PUSH8 0xFFFFFFFFFFFFFFFF DUP3 GT OR ISZERO PUSH3 0x70E JUMPI PUSH3 0x70D PUSH3 0x746 JUMP JUMPDEST JUMPDEST DUP1 PUSH1 0x40 MSTORE POP POP POP JUMP JUMPDEST PUSH32 0x4E487B7100000000000000000000000000000000000000000000000000000000 PUSH1 0x0 MSTORE PUSH1 0x22 PUSH1 0x4 MSTORE PUSH1 0x24 PUSH1 0x0 REVERT JUMPDEST PUSH32 0x4E487B7100000000000000000000000000000000000000000000000000000000 PUSH1 0x0 MSTORE PUSH1 0x41 PUSH1 0x4 MSTORE PUSH1 0x24 PUSH1 0x0 REVERT JUMPDEST PUSH1 0x0 DUP1 REVERT JUMPDEST PUSH1 0x0 DUP1 REVERT JUMPDEST PUSH1 0x0 DUP1 REVERT JUMPDEST PUSH1 0x0 DUP1 REVERT JUMPDEST PUSH1 0x0 PUSH1 0x1F NOT PUSH1 0x1F DUP4 ADD AND SWAP1 POP SWAP2 SWAP1 POP JUMP JUMPDEST PUSH32 0x4F776E61626C653A2063616C6C6572206973206E6F7420746865206F776E6572 PUSH1 0x0 DUP3 ADD MSTORE POP JUMP JUMPDEST PUSH2 0x46ED DUP1 PUSH3 0x7D3 PUSH1 0x0 CODECOPY PUSH1 0x0 RETURN INVALID PUSH1 0x80 PUSH1 0x40 MSTORE PUSH1 0x4 CALLDATASIZE LT PUSH2 0x21A JUMPI PUSH1 0x0 CALLDATALOAD PUSH1 0xE0 SHR DUP1 PUSH4 0x7080D6FC GT PUSH2 0x123 JUMPI DUP1 PUSH4 0xB88D4FDE GT PUSH2 0xAB JUMPI DUP1 PUSH4 0xE985E9C5 GT PUSH2 0x6F JUMPI DUP1 PUSH4 0xE985E9C5 EQ PUSH2 0x7AD JUMPI DUP1 PUSH4 0xF2C4CE1E EQ PUSH2 0x7EA JUMPI DUP1 PUSH4 0xF2FDE38B EQ PUSH2 0x813 JUMPI DUP1 PUSH4 0xF4A0A528 EQ PUSH2 0x83C JUMPI DUP1 PUSH4 0xF8129892 EQ PUSH2 0x865 JUMPI PUSH2 0x21A JUMP JUMPDEST DUP1 PUSH4 0xB88D4FDE EQ PUSH2 0x6DC JUMPI DUP1 PUSH4 0xC6682862 EQ PUSH2 0x705 JUMPI DUP1 PUSH4 0xC87B56DD EQ PUSH2 0x730 JUMPI DUP1 PUSH4 0xDA3EF23F EQ PUSH2 0x76D JUMPI DUP1 PUSH4 0xDE8B51E1 EQ PUSH2 0x796 JUMPI PUSH2 0x21A JUMP JUMPDEST DUP1 PUSH4 0x7501F741 GT PUSH2 0xF2 JUMPI DUP1 PUSH4 0x7501F741 EQ PUSH2 0x609 JUMPI DUP1 PUSH4 0x8DA5CB5B EQ PUSH2 0x634 JUMPI DUP1 PUSH4 0x95D89B41 EQ PUSH2 0x65F JUMPI DUP1 PUSH4 0x9D51D9B7 EQ PUSH2 0x68A JUMPI DUP1 PUSH4 0xA22CB465 EQ PUSH2 0x6B3 JUMPI PUSH2 0x21A JUMP JUMPDEST DUP1 PUSH4 0x7080D6FC EQ PUSH2 0x55F JUMPI DUP1 PUSH4 0x70A08231 EQ PUSH2 0x58A JUMPI DUP1 PUSH4 0x715018A6 EQ PUSH2 0x5C7 JUMPI DUP1 PUSH4 0x73AD468A EQ PUSH2 0x5DE JUMPI PUSH2 0x21A JUMP JUMPDEST DUP1 PUSH4 0x3B84D9C6 GT PUSH2 0x1A6 JUMPI DUP1 PUSH4 0x547520FE GT PUSH2 0x175 JUMPI DUP1 PUSH4 0x547520FE EQ PUSH2 0x47A JUMPI DUP1 PUSH4 0x55F804B3 EQ PUSH2 0x4A3 JUMPI DUP1 PUSH4 0x6352211E EQ PUSH2 0x4CC JUMPI DUP1 PUSH4 0x6817C76C EQ PUSH2 0x509 JUMPI DUP1 PUSH4 0x6EBEAC85 EQ PUSH2 0x534 JUMPI PUSH2 0x21A JUMP JUMPDEST DUP1 PUSH4 0x3B84D9C6 EQ PUSH2 0x3D4 JUMPI DUP1 PUSH4 0x42842E0E EQ PUSH2 0x3EB JUMPI DUP1 PUSH4 0x4F6CCCE7 EQ PUSH2 0x414 JUMPI DUP1 PUSH4 0x51CFF8D9 EQ PUSH2 0x451 JUMPI PUSH2 0x21A JUMP JUMPDEST DUP1 PUSH4 0x95EA7B3 GT PUSH2 0x1ED JUMPI DUP1 PUSH4 0x95EA7B3 EQ PUSH2 0x2EF JUMPI DUP1 PUSH4 0x18160DDD EQ PUSH2 0x318 JUMPI DUP1 PUSH4 0x23B872DD EQ PUSH2 0x343 JUMPI DUP1 PUSH4 0x2F745C59 EQ PUSH2 0x36C JUMPI DUP1 PUSH4 0x32CB6B0C EQ PUSH2 0x3A9 JUMPI PUSH2 0x21A JUMP JUMPDEST DUP1 PUSH4 0x1FFC9A7 EQ PUSH2 0x21F JUMPI DUP1 PUSH4 0x6FDDE03 EQ PUSH2 0x25C JUMPI DUP1 PUSH4 0x81812FC EQ PUSH2 0x287 JUMPI DUP1 PUSH4 0x81C8C44 EQ PUSH2 0x2C4 JUMPI JUMPDEST PUSH1 0x0 DUP1 REVERT JUMPDEST CALLVALUE DUP1 ISZERO PUSH2 0x22B JUMPI PUSH1 0x0 DUP1 REVERT JUMPDEST POP PUSH2 0x246 PUSH1 0x4 DUP1 CALLDATASIZE SUB DUP2 ADD SWAP1 PUSH2 0x241 SWAP2 SWAP1 PUSH2 0x3274 JUMP JUMPDEST PUSH2 0x881 JUMP JUMPDEST PUSH1 0x40 MLOAD PUSH2 0x253 SWAP2 SWAP1 PUSH2 0x3874 JUMP JUMPDEST PUSH1 0x40 MLOAD DUP1 SWAP2 SUB SWAP1 RETURN JUMPDEST CALLVALUE DUP1 ISZERO PUSH2 0x268 JUMPI PUSH1 0x0 DUP1 REVERT JUMPDEST POP PUSH2 0x271 PUSH2 0x8FB JUMP JUMPDEST PUSH1 0x40 MLOAD PUSH2 0x27E SWAP2 SWAP1 PUSH2 0x388F JUMP JUMPDEST PUSH1 0x40 MLOAD DUP1 SWAP2 SUB SWAP1 RETURN JUMPDEST CALLVALUE DUP1 ISZERO PUSH2 0x293 JUMPI PUSH1 0x0 DUP1 REVERT JUMPDEST POP PUSH2 0x2AE PUSH1 0x4 DUP1 CALLDATASIZE SUB DUP2 ADD SWAP1 PUSH2 0x2A9 SWAP2 SWAP1 PUSH2 0x3317 JUMP JUMPDEST PUSH2 0x98D JUMP JUMPDEST PUSH1 0x40 MLOAD PUSH2 0x2BB SWAP2 SWAP1 PUSH2 0x380D JUMP JUMPDEST PUSH1 0x40 MLOAD DUP1 SWAP2 SUB SWAP1 RETURN JUMPDEST CALLVALUE DUP1 ISZERO PUSH2 0x2D0 JUMPI PUSH1 0x0 DUP1 REVERT JUMPDEST POP PUSH2 0x2D9 PUSH2 0xA12 JUMP JUMPDEST PUSH1 0x40 MLOAD PUSH2 0x2E6 SWAP2 SWAP1 PUSH2 0x388F JUMP JUMPDEST PUSH1 0x40 MLOAD DUP1 SWAP2 SUB SWAP1 RETURN JUMPDEST CALLVALUE DUP1 ISZERO PUSH2 0x2FB JUMPI PUSH1 0x0 DUP1 REVERT JUMPDEST POP PUSH2 0x316 PUSH1 0x4 DUP1 CALLDATASIZE SUB DUP2 ADD SWAP1 PUSH2 0x311 SWAP2 SWAP1 PUSH2 0x3234 JUMP JUMPDEST PUSH2 0xAA0 JUMP JUMPDEST STOP JUMPDEST CALLVALUE DUP1 ISZERO PUSH2 0x324 JUMPI PUSH1 0x0 DUP1 REVERT JUMPDEST POP PUSH2 0x32D PUSH2 0xBB8 JUMP JUMPDEST PUSH1 0x40 MLOAD PUSH2 0x33A SWAP2 SWAP1 PUSH2 0x3B91 JUMP JUMPDEST PUSH1 0x40 MLOAD DUP1 SWAP2 SUB SWAP1 RETURN JUMPDEST CALLVALUE DUP1 ISZERO PUSH2 0x34F JUMPI PUSH1 0x0 DUP1 REVERT JUMPDEST POP PUSH2 0x36A PUSH1 0x4 DUP1 CALLDATASIZE SUB DUP2 ADD SWAP1 PUSH2 0x365 SWAP2 SWAP1 PUSH2 0x311E JUMP JUMPDEST PUSH2 0xBC5 JUMP JUMPDEST STOP JUMPDEST CALLVALUE DUP1 ISZERO PUSH2 0x378 JUMPI PUSH1 0x0 DUP1 REVERT JUMPDEST POP PUSH2 0x393 PUSH1 0x4 DUP1 CALLDATASIZE SUB DUP2 ADD SWAP1 PUSH2 0x38E SWAP2 SWAP1 PUSH2 0x3234 JUMP JUMPDEST PUSH2 0xC25 JUMP JUMPDEST PUSH1 0x40 MLOAD PUSH2 0x3A0 SWAP2 SWAP1 PUSH2 0x3B91 JUMP JUMPDEST PUSH1 0x40 MLOAD DUP1 SWAP2 SUB SWAP1 RETURN JUMPDEST CALLVALUE DUP1 ISZERO PUSH2 0x3B5 JUMPI PUSH1 0x0 DUP1 REVERT JUMPDEST POP PUSH2 0x3BE PUSH2 0xCCA JUMP JUMPDEST PUSH1 0x40 MLOAD PUSH2 0x3CB SWAP2 SWAP1 PUSH2 0x3B91 JUMP JUMPDEST PUSH1 0x40 MLOAD DUP1 SWAP2 SUB SWAP1 RETURN JUMPDEST CALLVALUE DUP1 ISZERO PUSH2 0x3E0 JUMPI PUSH1 0x0 DUP1 REVERT JUMPDEST POP PUSH2 0x3E9 PUSH2 0xCCF JUMP JUMPDEST STOP JUMPDEST CALLVALUE DUP1 ISZERO PUSH2 0x3F7 JUMPI PUSH1 0x0 DUP1 REVERT JUMPDEST POP PUSH2 0x412 PUSH1 0x4 DUP1 CALLDATASIZE SUB DUP2 ADD SWAP1 PUSH2 0x40D SWAP2 SWAP1 PUSH2 0x311E JUMP JUMPDEST PUSH2 0xD77 JUMP JUMPDEST STOP JUMPDEST CALLVALUE DUP1 ISZERO PUSH2 0x420 JUMPI PUSH1 0x0 DUP1 REVERT JUMPDEST POP PUSH2 0x43B PUSH1 0x4 DUP1 CALLDATASIZE SUB DUP2 ADD SWAP1 PUSH2 0x436 SWAP2 SWAP1 PUSH2 0x3317 JUMP JUMPDEST PUSH2 0xD97 JUMP JUMPDEST PUSH1 0x40 MLOAD PUSH2 0x448 SWAP2 SWAP1 PUSH2 0x3B91 JUMP JUMPDEST PUSH1 0x40 MLOAD DUP1 SWAP2 SUB SWAP1 RETURN JUMPDEST CALLVALUE DUP1 ISZERO PUSH2 0x45D JUMPI PUSH1 0x0 DUP1 REVERT JUMPDEST POP PUSH2 0x478 PUSH1 0x4 DUP1 CALLDATASIZE SUB DUP2 ADD SWAP1 PUSH2 0x473 SWAP2 SWAP1 PUSH2 0x30B1 JUMP JUMPDEST PUSH2 0xE08 JUMP JUMPDEST STOP JUMPDEST CALLVALUE DUP1 ISZERO PUSH2 0x486 JUMPI PUSH1 0x0 DUP1 REVERT JUMPDEST POP PUSH2 0x4A1 PUSH1 0x4 DUP1 CALLDATASIZE SUB DUP2 ADD SWAP1 PUSH2 0x49C SWAP2 SWAP1 PUSH2 0x3317 JUMP JUMPDEST PUSH2 0xED4 JUMP JUMPDEST STOP JUMPDEST CALLVALUE DUP1 ISZERO PUSH2 0x4AF JUMPI PUSH1 0x0 DUP1 REVERT JUMPDEST POP PUSH2 0x4CA PUSH1 0x4 DUP1 CALLDATASIZE SUB DUP2 ADD SWAP1 PUSH2 0x4C5 SWAP2 SWAP1 PUSH2 0x32CE JUMP JUMPDEST PUSH2 0xF5A JUMP JUMPDEST STOP JUMPDEST CALLVALUE DUP1 ISZERO PUSH2 0x4D8 JUMPI PUSH1 0x0 DUP1 REVERT JUMPDEST POP PUSH2 0x4F3 PUSH1 0x4 DUP1 CALLDATASIZE SUB DUP2 ADD SWAP1 PUSH2 0x4EE SWAP2 SWAP1 PUSH2 0x3317 JUMP JUMPDEST PUSH2 0xFF0 JUMP JUMPDEST PUSH1 0x40 MLOAD PUSH2 0x500 SWAP2 SWAP1 PUSH2 0x380D JUMP JUMPDEST PUSH1 0x40 MLOAD DUP1 SWAP2 SUB SWAP1 RETURN JUMPDEST CALLVALUE DUP1 ISZERO PUSH2 0x515 JUMPI PUSH1 0x0 DUP1 REVERT JUMPDEST POP PUSH2 0x51E PUSH2 0x10A2 JUMP JUMPDEST PUSH1 0x40 MLOAD PUSH2 0x52B SWAP2 SWAP1 PUSH2 0x3B91 JUMP JUMPDEST PUSH1 0x40 MLOAD DUP1 SWAP2 SUB SWAP1 RETURN JUMPDEST CALLVALUE DUP1 ISZERO PUSH2 0x540 JUMPI PUSH1 0x0 DUP1 REVERT JUMPDEST POP PUSH2 0x549 PUSH2 0x10A8 JUMP JUMPDEST PUSH1 0x40 MLOAD PUSH2 0x556 SWAP2 SWAP1 PUSH2 0x3874 JUMP JUMPDEST PUSH1 0x40 MLOAD DUP1 SWAP2 SUB SWAP1 RETURN JUMPDEST CALLVALUE DUP1 ISZERO PUSH2 0x56B JUMPI PUSH1 0x0 DUP1 REVERT JUMPDEST POP PUSH2 0x574 PUSH2 0x10BB JUMP JUMPDEST PUSH1 0x40 MLOAD PUSH2 0x581 SWAP2 SWAP1 PUSH2 0x3874 JUMP JUMPDEST PUSH1 0x40 MLOAD DUP1 SWAP2 SUB SWAP1 RETURN JUMPDEST CALLVALUE DUP1 ISZERO PUSH2 0x596 JUMPI PUSH1 0x0 DUP1 REVERT JUMPDEST POP PUSH2 0x5B1 PUSH1 0x4 DUP1 CALLDATASIZE SUB DUP2 ADD SWAP1 PUSH2 0x5AC SWAP2 SWAP1 PUSH2 0x30B1 JUMP JUMPDEST PUSH2 0x10CE JUMP JUMPDEST PUSH1 0x40 MLOAD PUSH2 0x5BE SWAP2 SWAP1 PUSH2 0x3B91 JUMP JUMPDEST PUSH1 0x40 MLOAD DUP1 SWAP2 SUB SWAP1 RETURN JUMPDEST CALLVALUE DUP1 ISZERO PUSH2 0x5D3 JUMPI PUSH1 0x0 DUP1 REVERT JUMPDEST POP PUSH2 0x5DC PUSH2 0x1186 JUMP JUMPDEST STOP JUMPDEST CALLVALUE DUP1 ISZERO PUSH2 0x5EA JUMPI PUSH1 0x0 DUP1 REVERT JUMPDEST POP PUSH2 0x5F3 PUSH2 0x120E JUMP JUMPDEST PUSH1 0x40 MLOAD PUSH2 0x600 SWAP2 SWAP1 PUSH2 0x3B91 JUMP JUMPDEST PUSH1 0x40 MLOAD DUP1 SWAP2 SUB SWAP1 RETURN JUMPDEST CALLVALUE DUP1 ISZERO PUSH2 0x615 JUMPI PUSH1 0x0 DUP1 REVERT JUMPDEST POP PUSH2 0x61E PUSH2 0x1214 JUMP JUMPDEST PUSH1 0x40 MLOAD PUSH2 0x62B SWAP2 SWAP1 PUSH2 0x3B91 JUMP JUMPDEST PUSH1 0x40 MLOAD DUP1 SWAP2 SUB SWAP1 RETURN JUMPDEST CALLVALUE DUP1 ISZERO PUSH2 0x640 JUMPI PUSH1 0x0 DUP1 REVERT JUMPDEST POP PUSH2 0x649 PUSH2 0x121A JUMP JUMPDEST PUSH1 0x40 MLOAD PUSH2 0x656 SWAP2 SWAP1 PUSH2 0x380D JUMP JUMPDEST PUSH1 0x40 MLOAD DUP1 SWAP2 SUB SWAP1 RETURN JUMPDEST CALLVALUE DUP1 ISZERO PUSH2 0x66B JUMPI PUSH1 0x0 DUP1 REVERT JUMPDEST POP PUSH2 0x674 PUSH2 0x1244 JUMP JUMPDEST PUSH1 0x40 MLOAD PUSH2 0x681 SWAP2 SWAP1 PUSH2 0x388F JUMP JUMPDEST PUSH1 0x40 MLOAD DUP1 SWAP2 SUB SWAP1 RETURN JUMPDEST CALLVALUE DUP1 ISZERO PUSH2 0x696 JUMPI PUSH1 0x0 DUP1 REVERT JUMPDEST POP PUSH2 0x6B1 PUSH1 0x4 DUP1 CALLDATASIZE SUB DUP2 ADD SWAP1 PUSH2 0x6AC SWAP2 SWAP1 PUSH2 0x3317 JUMP JUMPDEST PUSH2 0x12D6 JUMP JUMPDEST STOP JUMPDEST CALLVALUE DUP1 ISZERO PUSH2 0x6BF JUMPI PUSH1 0x0 DUP1 REVERT JUMPDEST POP PUSH2 0x6DA PUSH1 0x4 DUP1 CALLDATASIZE SUB DUP2 ADD SWAP1 PUSH2 0x6D5 SWAP2 SWAP1 PUSH2 0x31F4 JUMP JUMPDEST PUSH2 0x135C JUMP JUMPDEST STOP JUMPDEST CALLVALUE DUP1 ISZERO PUSH2 0x6E8 JUMPI PUSH1 0x0 DUP1 REVERT JUMPDEST POP PUSH2 0x703 PUSH1 0x4 DUP1 CALLDATASIZE SUB DUP2 ADD SWAP1 PUSH2 0x6FE SWAP2 SWAP1 PUSH2 0x3171 JUMP JUMPDEST PUSH2 0x1372 JUMP JUMPDEST STOP JUMPDEST CALLVALUE DUP1 ISZERO PUSH2 0x711 JUMPI PUSH1 0x0 DUP1 REVERT JUMPDEST POP PUSH2 0x71A PUSH2 0x13D4 JUMP JUMPDEST PUSH1 0x40 MLOAD PUSH2 0x727 SWAP2 SWAP1 PUSH2 0x388F JUMP JUMPDEST PUSH1 0x40 MLOAD DUP1 SWAP2 SUB SWAP1 RETURN JUMPDEST CALLVALUE DUP1 ISZERO PUSH2 0x73C JUMPI PUSH1 0x0 DUP1 REVERT JUMPDEST POP PUSH2 0x757 PUSH1 0x4 DUP1 CALLDATASIZE SUB DUP2 ADD SWAP1 PUSH2 0x752 SWAP2 SWAP1 PUSH2 0x3317 JUMP JUMPDEST PUSH2 0x1462 JUMP JUMPDEST PUSH1 0x40 MLOAD PUSH2 0x764 SWAP2 SWAP1 PUSH2 0x388F JUMP JUMPDEST PUSH1 0x40 MLOAD DUP1 SWAP2 SUB SWAP1 RETURN JUMPDEST CALLVALUE DUP1 ISZERO PUSH2 0x779 JUMPI PUSH1 0x0 DUP1 REVERT JUMPDEST POP PUSH2 0x794 PUSH1 0x4 DUP1 CALLDATASIZE SUB DUP2 ADD SWAP1 PUSH2 0x78F SWAP2 SWAP1 PUSH2 0x32CE JUMP JUMPDEST PUSH2 0x1686 JUMP JUMPDEST STOP JUMPDEST CALLVALUE DUP1 ISZERO PUSH2 0x7A2 JUMPI PUSH1 0x0 DUP1 REVERT JUMPDEST POP PUSH2 0x7AB PUSH2 0x171C JUMP JUMPDEST STOP JUMPDEST CALLVALUE DUP1 ISZERO PUSH2 0x7B9 JUMPI PUSH1 0x0 DUP1 REVERT JUMPDEST POP PUSH2 0x7D4 PUSH1 0x4 DUP1 CALLDATASIZE SUB DUP2 ADD SWAP1 PUSH2 0x7CF SWAP2 SWAP1 PUSH2 0x30DE JUMP JUMPDEST PUSH2 0x17C4 JUMP JUMPDEST PUSH1 0x40 MLOAD PUSH2 0x7E1 SWAP2 SWAP1 PUSH2 0x3874 JUMP JUMPDEST PUSH1 0x40 MLOAD DUP1 SWAP2 SUB SWAP1 RETURN JUMPDEST CALLVALUE DUP1 ISZERO PUSH2 0x7F6 JUMPI PUSH1 0x0 DUP1 REVERT JUMPDEST POP PUSH2 0x811 PUSH1 0x4 DUP1 CALLDATASIZE SUB DUP2 ADD SWAP1 PUSH2 0x80C SWAP2 SWAP1 PUSH2 0x32CE JUMP JUMPDEST PUSH2 0x1858 JUMP JUMPDEST STOP JUMPDEST CALLVALUE DUP1 ISZERO PUSH2 0x81F JUMPI PUSH1 0x0 DUP1 REVERT JUMPDEST POP PUSH2 0x83A PUSH1 0x4 DUP1 CALLDATASIZE SUB DUP2 ADD SWAP1 PUSH2 0x835 SWAP2 SWAP1 PUSH2 0x30B1 JUMP JUMPDEST PUSH2 0x18EE JUMP JUMPDEST STOP JUMPDEST CALLVALUE DUP1 ISZERO PUSH2 0x848 JUMPI PUSH1 0x0 DUP1 REVERT JUMPDEST POP PUSH2 0x863 PUSH1 0x4 DUP1 CALLDATASIZE SUB DUP2 ADD SWAP1 PUSH2 0x85E SWAP2 SWAP1 PUSH2 0x3317 JUMP JUMPDEST PUSH2 0x19E6 JUMP JUMPDEST STOP JUMPDEST PUSH2 0x87F PUSH1 0x4 DUP1 CALLDATASIZE SUB DUP2 ADD SWAP1 PUSH2 0x87A SWAP2 SWAP1 PUSH2 0x3317 JUMP JUMPDEST PUSH2 0x1A6C JUMP JUMPDEST STOP JUMPDEST PUSH1 0x0 PUSH32 0x780E9D6300000000000000000000000000000000000000000000000000000000 PUSH28 0xFFFFFFFFFFFFFFFFFFFFFFFFFFFFFFFFFFFFFFFFFFFFFFFFFFFFFFFF NOT AND DUP3 PUSH28 0xFFFFFFFFFFFFFFFFFFFFFFFFFFFFFFFFFFFFFFFFFFFFFFFFFFFFFFFF NOT AND EQ DUP1 PUSH2 0x8F4 JUMPI POP PUSH2 0x8F3 DUP3 PUSH2 0x1C0A JUMP JUMPDEST JUMPDEST SWAP1 POP SWAP2 SWAP1 POP JUMP JUMPDEST PUSH1 0x60 PUSH1 0x0 DUP1 SLOAD PUSH2 0x90A SWAP1 PUSH2 0x3E56 JUMP JUMPDEST DUP1 PUSH1 0x1F ADD PUSH1 0x20 DUP1 SWAP2 DIV MUL PUSH1 0x20 ADD PUSH1 0x40 MLOAD SWAP1 DUP2 ADD PUSH1 0x40 MSTORE DUP1 SWAP3 SWAP2 SWAP1 DUP2 DUP2 MSTORE PUSH1 0x20 ADD DUP3 DUP1 SLOAD PUSH2 0x936 SWAP1 PUSH2 0x3E56 JUMP JUMPDEST DUP1 ISZERO PUSH2 0x983 JUMPI DUP1 PUSH1 0x1F LT PUSH2 0x958 JUMPI PUSH2 0x100 DUP1 DUP4 SLOAD DIV MUL DUP4 MSTORE SWAP2 PUSH1 0x20 ADD SWAP2 PUSH2 0x983 JUMP JUMPDEST DUP3 ADD SWAP2 SWAP1 PUSH1 0x0 MSTORE PUSH1 0x20 PUSH1 0x0 KECCAK256 SWAP1 JUMPDEST DUP2 SLOAD DUP2 MSTORE SWAP1 PUSH1 0x1 ADD SWAP1 PUSH1 0x20 ADD DUP1 DUP4 GT PUSH2 0x966 JUMPI DUP3 SWAP1 SUB PUSH1 0x1F AND DUP3 ADD SWAP2 JUMPDEST POP POP POP POP POP SWAP1 POP SWAP1 JUMP JUMPDEST PUSH1 0x0 PUSH2 0x998 DUP3 PUSH2 0x1CEC JUMP JUMPDEST PUSH2 0x9D7 JUMPI PUSH1 0x40 MLOAD PUSH32 0x8C379A000000000000000000000000000000000000000000000000000000000 DUP2 MSTORE PUSH1 0x4 ADD PUSH2 0x9CE SWAP1 PUSH2 0x3AB1 JUMP JUMPDEST PUSH1 0x40 MLOAD DUP1 SWAP2 SUB SWAP1 REVERT JUMPDEST PUSH1 0x4 PUSH1 0x0 DUP4 DUP2 MSTORE PUSH1 0x20 ADD SWAP1 DUP2 MSTORE PUSH1 0x20 ADD PUSH1 0x0 KECCAK256 PUSH1 0x0 SWAP1 SLOAD SWAP1 PUSH2 0x100 EXP SWAP1 DIV PUSH20 0xFFFFFFFFFFFFFFFFFFFFFFFFFFFFFFFFFFFFFFFF AND SWAP1 POP SWAP2 SWAP1 POP JUMP JUMPDEST PUSH1 0xF DUP1 SLOAD PUSH2 0xA1F SWAP1 PUSH2 0x3E56 JUMP JUMPDEST DUP1 PUSH1 0x1F ADD PUSH1 0x20 DUP1 SWAP2 DIV MUL PUSH1 0x20 ADD PUSH1 0x40 MLOAD SWAP1 DUP2 ADD PUSH1 0x40 MSTORE DUP1 SWAP3 SWAP2 SWAP1 DUP2 DUP2 MSTORE PUSH1 0x20 ADD DUP3 DUP1 SLOAD PUSH2 0xA4B SWAP1 PUSH2 0x3E56 JUMP JUMPDEST DUP1 ISZERO PUSH2 0xA98 JUMPI DUP1 PUSH1 0x1F LT PUSH2 0xA6D JUMPI PUSH2 0x100 DUP1 DUP4 SLOAD DIV MUL DUP4 MSTORE SWAP2 PUSH1 0x20 ADD SWAP2 PUSH2 0xA98 JUMP JUMPDEST DUP3 ADD SWAP2 SWAP1 PUSH1 0x0 MSTORE PUSH1 0x20 PUSH1 0x0 KECCAK256 SWAP1 JUMPDEST DUP2 SLOAD DUP2 MSTORE SWAP1 PUSH1 0x1 ADD SWAP1 PUSH1 0x20 ADD DUP1 DUP4 GT PUSH2 0xA7B JUMPI DUP3 SWAP1 SUB PUSH1 0x1F AND DUP3 ADD SWAP2 JUMPDEST POP POP POP POP POP DUP2 JUMP JUMPDEST PUSH1 0x0 PUSH2 0xAAB DUP3 PUSH2 0xFF0 JUMP JUMPDEST SWAP1 POP DUP1 PUSH20 0xFFFFFFFFFFFFFFFFFFFFFFFFFFFFFFFFFFFFFFFF AND DUP4 PUSH20 0xFFFFFFFFFFFFFFFFFFFFFFFFFFFFFFFFFFFFFFFF AND EQ ISZERO PUSH2 0xB1C JUMPI PUSH1 0x40 MLOAD PUSH32 0x8C379A000000000000000000000000000000000000000000000000000000000 DUP2 MSTORE PUSH1 0x4 ADD PUSH2 0xB13 SWAP1 PUSH2 0x3B11 JUMP JUMPDEST PUSH1 0x40 MLOAD DUP1 SWAP2 SUB SWAP1 REVERT JUMPDEST DUP1 PUSH20 0xFFFFFFFFFFFFFFFFFFFFFFFFFFFFFFFFFFFFFFFF AND PUSH2 0xB3B PUSH2 0x1D58 JUMP JUMPDEST PUSH20 0xFFFFFFFFFFFFFFFFFFFFFFFFFFFFFFFFFFFFFFFF AND EQ DUP1 PUSH2 0xB6A JUMPI POP PUSH2 0xB69 DUP2 PUSH2 0xB64 PUSH2 0x1D58 JUMP JUMPDEST PUSH2 0x17C4 JUMP JUMPDEST JUMPDEST PUSH2 0xBA9 JUMPI PUSH1 0x40 MLOAD PUSH32 0x8C379A000000000000000000000000000000000000000000000000000000000 DUP2 MSTORE PUSH1 0x4 ADD PUSH2 0xBA0 SWAP1 PUSH2 0x3A31 JUMP JUMPDEST PUSH1 0x40 MLOAD DUP1 SWAP2 SUB SWAP1 REVERT JUMPDEST PUSH2 0xBB3 DUP4 DUP4 PUSH2 0x1D60 JUMP JUMPDEST POP POP POP JUMP JUMPDEST PUSH1 0x0 PUSH1 0x8 DUP1 SLOAD SWAP1 POP SWAP1 POP SWAP1 JUMP JUMPDEST PUSH2 0xBD6 PUSH2 0xBD0 PUSH2 0x1D58 JUMP JUMPDEST DUP3 PUSH2 0x1E19 JUMP JUMPDEST PUSH2 0xC15 JUMPI PUSH1 0x40 MLOAD PUSH32 0x8C379A000000000000000000000000000000000000000000000000000000000 DUP2 MSTORE PUSH1 0x4 ADD PUSH2 0xC0C SWAP1 PUSH2 0x3B31 JUMP JUMPDEST PUSH1 0x40 MLOAD DUP1 SWAP2 SUB SWAP1 REVERT JUMPDEST PUSH2 0xC20 DUP4 DUP4 DUP4 PUSH2 0x1EF7 JUMP JUMPDEST POP POP POP JUMP JUMPDEST PUSH1 0x0 PUSH2 0xC30 DUP4 PUSH2 0x10CE JUMP JUMPDEST DUP3 LT PUSH2 0xC71 JUMPI PUSH1 0x40 MLOAD PUSH32 0x8C379A000000000000000000000000000000000000000000000000000000000 DUP2 MSTORE PUSH1 0x4 ADD PUSH2 0xC68 SWAP1 PUSH2 0x38D1 JUMP JUMPDEST PUSH1 0x40 MLOAD DUP1 SWAP2 SUB SWAP1 REVERT JUMPDEST PUSH1 0x6 PUSH1 0x0 DUP5 PUSH20 0xFFFFFFFFFFFFFFFFFFFFFFFFFFFFFFFFFFFFFFFF AND PUSH20 0xFFFFFFFFFFFFFFFFFFFFFFFFFFFFFFFFFFFFFFFF AND DUP2 MSTORE PUSH1 0x20 ADD SWAP1 DUP2 MSTORE PUSH1 0x20 ADD PUSH1 0x0 KECCAK256 PUSH1 0x0 DUP4 DUP2 MSTORE PUSH1 0x20 ADD SWAP1 DUP2 MSTORE PUSH1 0x20 ADD PUSH1 0x0 KECCAK256 SLOAD SWAP1 POP SWAP3 SWAP2 POP POP JUMP JUMPDEST PUSH1 0xA DUP2 JUMP JUMPDEST PUSH2 0xCD7 PUSH2 0x1D58 JUMP JUMPDEST PUSH20 0xFFFFFFFFFFFFFFFFFFFFFFFFFFFFFFFFFFFFFFFF AND PUSH2 0xCF5 PUSH2 0x121A JUMP JUMPDEST PUSH20 0xFFFFFFFFFFFFFFFFFFFFFFFFFFFFFFFFFFFFFFFF AND EQ PUSH2 0xD4B JUMPI PUSH1 0x40 MLOAD PUSH32 0x8C379A000000000000000000000000000000000000000000000000000000000 DUP2 MSTORE PUSH1 0x4 ADD PUSH2 0xD42 SWAP1 PUSH2 0x3AD1 JUMP JUMPDEST PUSH1 0x40 MLOAD DUP1 SWAP2 SUB SWAP1 REVERT JUMPDEST PUSH1 0xA PUSH1 0x15 SWAP1 SLOAD SWAP1 PUSH2 0x100 EXP SWAP1 DIV PUSH1 0xFF AND ISZERO PUSH1 0xA PUSH1 0x15 PUSH2 0x100 EXP DUP2 SLOAD DUP2 PUSH1 0xFF MUL NOT AND SWAP1 DUP4 ISZERO ISZERO MUL OR SWAP1 SSTORE POP JUMP JUMPDEST PUSH2 0xD92 DUP4 DUP4 DUP4 PUSH1 0x40 MLOAD DUP1 PUSH1 0x20 ADD PUSH1 0x40 MSTORE DUP1 PUSH1 0x0 DUP2 MSTORE POP PUSH2 0x1372 JUMP JUMPDEST POP POP POP JUMP JUMPDEST PUSH1 0x0 PUSH2 0xDA1 PUSH2 0xBB8 JUMP JUMPDEST DUP3 LT PUSH2 0xDE2 JUMPI PUSH1 0x40 MLOAD PUSH32 0x8C379A000000000000000000000000000000000000000000000000000000000 DUP2 MSTORE PUSH1 0x4 ADD PUSH2 0xDD9 SWAP1 PUSH2 0x3B51 JUMP JUMPDEST PUSH1 0x40 MLOAD DUP1 SWAP2 SUB SWAP1 REVERT JUMPDEST PUSH1 0x8 DUP3 DUP2 SLOAD DUP2 LT PUSH2 0xDF6 JUMPI PUSH2 0xDF5 PUSH2 0x3FEF JUMP JUMPDEST JUMPDEST SWAP1 PUSH1 0x0 MSTORE PUSH1 0x20 PUSH1 0x0 KECCAK256 ADD SLOAD SWAP1 POP SWAP2 SWAP1 POP JUMP JUMPDEST PUSH2 0xE10 PUSH2 0x1D58 JUMP JUMPDEST PUSH20 0xFFFFFFFFFFFFFFFFFFFFFFFFFFFFFFFFFFFFFFFF AND PUSH2 0xE2E PUSH2 0x121A JUMP JUMPDEST PUSH20 0xFFFFFFFFFFFFFFFFFFFFFFFFFFFFFFFFFFFFFFFF AND EQ PUSH2 0xE84 JUMPI PUSH1 0x40 MLOAD PUSH32 0x8C379A000000000000000000000000000000000000000000000000000000000 DUP2 MSTORE PUSH1 0x4 ADD PUSH2 0xE7B SWAP1 PUSH2 0x3AD1 JUMP JUMPDEST PUSH1 0x40 MLOAD DUP1 SWAP2 SUB SWAP1 REVERT JUMPDEST PUSH1 0x0 SELFBALANCE SWAP1 POP DUP2 PUSH20 0xFFFFFFFFFFFFFFFFFFFFFFFFFFFFFFFFFFFFFFFF AND PUSH2 0x8FC DUP3 SWAP1 DUP2 ISZERO MUL SWAP1 PUSH1 0x40 MLOAD PUSH1 0x0 PUSH1 0x40 MLOAD DUP1 DUP4 SUB DUP2 DUP6 DUP9 DUP9 CALL SWAP4 POP POP POP POP ISZERO DUP1 ISZERO PUSH2 0xECF JUMPI RETURNDATASIZE PUSH1 0x0 DUP1 RETURNDATACOPY RETURNDATASIZE PUSH1 0x0 REVERT JUMPDEST POP POP POP JUMP JUMPDEST PUSH2 0xEDC PUSH2 0x1D58 JUMP JUMPDEST PUSH20 0xFFFFFFFFFFFFFFFFFFFFFFFFFFFFFFFFFFFFFFFF AND PUSH2 0xEFA PUSH2 0x121A JUMP JUMPDEST PUSH20 0xFFFFFFFFFFFFFFFFFFFFFFFFFFFFFFFFFFFFFFFF AND EQ PUSH2 0xF50 JUMPI PUSH1 0x40 MLOAD PUSH32 0x8C379A000000000000000000000000000000000000000000000000000000000 DUP2 MSTORE PUSH1 0x4 ADD PUSH2 0xF47 SWAP1 PUSH2 0x3AD1 JUMP JUMPDEST PUSH1 0x40 MLOAD DUP1 SWAP2 SUB SWAP1 REVERT JUMPDEST DUP1 PUSH1 0xD DUP2 SWAP1 SSTORE POP POP JUMP JUMPDEST PUSH2 0xF62 PUSH2 0x1D58 JUMP JUMPDEST PUSH20 0xFFFFFFFFFFFFFFFFFFFFFFFFFFFFFFFFFFFFFFFF AND PUSH2 0xF80 PUSH2 0x121A JUMP JUMPDEST PUSH20 0xFFFFFFFFFFFFFFFFFFFFFFFFFFFFFFFFFFFFFFFF AND EQ PUSH2 0xFD6 JUMPI PUSH1 0x40 MLOAD PUSH32 0x8C379A000000000000000000000000000000000000000000000000000000000 DUP2 MSTORE PUSH1 0x4 ADD PUSH2 0xFCD SWAP1 PUSH2 0x3AD1 JUMP JUMPDEST PUSH1 0x40 MLOAD DUP1 SWAP2 SUB SWAP1 REVERT JUMPDEST DUP1 PUSH1 0xE SWAP1 DUP1 MLOAD SWAP1 PUSH1 0x20 ADD SWAP1 PUSH2 0xFEC SWAP3 SWAP2 SWAP1 PUSH2 0x2EC5 JUMP JUMPDEST POP POP JUMP JUMPDEST PUSH1 0x0 DUP1 PUSH1 0x2 PUSH1 0x0 DUP5 DUP2 MSTORE PUSH1 0x20 ADD SWAP1 DUP2 MSTORE PUSH1 0x20 ADD PUSH1 0x0 KECCAK256 PUSH1 0x0 SWAP1 SLOAD SWAP1 PUSH2 0x100 EXP SWAP1 DIV PUSH20 0xFFFFFFFFFFFFFFFFFFFFFFFFFFFFFFFFFFFFFFFF AND SWAP1 POP PUSH1 0x0 PUSH20 0xFFFFFFFFFFFFFFFFFFFFFFFFFFFFFFFFFFFFFFFF AND DUP2 PUSH20 0xFFFFFFFFFFFFFFFFFFFFFFFFFFFFFFFFFFFFFFFF AND EQ ISZERO PUSH2 0x1099 JUMPI PUSH1 0x40 MLOAD PUSH32 0x8C379A000000000000000000000000000000000000000000000000000000000 DUP2 MSTORE PUSH1 0x4 ADD PUSH2 0x1090 SWAP1 PUSH2 0x3A71 JUMP JUMPDEST PUSH1 0x40 MLOAD DUP1 SWAP2 SUB SWAP1 REVERT JUMPDEST DUP1 SWAP2 POP POP SWAP2 SWAP1 POP JUMP JUMPDEST PUSH1 0xB SLOAD DUP2 JUMP JUMPDEST PUSH1 0xA PUSH1 0x15 SWAP1 SLOAD SWAP1 PUSH2 0x100 EXP SWAP1 DIV PUSH1 0xFF AND DUP2 JUMP JUMPDEST PUSH1 0xA PUSH1 0x14 SWAP1 SLOAD SWAP1 PUSH2 0x100 EXP SWAP1 DIV PUSH1 0xFF AND DUP2 JUMP JUMPDEST PUSH1 0x0 DUP1 PUSH20 0xFFFFFFFFFFFFFFFFFFFFFFFFFFFFFFFFFFFFFFFF AND DUP3 PUSH20 0xFFFFFFFFFFFFFFFFFFFFFFFFFFFFFFFFFFFFFFFF AND EQ ISZERO PUSH2 0x113F JUMPI PUSH1 0x40 MLOAD PUSH32 0x8C379A000000000000000000000000000000000000000000000000000000000 DUP2 MSTORE PUSH1 0x4 ADD PUSH2 0x1136 SWAP1 PUSH2 0x3A51 JUMP JUMPDEST PUSH1 0x40 MLOAD DUP1 SWAP2 SUB SWAP1 REVERT JUMPDEST PUSH1 0x3 PUSH1 0x0 DUP4 PUSH20 0xFFFFFFFFFFFFFFFFFFFFFFFFFFFFFFFFFFFFFFFF AND PUSH20 0xFFFFFFFFFFFFFFFFFFFFFFFFFFFFFFFFFFFFFFFF AND DUP2 MSTORE PUSH1 0x20 ADD SWAP1 DUP2 MSTORE PUSH1 0x20 ADD PUSH1 0x0 KECCAK256 SLOAD SWAP1 POP SWAP2 SWAP1 POP JUMP JUMPDEST PUSH2 0x118E PUSH2 0x1D58 JUMP JUMPDEST PUSH20 0xFFFFFFFFFFFFFFFFFFFFFFFFFFFFFFFFFFFFFFFF AND PUSH2 0x11AC PUSH2 0x121A JUMP JUMPDEST PUSH20 0xFFFFFFFFFFFFFFFFFFFFFFFFFFFFFFFFFFFFFFFF AND EQ PUSH2 0x1202 JUMPI PUSH1 0x40 MLOAD PUSH32 0x8C379A000000000000000000000000000000000000000000000000000000000 DUP2 MSTORE PUSH1 0x4 ADD PUSH2 0x11F9 SWAP1 PUSH2 0x3AD1 JUMP JUMPDEST PUSH1 0x40 MLOAD DUP1 SWAP2 SUB SWAP1 REVERT JUMPDEST PUSH2 0x120C PUSH1 0x0 PUSH2 0x215E JUMP JUMPDEST JUMP JUMPDEST PUSH1 0xC SLOAD DUP2 JUMP JUMPDEST PUSH1 0xD SLOAD DUP2 JUMP JUMPDEST PUSH1 0x0 PUSH1 0xA PUSH1 0x0 SWAP1 SLOAD SWAP1 PUSH2 0x100 EXP SWAP1 DIV PUSH20 0xFFFFFFFFFFFFFFFFFFFFFFFFFFFFFFFFFFFFFFFF AND SWAP1 POP SWAP1 JUMP JUMPDEST PUSH1 0x60 PUSH1 0x1 DUP1 SLOAD PUSH2 0x1253 SWAP1 PUSH2 0x3E56 JUMP JUMPDEST DUP1 PUSH1 0x1F ADD PUSH1 0x20 DUP1 SWAP2 DIV MUL PUSH1 0x20 ADD PUSH1 0x40 MLOAD SWAP1 DUP2 ADD PUSH1 0x40 MSTORE DUP1 SWAP3 SWAP2 SWAP1 DUP2 DUP2 MSTORE PUSH1 0x20 ADD DUP3 DUP1 SLOAD PUSH2 0x127F SWAP1 PUSH2 0x3E56 JUMP JUMPDEST DUP1 ISZERO PUSH2 0x12CC JUMPI DUP1 PUSH1 0x1F LT PUSH2 0x12A1 JUMPI PUSH2 0x100 DUP1 DUP4 SLOAD DIV MUL DUP4 MSTORE SWAP2 PUSH1 0x20 ADD SWAP2 PUSH2 0x12CC JUMP JUMPDEST DUP3 ADD SWAP2 SWAP1 PUSH1 0x0 MSTORE PUSH1 0x20 PUSH1 0x0 KECCAK256 SWAP1 JUMPDEST DUP2 SLOAD DUP2 MSTORE SWAP1 PUSH1 0x1 ADD SWAP1 PUSH1 0x20 ADD DUP1 DUP4 GT PUSH2 0x12AF JUMPI DUP3 SWAP1 SUB PUSH1 0x1F AND DUP3 ADD SWAP2 JUMPDEST POP POP POP POP POP SWAP1 POP SWAP1 JUMP JUMPDEST PUSH2 0x12DE PUSH2 0x1D58 JUMP JUMPDEST PUSH20 0xFFFFFFFFFFFFFFFFFFFFFFFFFFFFFFFFFFFFFFFF AND PUSH2 0x12FC PUSH2 0x121A JUMP JUMPDEST PUSH20 0xFFFFFFFFFFFFFFFFFFFFFFFFFFFFFFFFFFFFFFFF AND EQ PUSH2 0x1352 JUMPI PUSH1 0x40 MLOAD PUSH32 0x8C379A000000000000000000000000000000000000000000000000000000000 DUP2 MSTORE PUSH1 0x4 ADD PUSH2 0x1349 SWAP1 PUSH2 0x3AD1 JUMP JUMPDEST PUSH1 0x40 MLOAD DUP1 SWAP2 SUB SWAP1 REVERT JUMPDEST DUP1 PUSH1 0xC DUP2 SWAP1 SSTORE POP POP JUMP JUMPDEST PUSH2 0x136E PUSH2 0x1367 PUSH2 0x1D58 JUMP JUMPDEST DUP4 DUP4 PUSH2 0x2224 JUMP JUMPDEST POP POP JUMP JUMPDEST PUSH2 0x1383 PUSH2 0x137D PUSH2 0x1D58 JUMP JUMPDEST DUP4 PUSH2 0x1E19 JUMP JUMPDEST PUSH2 0x13C2 JUMPI PUSH1 0x40 MLOAD PUSH32 0x8C379A000000000000000000000000000000000000000000000000000000000 DUP2 MSTORE PUSH1 0x4 ADD PUSH2 0x13B9 SWAP1 PUSH2 0x3B31 JUMP JUMPDEST PUSH1 0x40 MLOAD DUP1 SWAP2 SUB SWAP1 REVERT JUMPDEST PUSH2 0x13CE DUP5 DUP5 DUP5 DUP5 PUSH2 0x2391 JUMP JUMPDEST POP POP POP POP JUMP JUMPDEST PUSH1 0x10 DUP1 SLOAD PUSH2 0x13E1 SWAP1 PUSH2 0x3E56 JUMP JUMPDEST DUP1 PUSH1 0x1F ADD PUSH1 0x20 DUP1 SWAP2 DIV MUL PUSH1 0x20 ADD PUSH1 0x40 MLOAD SWAP1 DUP2 ADD PUSH1 0x40 MSTORE DUP1 SWAP3 SWAP2 SWAP1 DUP2 DUP2 MSTORE PUSH1 0x20 ADD DUP3 DUP1 SLOAD PUSH2 0x140D SWAP1 PUSH2 0x3E56 JUMP JUMPDEST DUP1 ISZERO PUSH2 0x145A JUMPI DUP1 PUSH1 0x1F LT PUSH2 0x142F JUMPI PUSH2 0x100 DUP1 DUP4 SLOAD DIV MUL DUP4 MSTORE SWAP2 PUSH1 0x20 ADD SWAP2 PUSH2 0x145A JUMP JUMPDEST DUP3 ADD SWAP2 SWAP1 PUSH1 0x0 MSTORE PUSH1 0x20 PUSH1 0x0 KECCAK256 SWAP1 JUMPDEST DUP2 SLOAD DUP2 MSTORE SWAP1 PUSH1 0x1 ADD SWAP1 PUSH1 0x20 ADD DUP1 DUP4 GT PUSH2 0x143D JUMPI DUP3 SWAP1 SUB PUSH1 0x1F AND DUP3 ADD SWAP2 JUMPDEST POP POP POP POP POP DUP2 JUMP JUMPDEST PUSH1 0x60 PUSH2 0x146D DUP3 PUSH2 0x1CEC JUMP JUMPDEST PUSH2 0x14AC JUMPI PUSH1 0x40 MLOAD PUSH32 0x8C379A000000000000000000000000000000000000000000000000000000000 DUP2 MSTORE PUSH1 0x4 ADD PUSH2 0x14A3 SWAP1 PUSH2 0x3AF1 JUMP JUMPDEST PUSH1 0x40 MLOAD DUP1 SWAP2 SUB SWAP1 REVERT JUMPDEST PUSH1 0x0 ISZERO ISZERO PUSH1 0xA PUSH1 0x15 SWAP1 SLOAD SWAP1 PUSH2 0x100 EXP SWAP1 DIV PUSH1 0xFF AND ISZERO ISZERO EQ ISZERO PUSH2 0x155A JUMPI PUSH1 0xF DUP1 SLOAD PUSH2 0x14D5 SWAP1 PUSH2 0x3E56 JUMP JUMPDEST DUP1 PUSH1 0x1F ADD PUSH1 0x20 DUP1 SWAP2 DIV MUL PUSH1 0x20 ADD PUSH1 0x40 MLOAD SWAP1 DUP2 ADD PUSH1 0x40 MSTORE DUP1 SWAP3 SWAP2 SWAP1 DUP2 DUP2 MSTORE PUSH1 0x20 ADD DUP3 DUP1 SLOAD PUSH2 0x1501 SWAP1 PUSH2 0x3E56 JUMP JUMPDEST DUP1 ISZERO PUSH2 0x154E JUMPI DUP1 PUSH1 0x1F LT PUSH2 0x1523 JUMPI PUSH2 0x100 DUP1 DUP4 SLOAD DIV MUL DUP4 MSTORE SWAP2 PUSH1 0x20 ADD SWAP2 PUSH2 0x154E JUMP JUMPDEST DUP3 ADD SWAP2 SWAP1 PUSH1 0x0 MSTORE PUSH1 0x20 PUSH1 0x0 KECCAK256 SWAP1 JUMPDEST DUP2 SLOAD DUP2 MSTORE SWAP1 PUSH1 0x1 ADD SWAP1 PUSH1 0x20 ADD DUP1 DUP4 GT PUSH2 0x1531 JUMPI DUP3 SWAP1 SUB PUSH1 0x1F AND DUP3 ADD SWAP2 JUMPDEST POP POP POP POP POP SWAP1 POP PUSH2 0x1681 JUMP JUMPDEST PUSH1 0x0 PUSH1 0x11 PUSH1 0x0 DUP5 DUP2 MSTORE PUSH1 0x20 ADD SWAP1 DUP2 MSTORE PUSH1 0x20 ADD PUSH1 0x0 KECCAK256 DUP1 SLOAD PUSH2 0x157A SWAP1 PUSH2 0x3E56 JUMP JUMPDEST DUP1 PUSH1 0x1F ADD PUSH1 0x20 DUP1 SWAP2 DIV MUL PUSH1 0x20 ADD PUSH1 0x40 MLOAD SWAP1 DUP2 ADD PUSH1 0x40 MSTORE DUP1 SWAP3 SWAP2 SWAP1 DUP2 DUP2 MSTORE PUSH1 0x20 ADD DUP3 DUP1 SLOAD PUSH2 0x15A6 SWAP1 PUSH2 0x3E56 JUMP JUMPDEST DUP1 ISZERO PUSH2 0x15F3 JUMPI DUP1 PUSH1 0x1F LT PUSH2 0x15C8 JUMPI PUSH2 0x100 DUP1 DUP4 SLOAD DIV MUL DUP4 MSTORE SWAP2 PUSH1 0x20 ADD SWAP2 PUSH2 0x15F3 JUMP JUMPDEST DUP3 ADD SWAP2 SWAP1 PUSH1 0x0 MSTORE PUSH1 0x20 PUSH1 0x0 KECCAK256 SWAP1 JUMPDEST DUP2 SLOAD DUP2 MSTORE SWAP1 PUSH1 0x1 ADD SWAP1 PUSH1 0x20 ADD DUP1 DUP4 GT PUSH2 0x15D6 JUMPI DUP3 SWAP1 SUB PUSH1 0x1F AND DUP3 ADD SWAP2 JUMPDEST POP POP POP POP POP SWAP1 POP PUSH1 0x0 PUSH2 0x1604 PUSH2 0x23ED JUMP JUMPDEST SWAP1 POP PUSH1 0x0 DUP2 MLOAD EQ ISZERO PUSH2 0x161A JUMPI DUP2 SWAP3 POP POP POP PUSH2 0x1681 JUMP JUMPDEST PUSH1 0x0 DUP3 MLOAD GT ISZERO PUSH2 0x164F JUMPI DUP1 DUP3 PUSH1 0x40 MLOAD PUSH1 0x20 ADD PUSH2 0x1637 SWAP3 SWAP2 SWAP1 PUSH2 0x37B8 JUMP JUMPDEST PUSH1 0x40 MLOAD PUSH1 0x20 DUP2 DUP4 SUB SUB DUP2 MSTORE SWAP1 PUSH1 0x40 MSTORE SWAP3 POP POP POP PUSH2 0x1681 JUMP JUMPDEST DUP1 PUSH2 0x1659 DUP6 PUSH2 0x247F JUMP JUMPDEST PUSH1 0x10 PUSH1 0x40 MLOAD PUSH1 0x20 ADD PUSH2 0x166D SWAP4 SWAP3 SWAP2 SWAP1 PUSH2 0x37DC JUMP JUMPDEST PUSH1 0x40 MLOAD PUSH1 0x20 DUP2 DUP4 SUB SUB DUP2 MSTORE SWAP1 PUSH1 0x40 MSTORE SWAP3 POP POP POP JUMPDEST SWAP2 SWAP1 POP JUMP JUMPDEST PUSH2 0x168E PUSH2 0x1D58 JUMP JUMPDEST PUSH20 0xFFFFFFFFFFFFFFFFFFFFFFFFFFFFFFFFFFFFFFFF AND PUSH2 0x16AC PUSH2 0x121A JUMP JUMPDEST PUSH20 0xFFFFFFFFFFFFFFFFFFFFFFFFFFFFFFFFFFFFFFFF AND EQ PUSH2 0x1702 JUMPI PUSH1 0x40 MLOAD PUSH32 0x8C379A000000000000000000000000000000000000000000000000000000000 DUP2 MSTORE PUSH1 0x4 ADD PUSH2 0x16F9 SWAP1 PUSH2 0x3AD1 JUMP JUMPDEST PUSH1 0x40 MLOAD DUP1 SWAP2 SUB SWAP1 REVERT JUMPDEST DUP1 PUSH1 0x10 SWAP1 DUP1 MLOAD SWAP1 PUSH1 0x20 ADD SWAP1 PUSH2 0x1718 SWAP3 SWAP2 SWAP1 PUSH2 0x2EC5 JUMP JUMPDEST POP POP JUMP JUMPDEST PUSH2 0x1724 PUSH2 0x1D58 JUMP JUMPDEST PUSH20 0xFFFFFFFFFFFFFFFFFFFFFFFFFFFFFFFFFFFFFFFF AND PUSH2 0x1742 PUSH2 0x121A JUMP JUMPDEST PUSH20 0xFFFFFFFFFFFFFFFFFFFFFFFFFFFFFFFFFFFFFFFF AND EQ PUSH2 0x1798 JUMPI PUSH1 0x40 MLOAD PUSH32 0x8C379A000000000000000000000000000000000000000000000000000000000 DUP2 MSTORE PUSH1 0x4 ADD PUSH2 0x178F SWAP1 PUSH2 0x3AD1 JUMP JUMPDEST PUSH1 0x40 MLOAD DUP1 SWAP2 SUB SWAP1 REVERT JUMPDEST PUSH1 0xA PUSH1 0x14 SWAP1 SLOAD SWAP1 PUSH2 0x100 EXP SWAP1 DIV PUSH1 0xFF AND ISZERO PUSH1 0xA PUSH1 0x14 PUSH2 0x100 EXP DUP2 SLOAD DUP2 PUSH1 0xFF MUL NOT AND SWAP1 DUP4 ISZERO ISZERO MUL OR SWAP1 SSTORE POP JUMP JUMPDEST PUSH1 0x0 PUSH1 0x5 PUSH1 0x0 DUP5 PUSH20 0xFFFFFFFFFFFFFFFFFFFFFFFFFFFFFFFFFFFFFFFF AND PUSH20 0xFFFFFFFFFFFFFFFFFFFFFFFFFFFFFFFFFFFFFFFF AND DUP2 MSTORE PUSH1 0x20 ADD SWAP1 DUP2 MSTORE PUSH1 0x20 ADD PUSH1 0x0 KECCAK256 PUSH1 0x0 DUP4 PUSH20 0xFFFFFFFFFFFFFFFFFFFFFFFFFFFFFFFFFFFFFFFF AND PUSH20 0xFFFFFFFFFFFFFFFFFFFFFFFFFFFFFFFFFFFFFFFF AND DUP2 MSTORE PUSH1 0x20 ADD SWAP1 DUP2 MSTORE PUSH1 0x20 ADD PUSH1 0x0 KECCAK256 PUSH1 0x0 SWAP1 SLOAD SWAP1 PUSH2 0x100 EXP SWAP1 DIV PUSH1 0xFF AND SWAP1 POP SWAP3 SWAP2 POP POP JUMP JUMPDEST PUSH2 0x1860 PUSH2 0x1D58 JUMP JUMPDEST PUSH20 0xFFFFFFFFFFFFFFFFFFFFFFFFFFFFFFFFFFFFFFFF AND PUSH2 0x187E PUSH2 0x121A JUMP JUMPDEST PUSH20 0xFFFFFFFFFFFFFFFFFFFFFFFFFFFFFFFFFFFFFFFF AND EQ PUSH2 0x18D4 JUMPI PUSH1 0x40 MLOAD PUSH32 0x8C379A000000000000000000000000000000000000000000000000000000000 DUP2 MSTORE PUSH1 0x4 ADD PUSH2 0x18CB SWAP1 PUSH2 0x3AD1 JUMP JUMPDEST PUSH1 0x40 MLOAD DUP1 SWAP2 SUB SWAP1 REVERT JUMPDEST DUP1 PUSH1 0xF SWAP1 DUP1 MLOAD SWAP1 PUSH1 0x20 ADD SWAP1 PUSH2 0x18EA SWAP3 SWAP2 SWAP1 PUSH2 0x2EC5 JUMP JUMPDEST POP POP JUMP JUMPDEST PUSH2 0x18F6 PUSH2 0x1D58 JUMP JUMPDEST PUSH20 0xFFFFFFFFFFFFFFFFFFFFFFFFFFFFFFFFFFFFFFFF AND PUSH2 0x1914 PUSH2 0x121A JUMP JUMPDEST PUSH20 0xFFFFFFFFFFFFFFFFFFFFFFFFFFFFFFFFFFFFFFFF AND EQ PUSH2 0x196A JUMPI PUSH1 0x40 MLOAD PUSH32 0x8C379A000000000000000000000000000000000000000000000000000000000 DUP2 MSTORE PUSH1 0x4 ADD PUSH2 0x1961 SWAP1 PUSH2 0x3AD1 JUMP JUMPDEST PUSH1 0x40 MLOAD DUP1 SWAP2 SUB SWAP1 REVERT JUMPDEST PUSH1 0x0 PUSH20 0xFFFFFFFFFFFFFFFFFFFFFFFFFFFFFFFFFFFFFFFF AND DUP2 PUSH20 0xFFFFFFFFFFFFFFFFFFFFFFFFFFFFFFFFFFFFFFFF AND EQ ISZERO PUSH2 0x19DA JUMPI PUSH1 0x40 MLOAD PUSH32 0x8C379A000000000000000000000000000000000000000000000000000000000 DUP2 MSTORE PUSH1 0x4 ADD PUSH2 0x19D1 SWAP1 PUSH2 0x3911 JUMP JUMPDEST PUSH1 0x40 MLOAD DUP1 SWAP2 SUB SWAP1 REVERT JUMPDEST PUSH2 0x19E3 DUP2 PUSH2 0x215E JUMP JUMPDEST POP JUMP JUMPDEST PUSH2 0x19EE PUSH2 0x1D58 JUMP JUMPDEST PUSH20 0xFFFFFFFFFFFFFFFFFFFFFFFFFFFFFFFFFFFFFFFF AND PUSH2 0x1A0C PUSH2 0x121A JUMP JUMPDEST PUSH20 0xFFFFFFFFFFFFFFFFFFFFFFFFFFFFFFFFFFFFFFFF AND EQ PUSH2 0x1A62 JUMPI PUSH1 0x40 MLOAD PUSH32 0x8C379A000000000000000000000000000000000000000000000000000000000 DUP2 MSTORE PUSH1 0x4 ADD PUSH2 0x1A59 SWAP1 PUSH2 0x3AD1 JUMP JUMPDEST PUSH1 0x40 MLOAD DUP1 SWAP2 SUB SWAP1 REVERT JUMPDEST DUP1 PUSH1 0xB DUP2 SWAP1 SSTORE POP POP JUMP JUMPDEST PUSH1 0xA DUP2 PUSH2 0x1A77 PUSH2 0xBB8 JUMP JUMPDEST PUSH2 0x1A81 SWAP2 SWAP1 PUSH2 0x3C8B JUMP JUMPDEST GT ISZERO PUSH2 0x1AC2 JUMPI PUSH1 0x40 MLOAD PUSH32 0x8C379A000000000000000000000000000000000000000000000000000000000 DUP2 MSTORE PUSH1 0x4 ADD PUSH2 0x1AB9 SWAP1 PUSH2 0x3971 JUMP JUMPDEST PUSH1 0x40 MLOAD DUP1 SWAP2 SUB SWAP1 REVERT JUMPDEST PUSH1 0xA PUSH1 0x14 SWAP1 SLOAD SWAP1 PUSH2 0x100 EXP SWAP1 DIV PUSH1 0xFF AND PUSH2 0x1B11 JUMPI PUSH1 0x40 MLOAD PUSH32 0x8C379A000000000000000000000000000000000000000000000000000000000 DUP2 MSTORE PUSH1 0x4 ADD PUSH2 0x1B08 SWAP1 PUSH2 0x38B1 JUMP JUMPDEST PUSH1 0x40 MLOAD DUP1 SWAP2 SUB SWAP1 REVERT JUMPDEST PUSH1 0xC SLOAD DUP2 PUSH2 0x1B1E CALLER PUSH2 0x10CE JUMP JUMPDEST PUSH2 0x1B28 SWAP2 SWAP1 PUSH2 0x3C8B JUMP JUMPDEST GT ISZERO PUSH2 0x1B69 JUMPI PUSH1 0x40 MLOAD PUSH32 0x8C379A000000000000000000000000000000000000000000000000000000000 DUP2 MSTORE PUSH1 0x4 ADD PUSH2 0x1B60 SWAP1 PUSH2 0x3A11 JUMP JUMPDEST PUSH1 0x40 MLOAD DUP1 SWAP2 SUB SWAP1 REVERT JUMPDEST CALLVALUE PUSH1 0xB SLOAD DUP3 PUSH2 0x1B78 SWAP2 SWAP1 PUSH2 0x3D12 JUMP JUMPDEST GT ISZERO PUSH2 0x1BB9 JUMPI PUSH1 0x40 MLOAD PUSH32 0x8C379A000000000000000000000000000000000000000000000000000000000 DUP2 MSTORE PUSH1 0x4 ADD PUSH2 0x1BB0 SWAP1 PUSH2 0x3B71 JUMP JUMPDEST PUSH1 0x40 MLOAD DUP1 SWAP2 SUB SWAP1 REVERT JUMPDEST PUSH1 0xD SLOAD DUP2 GT ISZERO PUSH2 0x1BFE JUMPI PUSH1 0x40 MLOAD PUSH32 0x8C379A000000000000000000000000000000000000000000000000000000000 DUP2 MSTORE PUSH1 0x4 ADD PUSH2 0x1BF5 SWAP1 PUSH2 0x39F1 JUMP JUMPDEST PUSH1 0x40 MLOAD DUP1 SWAP2 SUB SWAP1 REVERT JUMPDEST PUSH2 0x1C07 DUP2 PUSH2 0x25E0 JUMP JUMPDEST POP JUMP JUMPDEST PUSH1 0x0 PUSH32 0x80AC58CD00000000000000000000000000000000000000000000000000000000 PUSH28 0xFFFFFFFFFFFFFFFFFFFFFFFFFFFFFFFFFFFFFFFFFFFFFFFFFFFFFFFF NOT AND DUP3 PUSH28 0xFFFFFFFFFFFFFFFFFFFFFFFFFFFFFFFFFFFFFFFFFFFFFFFFFFFFFFFF NOT AND EQ DUP1 PUSH2 0x1CD5 JUMPI POP PUSH32 0x5B5E139F00000000000000000000000000000000000000000000000000000000 PUSH28 0xFFFFFFFFFFFFFFFFFFFFFFFFFFFFFFFFFFFFFFFFFFFFFFFFFFFFFFFF NOT AND DUP3 PUSH28 0xFFFFFFFFFFFFFFFFFFFFFFFFFFFFFFFFFFFFFFFFFFFFFFFFFFFFFFFF NOT AND EQ JUMPDEST DUP1 PUSH2 0x1CE5 JUMPI POP PUSH2 0x1CE4 DUP3 PUSH2 0x262A JUMP JUMPDEST JUMPDEST SWAP1 POP SWAP2 SWAP1 POP JUMP JUMPDEST PUSH1 0x0 DUP1 PUSH20 0xFFFFFFFFFFFFFFFFFFFFFFFFFFFFFFFFFFFFFFFF AND PUSH1 0x2 PUSH1 0x0 DUP5 DUP2 MSTORE PUSH1 0x20 ADD SWAP1 DUP2 MSTORE PUSH1 0x20 ADD PUSH1 0x0 KECCAK256 PUSH1 0x0 SWAP1 SLOAD SWAP1 PUSH2 0x100 EXP SWAP1 DIV PUSH20 0xFFFFFFFFFFFFFFFFFFFFFFFFFFFFFFFFFFFFFFFF AND PUSH20 0xFFFFFFFFFFFFFFFFFFFFFFFFFFFFFFFFFFFFFFFF AND EQ ISZERO SWAP1 POP SWAP2 SWAP1 POP JUMP JUMPDEST PUSH1 0x0 CALLER SWAP1 POP SWAP1 JUMP JUMPDEST DUP2 PUSH1 0x4 PUSH1 0x0 DUP4 DUP2 MSTORE PUSH1 0x20 ADD SWAP1 DUP2 MSTORE PUSH1 0x20 ADD PUSH1 0x0 KECCAK256 PUSH1 0x0 PUSH2 0x100 EXP DUP2 SLOAD DUP2 PUSH20 0xFFFFFFFFFFFFFFFFFFFFFFFFFFFFFFFFFFFFFFFF MUL NOT AND SWAP1 DUP4 PUSH20 0xFFFFFFFFFFFFFFFFFFFFFFFFFFFFFFFFFFFFFFFF AND MUL OR SWAP1 SSTORE POP DUP1 DUP3 PUSH20 0xFFFFFFFFFFFFFFFFFFFFFFFFFFFFFFFFFFFFFFFF AND PUSH2 0x1DD3 DUP4 PUSH2 0xFF0 JUMP JUMPDEST PUSH20 0xFFFFFFFFFFFFFFFFFFFFFFFFFFFFFFFFFFFFFFFF AND PUSH32 0x8C5BE1E5EBEC7D5BD14F71427D1E84F3DD0314C0F7B2291E5B200AC8C7C3B925 PUSH1 0x40 MLOAD PUSH1 0x40 MLOAD DUP1 SWAP2 SUB SWAP1 LOG4 POP POP JUMP JUMPDEST PUSH1 0x0 PUSH2 0x1E24 DUP3 PUSH2 0x1CEC JUMP JUMPDEST PUSH2 0x1E63 JUMPI PUSH1 0x40 MLOAD PUSH32 0x8C379A000000000000000000000000000000000000000000000000000000000 DUP2 MSTORE PUSH1 0x4 ADD PUSH2 0x1E5A SWAP1 PUSH2 0x39D1 JUMP JUMPDEST PUSH1 0x40 MLOAD DUP1 SWAP2 SUB SWAP1 REVERT JUMPDEST PUSH1 0x0 PUSH2 0x1E6E DUP4 PUSH2 0xFF0 JUMP JUMPDEST SWAP1 POP DUP1 PUSH20 0xFFFFFFFFFFFFFFFFFFFFFFFFFFFFFFFFFFFFFFFF AND DUP5 PUSH20 0xFFFFFFFFFFFFFFFFFFFFFFFFFFFFFFFFFFFFFFFF AND EQ DUP1 PUSH2 0x1EDD JUMPI POP DUP4 PUSH20 0xFFFFFFFFFFFFFFFFFFFFFFFFFFFFFFFFFFFFFFFF AND PUSH2 0x1EC5 DUP5 PUSH2 0x98D JUMP JUMPDEST PUSH20 0xFFFFFFFFFFFFFFFFFFFFFFFFFFFFFFFFFFFFFFFF AND EQ JUMPDEST DUP1 PUSH2 0x1EEE JUMPI POP PUSH2 0x1EED DUP2 DUP6 PUSH2 0x17C4 JUMP JUMPDEST JUMPDEST SWAP2 POP POP SWAP3 SWAP2 POP POP JUMP JUMPDEST DUP3 PUSH20 0xFFFFFFFFFFFFFFFFFFFFFFFFFFFFFFFFFFFFFFFF AND PUSH2 0x1F17 DUP3 PUSH2 0xFF0 JUMP JUMPDEST PUSH20 0xFFFFFFFFFFFFFFFFFFFFFFFFFFFFFFFFFFFFFFFF AND EQ PUSH2 0x1F6D JUMPI PUSH1 0x40 MLOAD PUSH32 0x8C379A000000000000000000000000000000000000000000000000000000000 DUP2 MSTORE PUSH1 0x4 ADD PUSH2 0x1F64 SWAP1 PUSH2 0x3931 JUMP JUMPDEST PUSH1 0x40 MLOAD DUP1 SWAP2 SUB SWAP1 REVERT JUMPDEST PUSH1 0x0 PUSH20 0xFFFFFFFFFFFFFFFFFFFFFFFFFFFFFFFFFFFFFFFF AND DUP3 PUSH20 0xFFFFFFFFFFFFFFFFFFFFFFFFFFFFFFFFFFFFFFFF AND EQ ISZERO PUSH2 0x1FDD JUMPI PUSH1 0x40 MLOAD PUSH32 0x8C379A000000000000000000000000000000000000000000000000000000000 DUP2 MSTORE PUSH1 0x4 ADD PUSH2 0x1FD4 SWAP1 PUSH2 0x3991 JUMP JUMPDEST PUSH1 0x40 MLOAD DUP1 SWAP2 SUB SWAP1 REVERT JUMPDEST PUSH2 0x1FE8 DUP4 DUP4 DUP4 PUSH2 0x2694 JUMP JUMPDEST PUSH2 0x1FF3 PUSH1 0x0 DUP3 PUSH2 0x1D60 JUMP JUMPDEST PUSH1 0x1 PUSH1 0x3 PUSH1 0x0 DUP6 PUSH20 0xFFFFFFFFFFFFFFFFFFFFFFFFFFFFFFFFFFFFFFFF AND PUSH20 0xFFFFFFFFFFFFFFFFFFFFFFFFFFFFFFFFFFFFFFFF AND DUP2 MSTORE PUSH1 0x20 ADD SWAP1 DUP2 MSTORE PUSH1 0x20 ADD PUSH1 0x0 KECCAK256 PUSH1 0x0 DUP3 DUP3 SLOAD PUSH2 0x2043 SWAP2 SWAP1 PUSH2 0x3D6C JUMP JUMPDEST SWAP3 POP POP DUP2 SWAP1 SSTORE POP PUSH1 0x1 PUSH1 0x3 PUSH1 0x0 DUP5 PUSH20 0xFFFFFFFFFFFFFFFFFFFFFFFFFFFFFFFFFFFFFFFF AND PUSH20 0xFFFFFFFFFFFFFFFFFFFFFFFFFFFFFFFFFFFFFFFF AND DUP2 MSTORE PUSH1 0x20 ADD SWAP1 DUP2 MSTORE PUSH1 0x20 ADD PUSH1 0x0 KECCAK256 PUSH1 0x0 DUP3 DUP3 SLOAD PUSH2 0x209A SWAP2 SWAP1 PUSH2 0x3C8B JUMP JUMPDEST SWAP3 POP POP DUP2 SWAP1 SSTORE POP DUP2 PUSH1 0x2 PUSH1 0x0 DUP4 DUP2 MSTORE PUSH1 0x20 ADD SWAP1 DUP2 MSTORE PUSH1 0x20 ADD PUSH1 0x0 KECCAK256 PUSH1 0x0 PUSH2 0x100 EXP DUP2 SLOAD DUP2 PUSH20 0xFFFFFFFFFFFFFFFFFFFFFFFFFFFFFFFFFFFFFFFF MUL NOT AND SWAP1 DUP4 PUSH20 0xFFFFFFFFFFFFFFFFFFFFFFFFFFFFFFFFFFFFFFFF AND MUL OR SWAP1 SSTORE POP DUP1 DUP3 PUSH20 0xFFFFFFFFFFFFFFFFFFFFFFFFFFFFFFFFFFFFFFFF AND DUP5 PUSH20 0xFFFFFFFFFFFFFFFFFFFFFFFFFFFFFFFFFFFFFFFF AND PUSH32 0xDDF252AD1BE2C89B69C2B068FC378DAA952BA7F163C4A11628F55A4DF523B3EF PUSH1 0x40 MLOAD PUSH1 0x40 MLOAD DUP1 SWAP2 SUB SWAP1 LOG4 PUSH2 0x2159 DUP4 DUP4 DUP4 PUSH2 0x27A8 JUMP JUMPDEST POP POP POP JUMP JUMPDEST PUSH1 0x0 PUSH1 0xA PUSH1 0x0 SWAP1 SLOAD SWAP1 PUSH2 0x100 EXP SWAP1 DIV PUSH20 0xFFFFFFFFFFFFFFFFFFFFFFFFFFFFFFFFFFFFFFFF AND SWAP1 POP DUP2 PUSH1 0xA PUSH1 0x0 PUSH2 0x100 EXP DUP2 SLOAD DUP2 PUSH20 0xFFFFFFFFFFFFFFFFFFFFFFFFFFFFFFFFFFFFFFFF MUL NOT AND SWAP1 DUP4 PUSH20 0xFFFFFFFFFFFFFFFFFFFFFFFFFFFFFFFFFFFFFFFF AND MUL OR SWAP1 SSTORE POP DUP2 PUSH20 0xFFFFFFFFFFFFFFFFFFFFFFFFFFFFFFFFFFFFFFFF AND DUP2 PUSH20 0xFFFFFFFFFFFFFFFFFFFFFFFFFFFFFFFFFFFFFFFF AND PUSH32 0x8BE0079C531659141344CD1FD0A4F28419497F9722A3DAAFE3B4186F6B6457E0 PUSH1 0x40 MLOAD PUSH1 0x40 MLOAD DUP1 SWAP2 SUB SWAP1 LOG3 POP POP JUMP JUMPDEST DUP2 PUSH20 0xFFFFFFFFFFFFFFFFFFFFFFFFFFFFFFFFFFFFFFFF AND DUP4 PUSH20 0xFFFFFFFFFFFFFFFFFFFFFFFFFFFFFFFFFFFFFFFF AND EQ ISZERO PUSH2 0x2293 JUMPI PUSH1 0x40 MLOAD PUSH32 0x8C379A000000000000000000000000000000000000000000000000000000000 DUP2 MSTORE PUSH1 0x4 ADD PUSH2 0x228A SWAP1 PUSH2 0x39B1 JUMP JUMPDEST PUSH1 0x40 MLOAD DUP1 SWAP2 SUB SWAP1 REVERT JUMPDEST DUP1 PUSH1 0x5 PUSH1 0x0 DUP6 PUSH20 0xFFFFFFFFFFFFFFFFFFFFFFFFFFFFFFFFFFFFFFFF AND PUSH20 0xFFFFFFFFFFFFFFFFFFFFFFFFFFFFFFFFFFFFFFFF AND DUP2 MSTORE PUSH1 0x20 ADD SWAP1 DUP2 MSTORE PUSH1 0x20 ADD PUSH1 0x0 KECCAK256 PUSH1 0x0 DUP5 PUSH20 0xFFFFFFFFFFFFFFFFFFFFFFFFFFFFFFFFFFFFFFFF AND PUSH20 0xFFFFFFFFFFFFFFFFFFFFFFFFFFFFFFFFFFFFFFFF AND DUP2 MSTORE PUSH1 0x20 ADD SWAP1 DUP2 MSTORE PUSH1 0x20 ADD PUSH1 0x0 KECCAK256 PUSH1 0x0 PUSH2 0x100 EXP DUP2 SLOAD DUP2 PUSH1 0xFF MUL NOT AND SWAP1 DUP4 ISZERO ISZERO MUL OR SWAP1 SSTORE POP DUP2 PUSH20 0xFFFFFFFFFFFFFFFFFFFFFFFFFFFFFFFFFFFFFFFF AND DUP4 PUSH20 0xFFFFFFFFFFFFFFFFFFFFFFFFFFFFFFFFFFFFFFFF AND PUSH32 0x17307EAB39AB6107E8899845AD3D59BD9653F200F220920489CA2B5937696C31 DUP4 PUSH1 0x40 MLOAD PUSH2 0x2384 SWAP2 SWAP1 PUSH2 0x3874 JUMP JUMPDEST PUSH1 0x40 MLOAD DUP1 SWAP2 SUB SWAP1 LOG3 POP POP POP JUMP JUMPDEST PUSH2 0x239C DUP5 DUP5 DUP5 PUSH2 0x1EF7 JUMP JUMPDEST PUSH2 0x23A8 DUP5 DUP5 DUP5 DUP5 PUSH2 0x27AD JUMP JUMPDEST PUSH2 0x23E7 JUMPI PUSH1 0x40 MLOAD PUSH32 0x8C379A000000000000000000000000000000000000000000000000000000000 DUP2 MSTORE PUSH1 0x4 ADD PUSH2 0x23DE SWAP1 PUSH2 0x38F1 JUMP JUMPDEST PUSH1 0x40 MLOAD DUP1 SWAP2 SUB SWAP1 REVERT JUMPDEST POP POP POP POP JUMP JUMPDEST PUSH1 0x60 PUSH1 0xE DUP1 SLOAD PUSH2 0x23FC SWAP1 PUSH2 0x3E56 JUMP JUMPDEST DUP1 PUSH1 0x1F ADD PUSH1 0x20 DUP1 SWAP2 DIV MUL PUSH1 0x20 ADD PUSH1 0x40 MLOAD SWAP1 DUP2 ADD PUSH1 0x40 MSTORE DUP1 SWAP3 SWAP2 SWAP1 DUP2 DUP2 MSTORE PUSH1 0x20 ADD DUP3 DUP1 SLOAD PUSH2 0x2428 SWAP1 PUSH2 0x3E56 JUMP JUMPDEST DUP1 ISZERO PUSH2 0x2475 JUMPI DUP1 PUSH1 0x1F LT PUSH2 0x244A JUMPI PUSH2 0x100 DUP1 DUP4 SLOAD DIV MUL DUP4 MSTORE SWAP2 PUSH1 0x20 ADD SWAP2 PUSH2 0x2475 JUMP JUMPDEST DUP3 ADD SWAP2 SWAP1 PUSH1 0x0 MSTORE PUSH1 0x20 PUSH1 0x0 KECCAK256 SWAP1 JUMPDEST DUP2 SLOAD DUP2 MSTORE SWAP1 PUSH1 0x1 ADD SWAP1 PUSH1 0x20 ADD DUP1 DUP4 GT PUSH2 0x2458 JUMPI DUP3 SWAP1 SUB PUSH1 0x1F AND DUP3 ADD SWAP2 JUMPDEST POP POP POP POP POP SWAP1 POP SWAP1 JUMP JUMPDEST PUSH1 0x60 PUSH1 0x0 DUP3 EQ ISZERO PUSH2 0x24C7 JUMPI PUSH1 0x40 MLOAD DUP1 PUSH1 0x40 ADD PUSH1 0x40 MSTORE DUP1 PUSH1 0x1 DUP2 MSTORE PUSH1 0x20 ADD PUSH32 0x3000000000000000000000000000000000000000000000000000000000000000 DUP2 MSTORE POP SWAP1 POP PUSH2 0x25DB JUMP JUMPDEST PUSH1 0x0 DUP3 SWAP1 POP PUSH1 0x0 JUMPDEST PUSH1 0x0 DUP3 EQ PUSH2 0x24F9 JUMPI DUP1 DUP1 PUSH2 0x24E2 SWAP1 PUSH2 0x3EB9 JUMP JUMPDEST SWAP2 POP POP PUSH1 0xA DUP3 PUSH2 0x24F2 SWAP2 SWAP1 PUSH2 0x3CE1 JUMP JUMPDEST SWAP2 POP PUSH2 0x24CF JUMP JUMPDEST PUSH1 0x0 DUP2 PUSH8 0xFFFFFFFFFFFFFFFF DUP2 GT ISZERO PUSH2 0x2515 JUMPI PUSH2 0x2514 PUSH2 0x401E JUMP JUMPDEST JUMPDEST PUSH1 0x40 MLOAD SWAP1 DUP1 DUP3 MSTORE DUP1 PUSH1 0x1F ADD PUSH1 0x1F NOT AND PUSH1 0x20 ADD DUP3 ADD PUSH1 0x40 MSTORE DUP1 ISZERO PUSH2 0x2547 JUMPI DUP2 PUSH1 0x20 ADD PUSH1 0x1 DUP3 MUL DUP1 CALLDATASIZE DUP4 CALLDATACOPY DUP1 DUP3 ADD SWAP2 POP POP SWAP1 POP JUMPDEST POP SWAP1 POP JUMPDEST PUSH1 0x0 DUP6 EQ PUSH2 0x25D4 JUMPI PUSH1 0x1 DUP3 PUSH2 0x2560 SWAP2 SWAP1 PUSH2 0x3D6C JUMP JUMPDEST SWAP2 POP PUSH1 0xA DUP6 PUSH2 0x256F SWAP2 SWAP1 PUSH2 0x3F02 JUMP JUMPDEST PUSH1 0x30 PUSH2 0x257B SWAP2 SWAP1 PUSH2 0x3C8B JUMP JUMPDEST PUSH1 0xF8 SHL DUP2 DUP4 DUP2 MLOAD DUP2 LT PUSH2 0x2591 JUMPI PUSH2 0x2590 PUSH2 0x3FEF JUMP JUMPDEST JUMPDEST PUSH1 0x20 ADD ADD SWAP1 PUSH31 0xFFFFFFFFFFFFFFFFFFFFFFFFFFFFFFFFFFFFFFFFFFFFFFFFFFFFFFFFFFFFFF NOT AND SWAP1 DUP2 PUSH1 0x0 BYTE SWAP1 MSTORE8 POP PUSH1 0xA DUP6 PUSH2 0x25CD SWAP2 SWAP1 PUSH2 0x3CE1 JUMP JUMPDEST SWAP5 POP PUSH2 0x254B JUMP JUMPDEST DUP1 SWAP4 POP POP POP POP JUMPDEST SWAP2 SWAP1 POP JUMP JUMPDEST PUSH1 0x0 JUMPDEST DUP2 DUP2 LT ISZERO PUSH2 0x2626 JUMPI PUSH1 0x0 PUSH2 0x25F5 PUSH2 0xBB8 JUMP JUMPDEST SWAP1 POP PUSH1 0xA PUSH2 0x2601 PUSH2 0xBB8 JUMP JUMPDEST LT ISZERO PUSH2 0x2612 JUMPI PUSH2 0x2611 CALLER DUP3 PUSH2 0x2944 JUMP JUMPDEST JUMPDEST POP DUP1 DUP1 PUSH2 0x261E SWAP1 PUSH2 0x3EB9 JUMP JUMPDEST SWAP2 POP POP PUSH2 0x25E3 JUMP JUMPDEST POP POP JUMP JUMPDEST PUSH1 0x0 PUSH32 0x1FFC9A700000000000000000000000000000000000000000000000000000000 PUSH28 0xFFFFFFFFFFFFFFFFFFFFFFFFFFFFFFFFFFFFFFFFFFFFFFFFFFFFFFFF NOT AND DUP3 PUSH28 0xFFFFFFFFFFFFFFFFFFFFFFFFFFFFFFFFFFFFFFFFFFFFFFFFFFFFFFFF NOT AND EQ SWAP1 POP SWAP2 SWAP1 POP JUMP JUMPDEST PUSH2 0x269F DUP4 DUP4 DUP4 PUSH2 0x2962 JUMP JUMPDEST PUSH1 0x0 PUSH20 0xFFFFFFFFFFFFFFFFFFFFFFFFFFFFFFFFFFFFFFFF AND DUP4 PUSH20 0xFFFFFFFFFFFFFFFFFFFFFFFFFFFFFFFFFFFFFFFF AND EQ ISZERO PUSH2 0x26E2 JUMPI PUSH2 0x26DD DUP2 PUSH2 0x2967 JUMP JUMPDEST PUSH2 0x2721 JUMP JUMPDEST DUP2 PUSH20 0xFFFFFFFFFFFFFFFFFFFFFFFFFFFFFFFFFFFFFFFF AND DUP4 PUSH20 0xFFFFFFFFFFFFFFFFFFFFFFFFFFFFFFFFFFFFFFFF AND EQ PUSH2 0x2720 JUMPI PUSH2 0x271F DUP4 DUP3 PUSH2 0x29B0 JUMP JUMPDEST JUMPDEST JUMPDEST PUSH1 0x0 PUSH20 0xFFFFFFFFFFFFFFFFFFFFFFFFFFFFFFFFFFFFFFFF AND DUP3 PUSH20 0xFFFFFFFFFFFFFFFFFFFFFFFFFFFFFFFFFFFFFFFF AND EQ ISZERO PUSH2 0x2764 JUMPI PUSH2 0x275F DUP2 PUSH2 0x2B1D JUMP JUMPDEST PUSH2 0x27A3 JUMP JUMPDEST DUP3 PUSH20 0xFFFFFFFFFFFFFFFFFFFFFFFFFFFFFFFFFFFFFFFF AND DUP3 PUSH20 0xFFFFFFFFFFFFFFFFFFFFFFFFFFFFFFFFFFFFFFFF AND EQ PUSH2 0x27A2 JUMPI PUSH2 0x27A1 DUP3 DUP3 PUSH2 0x2BEE JUMP JUMPDEST JUMPDEST JUMPDEST POP POP POP JUMP JUMPDEST POP POP POP JUMP JUMPDEST PUSH1 0x0 PUSH2 0x27CE DUP5 PUSH20 0xFFFFFFFFFFFFFFFFFFFFFFFFFFFFFFFFFFFFFFFF AND PUSH2 0x2C6D JUMP JUMPDEST ISZERO PUSH2 0x2937 JUMPI DUP4 PUSH20 0xFFFFFFFFFFFFFFFFFFFFFFFFFFFFFFFFFFFFFFFF AND PUSH4 0x150B7A02 PUSH2 0x27F7 PUSH2 0x1D58 JUMP JUMPDEST DUP8 DUP7 DUP7 PUSH1 0x40 MLOAD DUP6 PUSH4 0xFFFFFFFF AND PUSH1 0xE0 SHL DUP2 MSTORE PUSH1 0x4 ADD PUSH2 0x2819 SWAP5 SWAP4 SWAP3 SWAP2 SWAP1 PUSH2 0x3828 JUMP JUMPDEST PUSH1 0x20 PUSH1 0x40 MLOAD DUP1 DUP4 SUB DUP2 PUSH1 0x0 DUP8 DUP1 EXTCODESIZE ISZERO DUP1 ISZERO PUSH2 0x2833 JUMPI PUSH1 0x0 DUP1 REVERT JUMPDEST POP GAS CALL SWAP3 POP POP POP DUP1 ISZERO PUSH2 0x2864 JUMPI POP PUSH1 0x40 MLOAD RETURNDATASIZE PUSH1 0x1F NOT PUSH1 0x1F DUP3 ADD AND DUP3 ADD DUP1 PUSH1 0x40 MSTORE POP DUP2 ADD SWAP1 PUSH2 0x2861 SWAP2 SWAP1 PUSH2 0x32A1 JUMP JUMPDEST PUSH1 0x1 JUMPDEST PUSH2 0x28E7 JUMPI RETURNDATASIZE DUP1 PUSH1 0x0 DUP2 EQ PUSH2 0x2894 JUMPI PUSH1 0x40 MLOAD SWAP2 POP PUSH1 0x1F NOT PUSH1 0x3F RETURNDATASIZE ADD AND DUP3 ADD PUSH1 0x40 MSTORE RETURNDATASIZE DUP3 MSTORE RETURNDATASIZE PUSH1 0x0 PUSH1 0x20 DUP5 ADD RETURNDATACOPY PUSH2 0x2899 JUMP JUMPDEST PUSH1 0x60 SWAP2 POP JUMPDEST POP PUSH1 0x0 DUP2 MLOAD EQ ISZERO PUSH2 0x28DF JUMPI PUSH1 0x40 MLOAD PUSH32 0x8C379A000000000000000000000000000000000000000000000000000000000 DUP2 MSTORE PUSH1 0x4 ADD PUSH2 0x28D6 SWAP1 PUSH2 0x38F1 JUMP JUMPDEST PUSH1 0x40 MLOAD DUP1 SWAP2 SUB SWAP1 REVERT JUMPDEST DUP1 MLOAD DUP2 PUSH1 0x20 ADD REVERT JUMPDEST PUSH4 0x150B7A02 PUSH1 0xE0 SHL PUSH28 0xFFFFFFFFFFFFFFFFFFFFFFFFFFFFFFFFFFFFFFFFFFFFFFFFFFFFFFFF NOT AND DUP2 PUSH28 0xFFFFFFFFFFFFFFFFFFFFFFFFFFFFFFFFFFFFFFFFFFFFFFFFFFFFFFFF NOT AND EQ SWAP2 POP POP PUSH2 0x293C JUMP JUMPDEST PUSH1 0x1 SWAP1 POP JUMPDEST SWAP5 SWAP4 POP POP POP POP JUMP JUMPDEST PUSH2 0x295E DUP3 DUP3 PUSH1 0x40 MLOAD DUP1 PUSH1 0x20 ADD PUSH1 0x40 MSTORE DUP1 PUSH1 0x0 DUP2 MSTORE POP PUSH2 0x2C90 JUMP JUMPDEST POP POP JUMP JUMPDEST POP POP POP JUMP JUMPDEST PUSH1 0x8 DUP1 SLOAD SWAP1 POP PUSH1 0x9 PUSH1 0x0 DUP4 DUP2 MSTORE PUSH1 0x20 ADD SWAP1 DUP2 MSTORE PUSH1 0x20 ADD PUSH1 0x0 KECCAK256 DUP2 SWAP1 SSTORE POP PUSH1 0x8 DUP2 SWAP1 DUP1 PUSH1 0x1 DUP2 SLOAD ADD DUP1 DUP3 SSTORE DUP1 SWAP2 POP POP PUSH1 0x1 SWAP1 SUB SWAP1 PUSH1 0x0 MSTORE PUSH1 0x20 PUSH1 0x0 KECCAK256 ADD PUSH1 0x0 SWAP1 SWAP2 SWAP1 SWAP2 SWAP1 SWAP2 POP SSTORE POP JUMP JUMPDEST PUSH1 0x0 PUSH1 0x1 PUSH2 0x29BD DUP5 PUSH2 0x10CE JUMP JUMPDEST PUSH2 0x29C7 SWAP2 SWAP1 PUSH2 0x3D6C JUMP JUMPDEST SWAP1 POP PUSH1 0x0 PUSH1 0x7 PUSH1 0x0 DUP5 DUP2 MSTORE PUSH1 0x20 ADD SWAP1 DUP2 MSTORE PUSH1 0x20 ADD PUSH1 0x0 KECCAK256 SLOAD SWAP1 POP DUP2 DUP2 EQ PUSH2 0x2AAC JUMPI PUSH1 0x0 PUSH1 0x6 PUSH1 0x0 DUP7 PUSH20 0xFFFFFFFFFFFFFFFFFFFFFFFFFFFFFFFFFFFFFFFF AND PUSH20 0xFFFFFFFFFFFFFFFFFFFFFFFFFFFFFFFFFFFFFFFF AND DUP2 MSTORE PUSH1 0x20 ADD SWAP1 DUP2 MSTORE PUSH1 0x20 ADD PUSH1 0x0 KECCAK256 PUSH1 0x0 DUP5 DUP2 MSTORE PUSH1 0x20 ADD SWAP1 DUP2 MSTORE PUSH1 0x20 ADD PUSH1 0x0 KECCAK256 SLOAD SWAP1 POP DUP1 PUSH1 0x6 PUSH1 0x0 DUP8 PUSH20 0xFFFFFFFFFFFFFFFFFFFFFFFFFFFFFFFFFFFFFFFF AND PUSH20 0xFFFFFFFFFFFFFFFFFFFFFFFFFFFFFFFFFFFFFFFF AND DUP2 MSTORE PUSH1 0x20 ADD SWAP1 DUP2 MSTORE PUSH1 0x20 ADD PUSH1 0x0 KECCAK256 PUSH1 0x0 DUP5 DUP2 MSTORE PUSH1 0x20 ADD SWAP1 DUP2 MSTORE PUSH1 0x20 ADD PUSH1 0x0 KECCAK256 DUP2 SWAP1 SSTORE POP DUP2 PUSH1 0x7 PUSH1 0x0 DUP4 DUP2 MSTORE PUSH1 0x20 ADD SWAP1 DUP2 MSTORE PUSH1 0x20 ADD PUSH1 0x0 KECCAK256 DUP2 SWAP1 SSTORE POP POP JUMPDEST PUSH1 0x7 PUSH1 0x0 DUP5 DUP2 MSTORE PUSH1 0x20 ADD SWAP1 DUP2 MSTORE PUSH1 0x20 ADD PUSH1 0x0 KECCAK256 PUSH1 0x0 SWAP1 SSTORE PUSH1 0x6 PUSH1 0x0 DUP6 PUSH20 0xFFFFFFFFFFFFFFFFFFFFFFFFFFFFFFFFFFFFFFFF AND PUSH20 0xFFFFFFFFFFFFFFFFFFFFFFFFFFFFFFFFFFFFFFFF AND DUP2 MSTORE PUSH1 0x20 ADD SWAP1 DUP2 MSTORE PUSH1 0x20 ADD PUSH1 0x0 KECCAK256 PUSH1 0x0 DUP4 DUP2 MSTORE PUSH1 0x20 ADD SWAP1 DUP2 MSTORE PUSH1 0x20 ADD PUSH1 0x0 KECCAK256 PUSH1 0x0 SWAP1 SSTORE POP POP POP POP JUMP JUMPDEST PUSH1 0x0 PUSH1 0x1 PUSH1 0x8 DUP1 SLOAD SWAP1 POP PUSH2 0x2B31 SWAP2 SWAP1 PUSH2 0x3D6C JUMP JUMPDEST SWAP1 POP PUSH1 0x0 PUSH1 0x9 PUSH1 0x0 DUP5 DUP2 MSTORE PUSH1 0x20 ADD SWAP1 DUP2 MSTORE PUSH1 0x20 ADD PUSH1 0x0 KECCAK256 SLOAD SWAP1 POP PUSH1 0x0 PUSH1 0x8 DUP4 DUP2 SLOAD DUP2 LT PUSH2 0x2B61 JUMPI PUSH2 0x2B60 PUSH2 0x3FEF JUMP JUMPDEST JUMPDEST SWAP1 PUSH1 0x0 MSTORE PUSH1 0x20 PUSH1 0x0 KECCAK256 ADD SLOAD SWAP1 POP DUP1 PUSH1 0x8 DUP4 DUP2 SLOAD DUP2 LT PUSH2 0x2B83 JUMPI PUSH2 0x2B82 PUSH2 0x3FEF JUMP JUMPDEST JUMPDEST SWAP1 PUSH1 0x0 MSTORE PUSH1 0x20 PUSH1 0x0 KECCAK256 ADD DUP2 SWAP1 SSTORE POP DUP2 PUSH1 0x9 PUSH1 0x0 DUP4 DUP2 MSTORE PUSH1 0x20 ADD SWAP1 DUP2 MSTORE PUSH1 0x20 ADD PUSH1 0x0 KECCAK256 DUP2 SWAP1 SSTORE POP PUSH1 0x9 PUSH1 0x0 DUP6 DUP2 MSTORE PUSH1 0x20 ADD SWAP1 DUP2 MSTORE PUSH1 0x20 ADD PUSH1 0x0 KECCAK256 PUSH1 0x0 SWAP1 SSTORE PUSH1 0x8 DUP1 SLOAD DUP1 PUSH2 0x2BD2 JUMPI PUSH2 0x2BD1 PUSH2 0x3FC0 JUMP JUMPDEST JUMPDEST PUSH1 0x1 SWAP1 SUB DUP2 DUP2 SWAP1 PUSH1 0x0 MSTORE PUSH1 0x20 PUSH1 0x0 KECCAK256 ADD PUSH1 0x0 SWAP1 SSTORE SWAP1 SSTORE POP POP POP POP JUMP JUMPDEST PUSH1 0x0 PUSH2 0x2BF9 DUP4 PUSH2 0x10CE JUMP JUMPDEST SWAP1 POP DUP2 PUSH1 0x6 PUSH1 0x0 DUP6 PUSH20 0xFFFFFFFFFFFFFFFFFFFFFFFFFFFFFFFFFFFFFFFF AND PUSH20 0xFFFFFFFFFFFFFFFFFFFFFFFFFFFFFFFFFFFFFFFF AND DUP2 MSTORE PUSH1 0x20 ADD SWAP1 DUP2 MSTORE PUSH1 0x20 ADD PUSH1 0x0 KECCAK256 PUSH1 0x0 DUP4 DUP2 MSTORE PUSH1 0x20 ADD SWAP1 DUP2 MSTORE PUSH1 0x20 ADD PUSH1 0x0 KECCAK256 DUP2 SWAP1 SSTORE POP DUP1 PUSH1 0x7 PUSH1 0x0 DUP5 DUP2 MSTORE PUSH1 0x20 ADD SWAP1 DUP2 MSTORE PUSH1 0x20 ADD PUSH1 0x0 KECCAK256 DUP2 SWAP1 SSTORE POP POP POP POP JUMP JUMPDEST PUSH1 0x0 DUP1 DUP3 PUSH20 0xFFFFFFFFFFFFFFFFFFFFFFFFFFFFFFFFFFFFFFFF AND EXTCODESIZE GT SWAP1 POP SWAP2 SWAP1 POP JUMP JUMPDEST PUSH2 0x2C9A DUP4 DUP4 PUSH2 0x2CEB JUMP JUMPDEST PUSH2 0x2CA7 PUSH1 0x0 DUP5 DUP5 DUP5 PUSH2 0x27AD JUMP JUMPDEST PUSH2 0x2CE6 JUMPI PUSH1 0x40 MLOAD PUSH32 0x8C379A000000000000000000000000000000000000000000000000000000000 DUP2 MSTORE PUSH1 0x4 ADD PUSH2 0x2CDD SWAP1 PUSH2 0x38F1 JUMP JUMPDEST PUSH1 0x40 MLOAD DUP1 SWAP2 SUB SWAP1 REVERT JUMPDEST POP POP POP JUMP JUMPDEST PUSH1 0x0 PUSH20 0xFFFFFFFFFFFFFFFFFFFFFFFFFFFFFFFFFFFFFFFF AND DUP3 PUSH20 0xFFFFFFFFFFFFFFFFFFFFFFFFFFFFFFFFFFFFFFFF AND EQ ISZERO PUSH2 0x2D5B JUMPI PUSH1 0x40 MLOAD PUSH32 0x8C379A000000000000000000000000000000000000000000000000000000000 DUP2 MSTORE PUSH1 0x4 ADD PUSH2 0x2D52 SWAP1 PUSH2 0x3A91 JUMP JUMPDEST PUSH1 0x40 MLOAD DUP1 SWAP2 SUB SWAP1 REVERT JUMPDEST PUSH2 0x2D64 DUP2 PUSH2 0x1CEC JUMP JUMPDEST ISZERO PUSH2 0x2DA4 JUMPI PUSH1 0x40 MLOAD PUSH32 0x8C379A000000000000000000000000000000000000000000000000000000000 DUP2 MSTORE PUSH1 0x4 ADD PUSH2 0x2D9B SWAP1 PUSH2 0x3951 JUMP JUMPDEST PUSH1 0x40 MLOAD DUP1 SWAP2 SUB SWAP1 REVERT JUMPDEST PUSH2 0x2DB0 PUSH1 0x0 DUP4 DUP4 PUSH2 0x2694 JUMP JUMPDEST PUSH1 0x1 PUSH1 0x3 PUSH1 0x0 DUP5 PUSH20 0xFFFFFFFFFFFFFFFFFFFFFFFFFFFFFFFFFFFFFFFF AND PUSH20 0xFFFFFFFFFFFFFFFFFFFFFFFFFFFFFFFFFFFFFFFF AND DUP2 MSTORE PUSH1 0x20 ADD SWAP1 DUP2 MSTORE PUSH1 0x20 ADD PUSH1 0x0 KECCAK256 PUSH1 0x0 DUP3 DUP3 SLOAD PUSH2 0x2E00 SWAP2 SWAP1 PUSH2 0x3C8B JUMP JUMPDEST SWAP3 POP POP DUP2 SWAP1 SSTORE POP DUP2 PUSH1 0x2 PUSH1 0x0 DUP4 DUP2 MSTORE PUSH1 0x20 ADD SWAP1 DUP2 MSTORE PUSH1 0x20 ADD PUSH1 0x0 KECCAK256 PUSH1 0x0 PUSH2 0x100 EXP DUP2 SLOAD DUP2 PUSH20 0xFFFFFFFFFFFFFFFFFFFFFFFFFFFFFFFFFFFFFFFF MUL NOT AND SWAP1 DUP4 PUSH20 0xFFFFFFFFFFFFFFFFFFFFFFFFFFFFFFFFFFFFFFFF AND MUL OR SWAP1 SSTORE POP DUP1 DUP3 PUSH20 0xFFFFFFFFFFFFFFFFFFFFFFFFFFFFFFFFFFFFFFFF AND PUSH1 0x0 PUSH20 0xFFFFFFFFFFFFFFFFFFFFFFFFFFFFFFFFFFFFFFFF AND PUSH32 0xDDF252AD1BE2C89B69C2B068FC378DAA952BA7F163C4A11628F55A4DF523B3EF PUSH1 0x40 MLOAD PUSH1 0x40 MLOAD DUP1 SWAP2 SUB SWAP1 LOG4 PUSH2 0x2EC1 PUSH1 0x0 DUP4 DUP4 PUSH2 0x27A8 JUMP JUMPDEST POP POP JUMP JUMPDEST DUP3 DUP1 SLOAD PUSH2 0x2ED1 SWAP1 PUSH2 0x3E56 JUMP JUMPDEST SWAP1 PUSH1 0x0 MSTORE PUSH1 0x20 PUSH1 0x0 KECCAK256 SWAP1 PUSH1 0x1F ADD PUSH1 0x20 SWAP1 DIV DUP2 ADD SWAP3 DUP3 PUSH2 0x2EF3 JUMPI PUSH1 0x0 DUP6 SSTORE PUSH2 0x2F3A JUMP JUMPDEST DUP3 PUSH1 0x1F LT PUSH2 0x2F0C JUMPI DUP1 MLOAD PUSH1 0xFF NOT AND DUP4 DUP1 ADD OR DUP6 SSTORE PUSH2 0x2F3A JUMP JUMPDEST DUP3 DUP1 ADD PUSH1 0x1 ADD DUP6 SSTORE DUP3 ISZERO PUSH2 0x2F3A JUMPI SWAP2 DUP3 ADD JUMPDEST DUP3 DUP2 GT ISZERO PUSH2 0x2F39 JUMPI DUP3 MLOAD DUP3 SSTORE SWAP2 PUSH1 0x20 ADD SWAP2 SWAP1 PUSH1 0x1 ADD SWAP1 PUSH2 0x2F1E JUMP JUMPDEST JUMPDEST POP SWAP1 POP PUSH2 0x2F47 SWAP2 SWAP1 PUSH2 0x2F4B JUMP JUMPDEST POP SWAP1 JUMP JUMPDEST JUMPDEST DUP1 DUP3 GT ISZERO PUSH2 0x2F64 JUMPI PUSH1 0x0 DUP2 PUSH1 0x0 SWAP1 SSTORE POP PUSH1 0x1 ADD PUSH2 0x2F4C JUMP JUMPDEST POP SWAP1 JUMP JUMPDEST PUSH1 0x0 PUSH2 0x2F7B PUSH2 0x2F76 DUP5 PUSH2 0x3BD1 JUMP JUMPDEST PUSH2 0x3BAC JUMP JUMPDEST SWAP1 POP DUP3 DUP2 MSTORE PUSH1 0x20 DUP2 ADD DUP5 DUP5 DUP5 ADD GT ISZERO PUSH2 0x2F97 JUMPI PUSH2 0x2F96 PUSH2 0x4052 JUMP JUMPDEST JUMPDEST PUSH2 0x2FA2 DUP5 DUP3 DUP6 PUSH2 0x3E14 JUMP JUMPDEST POP SWAP4 SWAP3 POP POP POP JUMP JUMPDEST PUSH1 0x0 PUSH2 0x2FBD PUSH2 0x2FB8 DUP5 PUSH2 0x3C02 JUMP JUMPDEST PUSH2 0x3BAC JUMP JUMPDEST SWAP1 POP DUP3 DUP2 MSTORE PUSH1 0x20 DUP2 ADD DUP5 DUP5 DUP5 ADD GT ISZERO PUSH2 0x2FD9 JUMPI PUSH2 0x2FD8 PUSH2 0x4052 JUMP JUMPDEST JUMPDEST PUSH2 0x2FE4 DUP5 DUP3 DUP6 PUSH2 0x3E14 JUMP JUMPDEST POP SWAP4 SWAP3 POP POP POP JUMP JUMPDEST PUSH1 0x0 DUP2 CALLDATALOAD SWAP1 POP PUSH2 0x2FFB DUP2 PUSH2 0x465B JUMP JUMPDEST SWAP3 SWAP2 POP POP JUMP JUMPDEST PUSH1 0x0 DUP2 CALLDATALOAD SWAP1 POP PUSH2 0x3010 DUP2 PUSH2 0x4672 JUMP JUMPDEST SWAP3 SWAP2 POP POP JUMP JUMPDEST PUSH1 0x0 DUP2 CALLDATALOAD SWAP1 POP PUSH2 0x3025 DUP2 PUSH2 0x4689 JUMP JUMPDEST SWAP3 SWAP2 POP POP JUMP JUMPDEST PUSH1 0x0 DUP2 MLOAD SWAP1 POP PUSH2 0x303A DUP2 PUSH2 0x4689 JUMP JUMPDEST SWAP3 SWAP2 POP POP JUMP JUMPDEST PUSH1 0x0 DUP3 PUSH1 0x1F DUP4 ADD SLT PUSH2 0x3055 JUMPI PUSH2 0x3054 PUSH2 0x404D JUMP JUMPDEST JUMPDEST DUP2 CALLDATALOAD PUSH2 0x3065 DUP5 DUP3 PUSH1 0x20 DUP7 ADD PUSH2 0x2F68 JUMP JUMPDEST SWAP2 POP POP SWAP3 SWAP2 POP POP JUMP JUMPDEST PUSH1 0x0 DUP3 PUSH1 0x1F DUP4 ADD SLT PUSH2 0x3083 JUMPI PUSH2 0x3082 PUSH2 0x404D JUMP JUMPDEST JUMPDEST DUP2 CALLDATALOAD PUSH2 0x3093 DUP5 DUP3 PUSH1 0x20 DUP7 ADD PUSH2 0x2FAA JUMP JUMPDEST SWAP2 POP POP SWAP3 SWAP2 POP POP JUMP JUMPDEST PUSH1 0x0 DUP2 CALLDATALOAD SWAP1 POP PUSH2 0x30AB DUP2 PUSH2 0x46A0 JUMP JUMPDEST SWAP3 SWAP2 POP POP JUMP JUMPDEST PUSH1 0x0 PUSH1 0x20 DUP3 DUP5 SUB SLT ISZERO PUSH2 0x30C7 JUMPI PUSH2 0x30C6 PUSH2 0x405C JUMP JUMPDEST JUMPDEST PUSH1 0x0 PUSH2 0x30D5 DUP5 DUP3 DUP6 ADD PUSH2 0x2FEC JUMP JUMPDEST SWAP2 POP POP SWAP3 SWAP2 POP POP JUMP JUMPDEST PUSH1 0x0 DUP1 PUSH1 0x40 DUP4 DUP6 SUB SLT ISZERO PUSH2 0x30F5 JUMPI PUSH2 0x30F4 PUSH2 0x405C JUMP JUMPDEST JUMPDEST PUSH1 0x0 PUSH2 0x3103 DUP6 DUP3 DUP7 ADD PUSH2 0x2FEC JUMP JUMPDEST SWAP3 POP POP PUSH1 0x20 PUSH2 0x3114 DUP6 DUP3 DUP7 ADD PUSH2 0x2FEC JUMP JUMPDEST SWAP2 POP POP SWAP3 POP SWAP3 SWAP1 POP JUMP JUMPDEST PUSH1 0x0 DUP1 PUSH1 0x0 PUSH1 0x60 DUP5 DUP7 SUB SLT ISZERO PUSH2 0x3137 JUMPI PUSH2 0x3136 PUSH2 0x405C JUMP JUMPDEST JUMPDEST PUSH1 0x0 PUSH2 0x3145 DUP7 DUP3 DUP8 ADD PUSH2 0x2FEC JUMP JUMPDEST SWAP4 POP POP PUSH1 0x20 PUSH2 0x3156 DUP7 DUP3 DUP8 ADD PUSH2 0x2FEC JUMP JUMPDEST SWAP3 POP POP PUSH1 0x40 PUSH2 0x3167 DUP7 DUP3 DUP8 ADD PUSH2 0x309C JUMP JUMPDEST SWAP2 POP POP SWAP3 POP SWAP3 POP SWAP3 JUMP JUMPDEST PUSH1 0x0 DUP1 PUSH1 0x0 DUP1 PUSH1 0x80 DUP6 DUP8 SUB SLT ISZERO PUSH2 0x318B JUMPI PUSH2 0x318A PUSH2 0x405C JUMP JUMPDEST JUMPDEST PUSH1 0x0 PUSH2 0x3199 DUP8 DUP3 DUP9 ADD PUSH2 0x2FEC JUMP JUMPDEST SWAP5 POP POP PUSH1 0x20 PUSH2 0x31AA DUP8 DUP3 DUP9 ADD PUSH2 0x2FEC JUMP JUMPDEST SWAP4 POP POP PUSH1 0x40 PUSH2 0x31BB DUP8 DUP3 DUP9 ADD PUSH2 0x309C JUMP JUMPDEST SWAP3 POP POP PUSH1 0x60 DUP6 ADD CALLDATALOAD PUSH8 0xFFFFFFFFFFFFFFFF DUP2 GT ISZERO PUSH2 0x31DC JUMPI PUSH2 0x31DB PUSH2 0x4057 JUMP JUMPDEST JUMPDEST PUSH2 0x31E8 DUP8 DUP3 DUP9 ADD PUSH2 0x3040 JUMP JUMPDEST SWAP2 POP POP SWAP3 SWAP6 SWAP2 SWAP5 POP SWAP3 POP JUMP JUMPDEST PUSH1 0x0 DUP1 PUSH1 0x40 DUP4 DUP6 SUB SLT ISZERO PUSH2 0x320B JUMPI PUSH2 0x320A PUSH2 0x405C JUMP JUMPDEST JUMPDEST PUSH1 0x0 PUSH2 0x3219 DUP6 DUP3 DUP7 ADD PUSH2 0x2FEC JUMP JUMPDEST SWAP3 POP POP PUSH1 0x20 PUSH2 0x322A DUP6 DUP3 DUP7 ADD PUSH2 0x3001 JUMP JUMPDEST SWAP2 POP POP SWAP3 POP SWAP3 SWAP1 POP JUMP JUMPDEST PUSH1 0x0 DUP1 PUSH1 0x40 DUP4 DUP6 SUB SLT ISZERO PUSH2 0x324B JUMPI PUSH2 0x324A PUSH2 0x405C JUMP JUMPDEST JUMPDEST PUSH1 0x0 PUSH2 0x3259 DUP6 DUP3 DUP7 ADD PUSH2 0x2FEC JUMP JUMPDEST SWAP3 POP POP PUSH1 0x20 PUSH2 0x326A DUP6 DUP3 DUP7 ADD PUSH2 0x309C JUMP JUMPDEST SWAP2 POP POP SWAP3 POP SWAP3 SWAP1 POP JUMP JUMPDEST PUSH1 0x0 PUSH1 0x20 DUP3 DUP5 SUB SLT ISZERO PUSH2 0x328A JUMPI PUSH2 0x3289 PUSH2 0x405C JUMP JUMPDEST JUMPDEST PUSH1 0x0 PUSH2 0x3298 DUP5 DUP3 DUP6 ADD PUSH2 0x3016 JUMP JUMPDEST SWAP2 POP POP SWAP3 SWAP2 POP POP JUMP JUMPDEST PUSH1 0x0 PUSH1 0x20 DUP3 DUP5 SUB SLT ISZERO PUSH2 0x32B7 JUMPI PUSH2 0x32B6 PUSH2 0x405C JUMP JUMPDEST JUMPDEST PUSH1 0x0 PUSH2 0x32C5 DUP5 DUP3 DUP6 ADD PUSH2 0x302B JUMP JUMPDEST SWAP2 POP POP SWAP3 SWAP2 POP POP JUMP JUMPDEST PUSH1 0x0 PUSH1 0x20 DUP3 DUP5 SUB SLT ISZERO PUSH2 0x32E4 JUMPI PUSH2 0x32E3 PUSH2 0x405C JUMP JUMPDEST JUMPDEST PUSH1 0x0 DUP3 ADD CALLDATALOAD PUSH8 0xFFFFFFFFFFFFFFFF DUP2 GT ISZERO PUSH2 0x3302 JUMPI PUSH2 0x3301 PUSH2 0x4057 JUMP JUMPDEST JUMPDEST PUSH2 0x330E DUP5 DUP3 DUP6 ADD PUSH2 0x306E JUMP JUMPDEST SWAP2 POP POP SWAP3 SWAP2 POP POP JUMP JUMPDEST PUSH1 0x0 PUSH1 0x20 DUP3 DUP5 SUB SLT ISZERO PUSH2 0x332D JUMPI PUSH2 0x332C PUSH2 0x405C JUMP JUMPDEST JUMPDEST PUSH1 0x0 PUSH2 0x333B DUP5 DUP3 DUP6 ADD PUSH2 0x309C JUMP JUMPDEST SWAP2 POP POP SWAP3 SWAP2 POP POP JUMP JUMPDEST PUSH2 0x334D DUP2 PUSH2 0x3DA0 JUMP JUMPDEST DUP3 MSTORE POP POP JUMP JUMPDEST PUSH2 0x335C DUP2 PUSH2 0x3DB2 JUMP JUMPDEST DUP3 MSTORE POP POP JUMP JUMPDEST PUSH1 0x0 PUSH2 0x336D DUP3 PUSH2 0x3C48 JUMP JUMPDEST PUSH2 0x3377 DUP2 DUP6 PUSH2 0x3C5E JUMP JUMPDEST SWAP4 POP PUSH2 0x3387 DUP2 DUP6 PUSH1 0x20 DUP7 ADD PUSH2 0x3E23 JUMP JUMPDEST PUSH2 0x3390 DUP2 PUSH2 0x4061 JUMP JUMPDEST DUP5 ADD SWAP2 POP POP SWAP3 SWAP2 POP POP JUMP JUMPDEST PUSH1 0x0 PUSH2 0x33A6 DUP3 PUSH2 0x3C53 JUMP JUMPDEST PUSH2 0x33B0 DUP2 DUP6 PUSH2 0x3C6F JUMP JUMPDEST SWAP4 POP PUSH2 0x33C0 DUP2 DUP6 PUSH1 0x20 DUP7 ADD PUSH2 0x3E23 JUMP JUMPDEST PUSH2 0x33C9 DUP2 PUSH2 0x4061 JUMP JUMPDEST DUP5 ADD SWAP2 POP POP SWAP3 SWAP2 POP POP JUMP JUMPDEST PUSH1 0x0 PUSH2 0x33DF DUP3 PUSH2 0x3C53 JUMP JUMPDEST PUSH2 0x33E9 DUP2 DUP6 PUSH2 0x3C80 JUMP JUMPDEST SWAP4 POP PUSH2 0x33F9 DUP2 DUP6 PUSH1 0x20 DUP7 ADD PUSH2 0x3E23 JUMP JUMPDEST DUP1 DUP5 ADD SWAP2 POP POP SWAP3 SWAP2 POP POP JUMP JUMPDEST PUSH1 0x0 DUP2 SLOAD PUSH2 0x3412 DUP2 PUSH2 0x3E56 JUMP JUMPDEST PUSH2 0x341C DUP2 DUP7 PUSH2 0x3C80 JUMP JUMPDEST SWAP5 POP PUSH1 0x1 DUP3 AND PUSH1 0x0 DUP2 EQ PUSH2 0x3437 JUMPI PUSH1 0x1 DUP2 EQ PUSH2 0x3448 JUMPI PUSH2 0x347B JUMP JUMPDEST PUSH1 0xFF NOT DUP4 AND DUP7 MSTORE DUP2 DUP7 ADD SWAP4 POP PUSH2 0x347B JUMP JUMPDEST PUSH2 0x3451 DUP6 PUSH2 0x3C33 JUMP JUMPDEST PUSH1 0x0 JUMPDEST DUP4 DUP2 LT ISZERO PUSH2 0x3473 JUMPI DUP2 SLOAD DUP2 DUP10 ADD MSTORE PUSH1 0x1 DUP3 ADD SWAP2 POP PUSH1 0x20 DUP2 ADD SWAP1 POP PUSH2 0x3454 JUMP JUMPDEST DUP4 DUP9 ADD SWAP6 POP POP POP JUMPDEST POP POP POP SWAP3 SWAP2 POP POP JUMP JUMPDEST PUSH1 0x0 PUSH2 0x3491 PUSH1 0x26 DUP4 PUSH2 0x3C6F JUMP JUMPDEST SWAP2 POP PUSH2 0x349C DUP3 PUSH2 0x4072 JUMP JUMPDEST PUSH1 0x40 DUP3 ADD SWAP1 POP SWAP2 SWAP1 POP JUMP JUMPDEST PUSH1 0x0 PUSH2 0x34B4 PUSH1 0x2B DUP4 PUSH2 0x3C6F JUMP JUMPDEST SWAP2 POP PUSH2 0x34BF DUP3 PUSH2 0x40C1 JUMP JUMPDEST PUSH1 0x40 DUP3 ADD SWAP1 POP SWAP2 SWAP1 POP JUMP JUMPDEST PUSH1 0x0 PUSH2 0x34D7 PUSH1 0x32 DUP4 PUSH2 0x3C6F JUMP JUMPDEST SWAP2 POP PUSH2 0x34E2 DUP3 PUSH2 0x4110 JUMP JUMPDEST PUSH1 0x40 DUP3 ADD SWAP1 POP SWAP2 SWAP1 POP JUMP JUMPDEST PUSH1 0x0 PUSH2 0x34FA PUSH1 0x26 DUP4 PUSH2 0x3C6F JUMP JUMPDEST SWAP2 POP PUSH2 0x3505 DUP3 PUSH2 0x415F JUMP JUMPDEST PUSH1 0x40 DUP3 ADD SWAP1 POP SWAP2 SWAP1 POP JUMP JUMPDEST PUSH1 0x0 PUSH2 0x351D PUSH1 0x25 DUP4 PUSH2 0x3C6F JUMP JUMPDEST SWAP2 POP PUSH2 0x3528 DUP3 PUSH2 0x41AE JUMP JUMPDEST PUSH1 0x40 DUP3 ADD SWAP1 POP SWAP2 SWAP1 POP JUMP JUMPDEST PUSH1 0x0 PUSH2 0x3540 PUSH1 0x1C DUP4 PUSH2 0x3C6F JUMP JUMPDEST SWAP2 POP PUSH2 0x354B DUP3 PUSH2 0x41FD JUMP JUMPDEST PUSH1 0x20 DUP3 ADD SWAP1 POP SWAP2 SWAP1 POP JUMP JUMPDEST PUSH1 0x0 PUSH2 0x3563 PUSH1 0x1C DUP4 PUSH2 0x3C6F JUMP JUMPDEST SWAP2 POP PUSH2 0x356E DUP3 PUSH2 0x4226 JUMP JUMPDEST PUSH1 0x20 DUP3 ADD SWAP1 POP SWAP2 SWAP1 POP JUMP JUMPDEST PUSH1 0x0 PUSH2 0x3586 PUSH1 0x24 DUP4 PUSH2 0x3C6F JUMP JUMPDEST SWAP2 POP PUSH2 0x3591 DUP3 PUSH2 0x424F JUMP JUMPDEST PUSH1 0x40 DUP3 ADD SWAP1 POP SWAP2 SWAP1 POP JUMP JUMPDEST PUSH1 0x0 PUSH2 0x35A9 PUSH1 0x19 DUP4 PUSH2 0x3C6F JUMP JUMPDEST SWAP2 POP PUSH2 0x35B4 DUP3 PUSH2 0x429E JUMP JUMPDEST PUSH1 0x20 DUP3 ADD SWAP1 POP SWAP2 SWAP1 POP JUMP JUMPDEST PUSH1 0x0 PUSH2 0x35CC PUSH1 0x2C DUP4 PUSH2 0x3C6F JUMP JUMPDEST SWAP2 POP PUSH2 0x35D7 DUP3 PUSH2 0x42C7 JUMP JUMPDEST PUSH1 0x40 DUP3 ADD SWAP1 POP SWAP2 SWAP1 POP JUMP JUMPDEST PUSH1 0x0 PUSH2 0x35EF PUSH1 0x20 DUP4 PUSH2 0x3C6F JUMP JUMPDEST SWAP2 POP PUSH2 0x35FA DUP3 PUSH2 0x4316 JUMP JUMPDEST PUSH1 0x20 DUP3 ADD SWAP1 POP SWAP2 SWAP1 POP JUMP JUMPDEST PUSH1 0x0 PUSH2 0x3612 PUSH1 0x1D DUP4 PUSH2 0x3C6F JUMP JUMPDEST SWAP2 POP PUSH2 0x361D DUP3 PUSH2 0x433F JUMP JUMPDEST PUSH1 0x20 DUP3 ADD SWAP1 POP SWAP2 SWAP1 POP JUMP JUMPDEST PUSH1 0x0 PUSH2 0x3635 PUSH1 0x38 DUP4 PUSH2 0x3C6F JUMP JUMPDEST SWAP2 POP PUSH2 0x3640 DUP3 PUSH2 0x4368 JUMP JUMPDEST PUSH1 0x40 DUP3 ADD SWAP1 POP SWAP2 SWAP1 POP JUMP JUMPDEST PUSH1 0x0 PUSH2 0x3658 PUSH1 0x2A DUP4 PUSH2 0x3C6F JUMP JUMPDEST SWAP2 POP PUSH2 0x3663 DUP3 PUSH2 0x43B7 JUMP JUMPDEST PUSH1 0x40 DUP3 ADD SWAP1 POP SWAP2 SWAP1 POP JUMP JUMPDEST PUSH1 0x0 PUSH2 0x367B PUSH1 0x29 DUP4 PUSH2 0x3C6F JUMP JUMPDEST SWAP2 POP PUSH2 0x3686 DUP3 PUSH2 0x4406 JUMP JUMPDEST PUSH1 0x40 DUP3 ADD SWAP1 POP SWAP2 SWAP1 POP JUMP JUMPDEST PUSH1 0x0 PUSH2 0x369E PUSH1 0x20 DUP4 PUSH2 0x3C6F JUMP JUMPDEST SWAP2 POP PUSH2 0x36A9 DUP3 PUSH2 0x4455 JUMP JUMPDEST PUSH1 0x20 DUP3 ADD SWAP1 POP SWAP2 SWAP1 POP JUMP JUMPDEST PUSH1 0x0 PUSH2 0x36C1 PUSH1 0x2C DUP4 PUSH2 0x3C6F JUMP JUMPDEST SWAP2 POP PUSH2 0x36CC DUP3 PUSH2 0x447E JUMP JUMPDEST PUSH1 0x40 DUP3 ADD SWAP1 POP SWAP2 SWAP1 POP JUMP JUMPDEST PUSH1 0x0 PUSH2 0x36E4 PUSH1 0x20 DUP4 PUSH2 0x3C6F JUMP JUMPDEST SWAP2 POP PUSH2 0x36EF DUP3 PUSH2 0x44CD JUMP JUMPDEST PUSH1 0x20 DUP3 ADD SWAP1 POP SWAP2 SWAP1 POP JUMP JUMPDEST PUSH1 0x0 PUSH2 0x3707 PUSH1 0x2F DUP4 PUSH2 0x3C6F JUMP JUMPDEST SWAP2 POP PUSH2 0x3712 DUP3 PUSH2 0x44F6 JUMP JUMPDEST PUSH1 0x40 DUP3 ADD SWAP1 POP SWAP2 SWAP1 POP JUMP JUMPDEST PUSH1 0x0 PUSH2 0x372A PUSH1 0x21 DUP4 PUSH2 0x3C6F JUMP JUMPDEST SWAP2 POP PUSH2 0x3735 DUP3 PUSH2 0x4545 JUMP JUMPDEST PUSH1 0x40 DUP3 ADD SWAP1 POP SWAP2 SWAP1 POP JUMP JUMPDEST PUSH1 0x0 PUSH2 0x374D PUSH1 0x31 DUP4 PUSH2 0x3C6F JUMP JUMPDEST SWAP2 POP PUSH2 0x3758 DUP3 PUSH2 0x4594 JUMP JUMPDEST PUSH1 0x40 DUP3 ADD SWAP1 POP SWAP2 SWAP1 POP JUMP JUMPDEST PUSH1 0x0 PUSH2 0x3770 PUSH1 0x2C DUP4 PUSH2 0x3C6F JUMP JUMPDEST SWAP2 POP PUSH2 0x377B DUP3 PUSH2 0x45E3 JUMP JUMPDEST PUSH1 0x40 DUP3 ADD SWAP1 POP SWAP2 SWAP1 POP JUMP JUMPDEST PUSH1 0x0 PUSH2 0x3793 PUSH1 0x15 DUP4 PUSH2 0x3C6F JUMP JUMPDEST SWAP2 POP PUSH2 0x379E DUP3 PUSH2 0x4632 JUMP JUMPDEST PUSH1 0x20 DUP3 ADD SWAP1 POP SWAP2 SWAP1 POP JUMP JUMPDEST PUSH2 0x37B2 DUP2 PUSH2 0x3E0A JUMP JUMPDEST DUP3 MSTORE POP POP JUMP JUMPDEST PUSH1 0x0 PUSH2 0x37C4 DUP3 DUP6 PUSH2 0x33D4 JUMP JUMPDEST SWAP2 POP PUSH2 0x37D0 DUP3 DUP5 PUSH2 0x33D4 JUMP JUMPDEST SWAP2 POP DUP2 SWAP1 POP SWAP4 SWAP3 POP POP POP JUMP JUMPDEST PUSH1 0x0 PUSH2 0x37E8 DUP3 DUP7 PUSH2 0x33D4 JUMP JUMPDEST SWAP2 POP PUSH2 0x37F4 DUP3 DUP6 PUSH2 0x33D4 JUMP JUMPDEST SWAP2 POP PUSH2 0x3800 DUP3 DUP5 PUSH2 0x3405 JUMP JUMPDEST SWAP2 POP DUP2 SWAP1 POP SWAP5 SWAP4 POP POP POP POP JUMP JUMPDEST PUSH1 0x0 PUSH1 0x20 DUP3 ADD SWAP1 POP PUSH2 0x3822 PUSH1 0x0 DUP4 ADD DUP5 PUSH2 0x3344 JUMP JUMPDEST SWAP3 SWAP2 POP POP JUMP JUMPDEST PUSH1 0x0 PUSH1 0x80 DUP3 ADD SWAP1 POP PUSH2 0x383D PUSH1 0x0 DUP4 ADD DUP8 PUSH2 0x3344 JUMP JUMPDEST PUSH2 0x384A PUSH1 0x20 DUP4 ADD DUP7 PUSH2 0x3344 JUMP JUMPDEST PUSH2 0x3857 PUSH1 0x40 DUP4 ADD DUP6 PUSH2 0x37A9 JUMP JUMPDEST DUP2 DUP2 SUB PUSH1 0x60 DUP4 ADD MSTORE PUSH2 0x3869 DUP2 DUP5 PUSH2 0x3362 JUMP JUMPDEST SWAP1 POP SWAP6 SWAP5 POP POP POP POP POP JUMP JUMPDEST PUSH1 0x0 PUSH1 0x20 DUP3 ADD SWAP1 POP PUSH2 0x3889 PUSH1 0x0 DUP4 ADD DUP5 PUSH2 0x3353 JUMP JUMPDEST SWAP3 SWAP2 POP POP JUMP JUMPDEST PUSH1 0x0 PUSH1 0x20 DUP3 ADD SWAP1 POP DUP2 DUP2 SUB PUSH1 0x0 DUP4 ADD MSTORE PUSH2 0x38A9 DUP2 DUP5 PUSH2 0x339B JUMP JUMPDEST SWAP1 POP SWAP3 SWAP2 POP POP JUMP JUMPDEST PUSH1 0x0 PUSH1 0x20 DUP3 ADD SWAP1 POP DUP2 DUP2 SUB PUSH1 0x0 DUP4 ADD MSTORE PUSH2 0x38CA DUP2 PUSH2 0x3484 JUMP JUMPDEST SWAP1 POP SWAP2 SWAP1 POP JUMP JUMPDEST PUSH1 0x0 PUSH1 0x20 DUP3 ADD SWAP1 POP DUP2 DUP2 SUB PUSH1 0x0 DUP4 ADD MSTORE PUSH2 0x38EA DUP2 PUSH2 0x34A7 JUMP JUMPDEST SWAP1 POP SWAP2 SWAP1 POP JUMP JUMPDEST PUSH1 0x0 PUSH1 0x20 DUP3 ADD SWAP1 POP DUP2 DUP2 SUB PUSH1 0x0 DUP4 ADD MSTORE PUSH2 0x390A DUP2 PUSH2 0x34CA JUMP JUMPDEST SWAP1 POP SWAP2 SWAP1 POP JUMP JUMPDEST PUSH1 0x0 PUSH1 0x20 DUP3 ADD SWAP1 POP DUP2 DUP2 SUB PUSH1 0x0 DUP4 ADD MSTORE PUSH2 0x392A DUP2 PUSH2 0x34ED JUMP JUMPDEST SWAP1 POP SWAP2 SWAP1 POP JUMP JUMPDEST PUSH1 0x0 PUSH1 0x20 DUP3 ADD SWAP1 POP DUP2 DUP2 SUB PUSH1 0x0 DUP4 ADD MSTORE PUSH2 0x394A DUP2 PUSH2 0x3510 JUMP JUMPDEST SWAP1 POP SWAP2 SWAP1 POP JUMP JUMPDEST PUSH1 0x0 PUSH1 0x20 DUP3 ADD SWAP1 POP DUP2 DUP2 SUB PUSH1 0x0 DUP4 ADD MSTORE PUSH2 0x396A DUP2 PUSH2 0x3533 JUMP JUMPDEST SWAP1 POP SWAP2 SWAP1 POP JUMP JUMPDEST PUSH1 0x0 PUSH1 0x20 DUP3 ADD SWAP1 POP DUP2 DUP2 SUB PUSH1 0x0 DUP4 ADD MSTORE PUSH2 0x398A DUP2 PUSH2 0x3556 JUMP JUMPDEST SWAP1 POP SWAP2 SWAP1 POP JUMP JUMPDEST PUSH1 0x0 PUSH1 0x20 DUP3 ADD SWAP1 POP DUP2 DUP2 SUB PUSH1 0x0 DUP4 ADD MSTORE PUSH2 0x39AA DUP2 PUSH2 0x3579 JUMP JUMPDEST SWAP1 POP SWAP2 SWAP1 POP JUMP JUMPDEST PUSH1 0x0 PUSH1 0x20 DUP3 ADD SWAP1 POP DUP2 DUP2 SUB PUSH1 0x0 DUP4 ADD MSTORE PUSH2 0x39CA DUP2 PUSH2 0x359C JUMP JUMPDEST SWAP1 POP SWAP2 SWAP1 POP JUMP JUMPDEST PUSH1 0x0 PUSH1 0x20 DUP3 ADD SWAP1 POP DUP2 DUP2 SUB PUSH1 0x0 DUP4 ADD MSTORE PUSH2 0x39EA DUP2 PUSH2 0x35BF JUMP JUMPDEST SWAP1 POP SWAP2 SWAP1 POP JUMP JUMPDEST PUSH1 0x0 PUSH1 0x20 DUP3 ADD SWAP1 POP DUP2 DUP2 SUB PUSH1 0x0 DUP4 ADD MSTORE PUSH2 0x3A0A DUP2 PUSH2 0x35E2 JUMP JUMPDEST SWAP1 POP SWAP2 SWAP1 POP JUMP JUMPDEST PUSH1 0x0 PUSH1 0x20 DUP3 ADD SWAP1 POP DUP2 DUP2 SUB PUSH1 0x0 DUP4 ADD MSTORE PUSH2 0x3A2A DUP2 PUSH2 0x3605 JUMP JUMPDEST SWAP1 POP SWAP2 SWAP1 POP JUMP JUMPDEST PUSH1 0x0 PUSH1 0x20 DUP3 ADD SWAP1 POP DUP2 DUP2 SUB PUSH1 0x0 DUP4 ADD MSTORE PUSH2 0x3A4A DUP2 PUSH2 0x3628 JUMP JUMPDEST SWAP1 POP SWAP2 SWAP1 POP JUMP JUMPDEST PUSH1 0x0 PUSH1 0x20 DUP3 ADD SWAP1 POP DUP2 DUP2 SUB PUSH1 0x0 DUP4 ADD MSTORE PUSH2 0x3A6A DUP2 PUSH2 0x364B JUMP JUMPDEST SWAP1 POP SWAP2 SWAP1 POP JUMP JUMPDEST PUSH1 0x0 PUSH1 0x20 DUP3 ADD SWAP1 POP DUP2 DUP2 SUB PUSH1 0x0 DUP4 ADD MSTORE PUSH2 0x3A8A DUP2 PUSH2 0x366E JUMP JUMPDEST SWAP1 POP SWAP2 SWAP1 POP JUMP JUMPDEST PUSH1 0x0 PUSH1 0x20 DUP3 ADD SWAP1 POP DUP2 DUP2 SUB PUSH1 0x0 DUP4 ADD MSTORE PUSH2 0x3AAA DUP2 PUSH2 0x3691 JUMP JUMPDEST SWAP1 POP SWAP2 SWAP1 POP JUMP JUMPDEST PUSH1 0x0 PUSH1 0x20 DUP3 ADD SWAP1 POP DUP2 DUP2 SUB PUSH1 0x0 DUP4 ADD MSTORE PUSH2 0x3ACA DUP2 PUSH2 0x36B4 JUMP JUMPDEST SWAP1 POP SWAP2 SWAP1 POP JUMP JUMPDEST PUSH1 0x0 PUSH1 0x20 DUP3 ADD SWAP1 POP DUP2 DUP2 SUB PUSH1 0x0 DUP4 ADD MSTORE PUSH2 0x3AEA DUP2 PUSH2 0x36D7 JUMP JUMPDEST SWAP1 POP SWAP2 SWAP1 POP JUMP JUMPDEST PUSH1 0x0 PUSH1 0x20 DUP3 ADD SWAP1 POP DUP2 DUP2 SUB PUSH1 0x0 DUP4 ADD MSTORE PUSH2 0x3B0A DUP2 PUSH2 0x36FA JUMP JUMPDEST SWAP1 POP SWAP2 SWAP1 POP JUMP JUMPDEST PUSH1 0x0 PUSH1 0x20 DUP3 ADD SWAP1 POP DUP2 DUP2 SUB PUSH1 0x0 DUP4 ADD MSTORE PUSH2 0x3B2A DUP2 PUSH2 0x371D JUMP JUMPDEST SWAP1 POP SWAP2 SWAP1 POP JUMP JUMPDEST PUSH1 0x0 PUSH1 0x20 DUP3 ADD SWAP1 POP DUP2 DUP2 SUB PUSH1 0x0 DUP4 ADD MSTORE PUSH2 0x3B4A DUP2 PUSH2 0x3740 JUMP JUMPDEST SWAP1 POP SWAP2 SWAP1 POP JUMP JUMPDEST PUSH1 0x0 PUSH1 0x20 DUP3 ADD SWAP1 POP DUP2 DUP2 SUB PUSH1 0x0 DUP4 ADD MSTORE PUSH2 0x3B6A DUP2 PUSH2 0x3763 JUMP JUMPDEST SWAP1 POP SWAP2 SWAP1 POP JUMP JUMPDEST PUSH1 0x0 PUSH1 0x20 DUP3 ADD SWAP1 POP DUP2 DUP2 SUB PUSH1 0x0 DUP4 ADD MSTORE PUSH2 0x3B8A DUP2 PUSH2 0x3786 JUMP JUMPDEST SWAP1 POP SWAP2 SWAP1 POP JUMP JUMPDEST PUSH1 0x0 PUSH1 0x20 DUP3 ADD SWAP1 POP PUSH2 0x3BA6 PUSH1 0x0 DUP4 ADD DUP5 PUSH2 0x37A9 JUMP JUMPDEST SWAP3 SWAP2 POP POP JUMP JUMPDEST PUSH1 0x0 PUSH2 0x3BB6 PUSH2 0x3BC7 JUMP JUMPDEST SWAP1 POP PUSH2 0x3BC2 DUP3 DUP3 PUSH2 0x3E88 JUMP JUMPDEST SWAP2 SWAP1 POP JUMP JUMPDEST PUSH1 0x0 PUSH1 0x40 MLOAD SWAP1 POP SWAP1 JUMP JUMPDEST PUSH1 0x0 PUSH8 0xFFFFFFFFFFFFFFFF DUP3 GT ISZERO PUSH2 0x3BEC JUMPI PUSH2 0x3BEB PUSH2 0x401E JUMP JUMPDEST JUMPDEST PUSH2 0x3BF5 DUP3 PUSH2 0x4061 JUMP JUMPDEST SWAP1 POP PUSH1 0x20 DUP2 ADD SWAP1 POP SWAP2 SWAP1 POP JUMP JUMPDEST PUSH1 0x0 PUSH8 0xFFFFFFFFFFFFFFFF DUP3 GT ISZERO PUSH2 0x3C1D JUMPI PUSH2 0x3C1C PUSH2 0x401E JUMP JUMPDEST JUMPDEST PUSH2 0x3C26 DUP3 PUSH2 0x4061 JUMP JUMPDEST SWAP1 POP PUSH1 0x20 DUP2 ADD SWAP1 POP SWAP2 SWAP1 POP JUMP JUMPDEST PUSH1 0x0 DUP2 SWAP1 POP DUP2 PUSH1 0x0 MSTORE PUSH1 0x20 PUSH1 0x0 KECCAK256 SWAP1 POP SWAP2 SWAP1 POP JUMP JUMPDEST PUSH1 0x0 DUP2 MLOAD SWAP1 POP SWAP2 SWAP1 POP JUMP JUMPDEST PUSH1 0x0 DUP2 MLOAD SWAP1 POP SWAP2 SWAP1 POP JUMP JUMPDEST PUSH1 0x0 DUP3 DUP3 MSTORE PUSH1 0x20 DUP3 ADD SWAP1 POP SWAP3 SWAP2 POP POP JUMP JUMPDEST PUSH1 0x0 DUP3 DUP3 MSTORE PUSH1 0x20 DUP3 ADD SWAP1 POP SWAP3 SWAP2 POP POP JUMP JUMPDEST PUSH1 0x0 DUP2 SWAP1 POP SWAP3 SWAP2 POP POP JUMP JUMPDEST PUSH1 0x0 PUSH2 0x3C96 DUP3 PUSH2 0x3E0A JUMP JUMPDEST SWAP2 POP PUSH2 0x3CA1 DUP4 PUSH2 0x3E0A JUMP JUMPDEST SWAP3 POP DUP3 PUSH32 0xFFFFFFFFFFFFFFFFFFFFFFFFFFFFFFFFFFFFFFFFFFFFFFFFFFFFFFFFFFFFFFFF SUB DUP3 GT ISZERO PUSH2 0x3CD6 JUMPI PUSH2 0x3CD5 PUSH2 0x3F33 JUMP JUMPDEST JUMPDEST DUP3 DUP3 ADD SWAP1 POP SWAP3 SWAP2 POP POP JUMP JUMPDEST PUSH1 0x0 PUSH2 0x3CEC DUP3 PUSH2 0x3E0A JUMP JUMPDEST SWAP2 POP PUSH2 0x3CF7 DUP4 PUSH2 0x3E0A JUMP JUMPDEST SWAP3 POP DUP3 PUSH2 0x3D07 JUMPI PUSH2 0x3D06 PUSH2 0x3F62 JUMP JUMPDEST JUMPDEST DUP3 DUP3 DIV SWAP1 POP SWAP3 SWAP2 POP POP JUMP JUMPDEST PUSH1 0x0 PUSH2 0x3D1D DUP3 PUSH2 0x3E0A JUMP JUMPDEST SWAP2 POP PUSH2 0x3D28 DUP4 PUSH2 0x3E0A JUMP JUMPDEST SWAP3 POP DUP2 PUSH32 0xFFFFFFFFFFFFFFFFFFFFFFFFFFFFFFFFFFFFFFFFFFFFFFFFFFFFFFFFFFFFFFFF DIV DUP4 GT DUP3 ISZERO ISZERO AND ISZERO PUSH2 0x3D61 JUMPI PUSH2 0x3D60 PUSH2 0x3F33 JUMP JUMPDEST JUMPDEST DUP3 DUP3 MUL SWAP1 POP SWAP3 SWAP2 POP POP JUMP JUMPDEST PUSH1 0x0 PUSH2 0x3D77 DUP3 PUSH2 0x3E0A JUMP JUMPDEST SWAP2 POP PUSH2 0x3D82 DUP4 PUSH2 0x3E0A JUMP JUMPDEST SWAP3 POP DUP3 DUP3 LT ISZERO PUSH2 0x3D95 JUMPI PUSH2 0x3D94 PUSH2 0x3F33 JUMP JUMPDEST JUMPDEST DUP3 DUP3 SUB SWAP1 POP SWAP3 SWAP2 POP POP JUMP JUMPDEST PUSH1 0x0 PUSH2 0x3DAB DUP3 PUSH2 0x3DEA JUMP JUMPDEST SWAP1 POP SWAP2 SWAP1 POP JUMP JUMPDEST PUSH1 0x0 DUP2 ISZERO ISZERO SWAP1 POP SWAP2 SWAP1 POP JUMP JUMPDEST PUSH1 0x0 PUSH32 0xFFFFFFFF00000000000000000000000000000000000000000000000000000000 DUP3 AND SWAP1 POP SWAP2 SWAP1 POP JUMP JUMPDEST PUSH1 0x0 PUSH20 0xFFFFFFFFFFFFFFFFFFFFFFFFFFFFFFFFFFFFFFFF DUP3 AND SWAP1 POP SWAP2 SWAP1 POP JUMP JUMPDEST PUSH1 0x0 DUP2 SWAP1 POP SWAP2 SWAP1 POP JUMP JUMPDEST DUP3 DUP2 DUP4 CALLDATACOPY PUSH1 0x0 DUP4 DUP4 ADD MSTORE POP POP POP JUMP JUMPDEST PUSH1 0x0 JUMPDEST DUP4 DUP2 LT ISZERO PUSH2 0x3E41 JUMPI DUP1 DUP3 ADD MLOAD DUP2 DUP5 ADD MSTORE PUSH1 0x20 DUP2 ADD SWAP1 POP PUSH2 0x3E26 JUMP JUMPDEST DUP4 DUP2 GT ISZERO PUSH2 0x3E50 JUMPI PUSH1 0x0 DUP5 DUP5 ADD MSTORE JUMPDEST POP POP POP POP JUMP JUMPDEST PUSH1 0x0 PUSH1 0x2 DUP3 DIV SWAP1 POP PUSH1 0x1 DUP3 AND DUP1 PUSH2 0x3E6E JUMPI PUSH1 0x7F DUP3 AND SWAP2 POP JUMPDEST PUSH1 0x20 DUP3 LT DUP2 EQ ISZERO PUSH2 0x3E82 JUMPI PUSH2 0x3E81 PUSH2 0x3F91 JUMP JUMPDEST JUMPDEST POP SWAP2 SWAP1 POP JUMP JUMPDEST PUSH2 0x3E91 DUP3 PUSH2 0x4061 JUMP JUMPDEST DUP2 ADD DUP2 DUP2 LT PUSH8 0xFFFFFFFFFFFFFFFF DUP3 GT OR ISZERO PUSH2 0x3EB0 JUMPI PUSH2 0x3EAF PUSH2 0x401E JUMP JUMPDEST JUMPDEST DUP1 PUSH1 0x40 MSTORE POP POP POP JUMP JUMPDEST PUSH1 0x0 PUSH2 0x3EC4 DUP3 PUSH2 0x3E0A JUMP JUMPDEST SWAP2 POP PUSH32 0xFFFFFFFFFFFFFFFFFFFFFFFFFFFFFFFFFFFFFFFFFFFFFFFFFFFFFFFFFFFFFFFF DUP3 EQ ISZERO PUSH2 0x3EF7 JUMPI PUSH2 0x3EF6 PUSH2 0x3F33 JUMP JUMPDEST JUMPDEST PUSH1 0x1 DUP3 ADD SWAP1 POP SWAP2 SWAP1 POP JUMP JUMPDEST PUSH1 0x0 PUSH2 0x3F0D DUP3 PUSH2 0x3E0A JUMP JUMPDEST SWAP2 POP PUSH2 0x3F18 DUP4 PUSH2 0x3E0A JUMP JUMPDEST SWAP3 POP DUP3 PUSH2 0x3F28 JUMPI PUSH2 0x3F27 PUSH2 0x3F62 JUMP JUMPDEST JUMPDEST DUP3 DUP3 MOD SWAP1 POP SWAP3 SWAP2 POP POP JUMP JUMPDEST PUSH32 0x4E487B7100000000000000000000000000000000000000000000000000000000 PUSH1 0x0 MSTORE PUSH1 0x11 PUSH1 0x4 MSTORE PUSH1 0x24 PUSH1 0x0 REVERT JUMPDEST PUSH32 0x4E487B7100000000000000000000000000000000000000000000000000000000 PUSH1 0x0 MSTORE PUSH1 0x12 PUSH1 0x4 MSTORE PUSH1 0x24 PUSH1 0x0 REVERT JUMPDEST PUSH32 0x4E487B7100000000000000000000000000000000000000000000000000000000 PUSH1 0x0 MSTORE PUSH1 0x22 PUSH1 0x4 MSTORE PUSH1 0x24 PUSH1 0x0 REVERT JUMPDEST PUSH32 0x4E487B7100000000000000000000000000000000000000000000000000000000 PUSH1 0x0 MSTORE PUSH1 0x31 PUSH1 0x4 MSTORE PUSH1 0x24 PUSH1 0x0 REVERT JUMPDEST PUSH32 0x4E487B7100000000000000000000000000000000000000000000000000000000 PUSH1 0x0 MSTORE PUSH1 0x32 PUSH1 0x4 MSTORE PUSH1 0x24 PUSH1 0x0 REVERT JUMPDEST PUSH32 0x4E487B7100000000000000000000000000000000000000000000000000000000 PUSH1 0x0 MSTORE PUSH1 0x41 PUSH1 0x4 MSTORE PUSH1 0x24 PUSH1 0x0 REVERT JUMPDEST PUSH1 0x0 DUP1 REVERT JUMPDEST PUSH1 0x0 DUP1 REVERT JUMPDEST PUSH1 0x0 DUP1 REVERT JUMPDEST PUSH1 0x0 DUP1 REVERT JUMPDEST PUSH1 0x0 PUSH1 0x1F NOT PUSH1 0x1F DUP4 ADD AND SWAP1 POP SWAP2 SWAP1 POP JUMP JUMPDEST PUSH32 0x53616C65206D7573742062652061637469766520746F206D696E74204B656974 PUSH1 0x0 DUP3 ADD MSTORE PUSH32 0x684D657461730000000000000000000000000000000000000000000000000000 PUSH1 0x20 DUP3 ADD MSTORE POP JUMP JUMPDEST PUSH32 0x455243373231456E756D657261626C653A206F776E657220696E646578206F75 PUSH1 0x0 DUP3 ADD MSTORE PUSH32 0x74206F6620626F756E6473000000000000000000000000000000000000000000 PUSH1 0x20 DUP3 ADD MSTORE POP JUMP JUMPDEST PUSH32 0x4552433732313A207472616E7366657220746F206E6F6E204552433732315265 PUSH1 0x0 DUP3 ADD MSTORE PUSH32 0x63656976657220696D706C656D656E7465720000000000000000000000000000 PUSH1 0x20 DUP3 ADD MSTORE POP JUMP JUMPDEST PUSH32 0x4F776E61626C653A206E6577206F776E657220697320746865207A65726F2061 PUSH1 0x0 DUP3 ADD MSTORE PUSH32 0x6464726573730000000000000000000000000000000000000000000000000000 PUSH1 0x20 DUP3 ADD MSTORE POP JUMP JUMPDEST PUSH32 0x4552433732313A207472616E736665722066726F6D20696E636F727265637420 PUSH1 0x0 DUP3 ADD MSTORE PUSH32 0x6F776E6572000000000000000000000000000000000000000000000000000000 PUSH1 0x20 DUP3 ADD MSTORE POP JUMP JUMPDEST PUSH32 0x4552433732313A20746F6B656E20616C7265616479206D696E74656400000000 PUSH1 0x0 DUP3 ADD MSTORE POP JUMP JUMPDEST PUSH32 0x53616C6520776F756C6420657863656564206D617820737570706C7900000000 PUSH1 0x0 DUP3 ADD MSTORE POP JUMP JUMPDEST PUSH32 0x4552433732313A207472616E7366657220746F20746865207A65726F20616464 PUSH1 0x0 DUP3 ADD MSTORE PUSH32 0x7265737300000000000000000000000000000000000000000000000000000000 PUSH1 0x20 DUP3 ADD MSTORE POP JUMP JUMPDEST PUSH32 0x4552433732313A20617070726F766520746F2063616C6C657200000000000000 PUSH1 0x0 DUP3 ADD MSTORE POP JUMP JUMPDEST PUSH32 0x4552433732313A206F70657261746F7220717565727920666F72206E6F6E6578 PUSH1 0x0 DUP3 ADD MSTORE PUSH32 0x697374656E7420746F6B656E0000000000000000000000000000000000000000 PUSH1 0x20 DUP3 ADD MSTORE POP JUMP JUMPDEST PUSH32 0x43616E206F6E6C79206D696E74203120746F6B656E7320617420612074696D65 PUSH1 0x0 DUP3 ADD MSTORE POP JUMP JUMPDEST PUSH32 0x53616C6520776F756C6420657863656564206D61782062616C616E6365000000 PUSH1 0x0 DUP3 ADD MSTORE POP JUMP JUMPDEST PUSH32 0x4552433732313A20617070726F76652063616C6C6572206973206E6F74206F77 PUSH1 0x0 DUP3 ADD MSTORE PUSH32 0x6E6572206E6F7220617070726F76656420666F7220616C6C0000000000000000 PUSH1 0x20 DUP3 ADD MSTORE POP JUMP JUMPDEST PUSH32 0x4552433732313A2062616C616E636520717565727920666F7220746865207A65 PUSH1 0x0 DUP3 ADD MSTORE PUSH32 0x726F206164647265737300000000000000000000000000000000000000000000 PUSH1 0x20 DUP3 ADD MSTORE POP JUMP JUMPDEST PUSH32 0x4552433732313A206F776E657220717565727920666F72206E6F6E6578697374 PUSH1 0x0 DUP3 ADD MSTORE PUSH32 0x656E7420746F6B656E0000000000000000000000000000000000000000000000 PUSH1 0x20 DUP3 ADD MSTORE POP JUMP JUMPDEST PUSH32 0x4552433732313A206D696E7420746F20746865207A65726F2061646472657373 PUSH1 0x0 DUP3 ADD MSTORE POP JUMP JUMPDEST PUSH32 0x4552433732313A20617070726F76656420717565727920666F72206E6F6E6578 PUSH1 0x0 DUP3 ADD MSTORE PUSH32 0x697374656E7420746F6B656E0000000000000000000000000000000000000000 PUSH1 0x20 DUP3 ADD MSTORE POP JUMP JUMPDEST PUSH32 0x4F776E61626C653A2063616C6C6572206973206E6F7420746865206F776E6572 PUSH1 0x0 DUP3 ADD MSTORE POP JUMP JUMPDEST PUSH32 0x4552433732314D657461646174613A2055524920717565727920666F72206E6F PUSH1 0x0 DUP3 ADD MSTORE PUSH32 0x6E6578697374656E7420746F6B656E0000000000000000000000000000000000 PUSH1 0x20 DUP3 ADD MSTORE POP JUMP JUMPDEST PUSH32 0x4552433732313A20617070726F76616C20746F2063757272656E74206F776E65 PUSH1 0x0 DUP3 ADD MSTORE PUSH32 0x7200000000000000000000000000000000000000000000000000000000000000 PUSH1 0x20 DUP3 ADD MSTORE POP JUMP JUMPDEST PUSH32 0x4552433732313A207472616E736665722063616C6C6572206973206E6F74206F PUSH1 0x0 DUP3 ADD MSTORE PUSH32 0x776E6572206E6F7220617070726F766564000000000000000000000000000000 PUSH1 0x20 DUP3 ADD MSTORE POP JUMP JUMPDEST PUSH32 0x455243373231456E756D657261626C653A20676C6F62616C20696E646578206F PUSH1 0x0 DUP3 ADD MSTORE PUSH32 0x7574206F6620626F756E64730000000000000000000000000000000000000000 PUSH1 0x20 DUP3 ADD MSTORE POP JUMP JUMPDEST PUSH32 0x4E6F7420656E6F7567682065746865722073656E740000000000000000000000 PUSH1 0x0 DUP3 ADD MSTORE POP JUMP JUMPDEST PUSH2 0x4664 DUP2 PUSH2 0x3DA0 JUMP JUMPDEST DUP2 EQ PUSH2 0x466F JUMPI PUSH1 0x0 DUP1 REVERT JUMPDEST POP JUMP JUMPDEST PUSH2 0x467B DUP2 PUSH2 0x3DB2 JUMP JUMPDEST DUP2 EQ PUSH2 0x4686 JUMPI PUSH1 0x0 DUP1 REVERT JUMPDEST POP JUMP JUMPDEST PUSH2 0x4692 DUP2 PUSH2 0x3DBE JUMP JUMPDEST DUP2 EQ PUSH2 0x469D JUMPI PUSH1 0x0 DUP1 REVERT JUMPDEST POP JUMP JUMPDEST PUSH2 0x46A9 DUP2 PUSH2 0x3E0A JUMP JUMPDEST DUP2 EQ PUSH2 0x46B4 JUMPI PUSH1 0x0 DUP1 REVERT JUMPDEST POP JUMP INVALID LOG2 PUSH5 0x6970667358 0x22 SLT KECCAK256 BLOCKHASH 0xE7 DUP8 PUSH12 0x5DC6CF1A02DBDAFCE6F70AE4 0x2B 0xEB PUSH7 0x98E8635176AD0A RETURN PUSH29 0x406AF98364736F6C634300080700330000000000000000000000000000 "
		},
		"gasEstimates": {
			"creation": {
				"codeDepositCost": "3631400",
				"executionCost": "infinite",
				"totalCost": "infinite"
			},
			"external": {
				"MAX_SUPPLY()": "463",
				"_isSaleActive()": "2567",
				"_revealed()": "2654",
				"approve(address,uint256)": "infinite",
				"balanceOf(address)": "2947",
				"baseExtension()": "infinite",
				"flipReveal()": "28936",
				"flipSaleActive()": "29023",
				"getApproved(uint256)": "5251",
				"isApprovedForAll(address,address)": "infinite",
				"maxBalance()": "2541",
				"maxMint()": "2474",
				"mintKeithMeta(uint256)": "infinite",
				"mintPrice()": "2540",
				"name()": "infinite",
				"notRevealedUri()": "infinite",
				"owner()": "2589",
				"ownerOf(uint256)": "3066",
				"renounceOwnership()": "30464",
				"safeTransferFrom(address,address,uint256)": "infinite",
				"safeTransferFrom(address,address,uint256,bytes)": "infinite",
				"setApprovalForAll(address,bool)": "infinite",
				"setBaseExtension(string)": "infinite",
				"setBaseURI(string)": "infinite",
				"setMaxBalance(uint256)": "24871",
				"setMaxMint(uint256)": "24805",
				"setMintPrice(uint256)": "24870",
				"setNotRevealedURI(string)": "infinite",
				"supportsInterface(bytes4)": "909",
				"symbol()": "infinite",
				"tokenByIndex(uint256)": "infinite",
				"tokenOfOwnerByIndex(address,uint256)": "infinite",
				"tokenURI(uint256)": "infinite",
				"totalSupply()": "2513",
				"transferFrom(address,address,uint256)": "infinite",
				"transferOwnership(address)": "30811",
				"withdraw(address)": "infinite"
			},
			"internal": {
				"_baseURI()": "infinite",
				"_mintKeithMeta(uint256)": "infinite"
			}
		},
		"methodIdentifiers": {
			"MAX_SUPPLY()": "32cb6b0c",
			"_isSaleActive()": "7080d6fc",
			"_revealed()": "6ebeac85",
			"approve(address,uint256)": "095ea7b3",
			"balanceOf(address)": "70a08231",
			"baseExtension()": "c6682862",
			"flipReveal()": "3b84d9c6",
			"flipSaleActive()": "de8b51e1",
			"getApproved(uint256)": "081812fc",
			"isApprovedForAll(address,address)": "e985e9c5",
			"maxBalance()": "73ad468a",
			"maxMint()": "7501f741",
			"mintKeithMeta(uint256)": "f8129892",
			"mintPrice()": "6817c76c",
			"name()": "06fdde03",
			"notRevealedUri()": "081c8c44",
			"owner()": "8da5cb5b",
			"ownerOf(uint256)": "6352211e",
			"renounceOwnership()": "715018a6",
			"safeTransferFrom(address,address,uint256)": "42842e0e",
			"safeTransferFrom(address,address,uint256,bytes)": "b88d4fde",
			"setApprovalForAll(address,bool)": "a22cb465",
			"setBaseExtension(string)": "da3ef23f",
			"setBaseURI(string)": "55f804b3",
			"setMaxBalance(uint256)": "9d51d9b7",
			"setMaxMint(uint256)": "547520fe",
			"setMintPrice(uint256)": "f4a0a528",
			"setNotRevealedURI(string)": "f2c4ce1e",
			"supportsInterface(bytes4)": "01ffc9a7",
			"symbol()": "95d89b41",
			"tokenByIndex(uint256)": "4f6ccce7",
			"tokenOfOwnerByIndex(address,uint256)": "2f745c59",
			"tokenURI(uint256)": "c87b56dd",
			"totalSupply()": "18160ddd",
			"transferFrom(address,address,uint256)": "23b872dd",
			"transferOwnership(address)": "f2fde38b",
			"withdraw(address)": "51cff8d9"
		}
	},
	"abi": [
		{
			"inputs": [
				{
					"internalType": "string",
					"name": "initBaseURI",
					"type": "string"
				},
				{
					"internalType": "string",
					"name": "initNotRevealedUri",
					"type": "string"
				}
			],
			"stateMutability": "nonpayable",
			"type": "constructor"
		},
		{
			"anonymous": false,
			"inputs": [
				{
					"indexed": true,
					"internalType": "address",
					"name": "owner",
					"type": "address"
				},
				{
					"indexed": true,
					"internalType": "address",
					"name": "approved",
					"type": "address"
				},
				{
					"indexed": true,
					"internalType": "uint256",
					"name": "tokenId",
					"type": "uint256"
				}
			],
			"name": "Approval",
			"type": "event"
		},
		{
			"anonymous": false,
			"inputs": [
				{
					"indexed": true,
					"internalType": "address",
					"name": "owner",
					"type": "address"
				},
				{
					"indexed": true,
					"internalType": "address",
					"name": "operator",
					"type": "address"
				},
				{
					"indexed": false,
					"internalType": "bool",
					"name": "approved",
					"type": "bool"
				}
			],
			"name": "ApprovalForAll",
			"type": "event"
		},
		{
			"anonymous": false,
			"inputs": [
				{
					"indexed": true,
					"internalType": "address",
					"name": "previousOwner",
					"type": "address"
				},
				{
					"indexed": true,
					"internalType": "address",
					"name": "newOwner",
					"type": "address"
				}
			],
			"name": "OwnershipTransferred",
			"type": "event"
		},
		{
			"anonymous": false,
			"inputs": [
				{
					"indexed": true,
					"internalType": "address",
					"name": "from",
					"type": "address"
				},
				{
					"indexed": true,
					"internalType": "address",
					"name": "to",
					"type": "address"
				},
				{
					"indexed": true,
					"internalType": "uint256",
					"name": "tokenId",
					"type": "uint256"
				}
			],
			"name": "Transfer",
			"type": "event"
		},
		{
			"inputs": [],
			"name": "MAX_SUPPLY",
			"outputs": [
				{
					"internalType": "uint256",
					"name": "",
					"type": "uint256"
				}
			],
			"stateMutability": "view",
			"type": "function"
		},
		{
			"inputs": [],
			"name": "_isSaleActive",
			"outputs": [
				{
					"internalType": "bool",
					"name": "",
					"type": "bool"
				}
			],
			"stateMutability": "view",
			"type": "function"
		},
		{
			"inputs": [],
			"name": "_revealed",
			"outputs": [
				{
					"internalType": "bool",
					"name": "",
					"type": "bool"
				}
			],
			"stateMutability": "view",
			"type": "function"
		},
		{
			"inputs": [
				{
					"internalType": "address",
					"name": "to",
					"type": "address"
				},
				{
					"internalType": "uint256",
					"name": "tokenId",
					"type": "uint256"
				}
			],
			"name": "approve",
			"outputs": [],
			"stateMutability": "nonpayable",
			"type": "function"
		},
		{
			"inputs": [
				{
					"internalType": "address",
					"name": "owner",
					"type": "address"
				}
			],
			"name": "balanceOf",
			"outputs": [
				{
					"internalType": "uint256",
					"name": "",
					"type": "uint256"
				}
			],
			"stateMutability": "view",
			"type": "function"
		},
		{
			"inputs": [],
			"name": "baseExtension",
			"outputs": [
				{
					"internalType": "string",
					"name": "",
					"type": "string"
				}
			],
			"stateMutability": "view",
			"type": "function"
		},
		{
			"inputs": [],
			"name": "flipReveal",
			"outputs": [],
			"stateMutability": "nonpayable",
			"type": "function"
		},
		{
			"inputs": [],
			"name": "flipSaleActive",
			"outputs": [],
			"stateMutability": "nonpayable",
			"type": "function"
		},
		{
			"inputs": [
				{
					"internalType": "uint256",
					"name": "tokenId",
					"type": "uint256"
				}
			],
			"name": "getApproved",
			"outputs": [
				{
					"internalType": "address",
					"name": "",
					"type": "address"
				}
			],
			"stateMutability": "view",
			"type": "function"
		},
		{
			"inputs": [
				{
					"internalType": "address",
					"name": "owner",
					"type": "address"
				},
				{
					"internalType": "address",
					"name": "operator",
					"type": "address"
				}
			],
			"name": "isApprovedForAll",
			"outputs": [
				{
					"internalType": "bool",
					"name": "",
					"type": "bool"
				}
			],
			"stateMutability": "view",
			"type": "function"
		},
		{
			"inputs": [],
			"name": "maxBalance",
			"outputs": [
				{
					"internalType": "uint256",
					"name": "",
					"type": "uint256"
				}
			],
			"stateMutability": "view",
			"type": "function"
		},
		{
			"inputs": [],
			"name": "maxMint",
			"outputs": [
				{
					"internalType": "uint256",
					"name": "",
					"type": "uint256"
				}
			],
			"stateMutability": "view",
			"type": "function"
		},
		{
			"inputs": [
				{
					"internalType": "uint256",
					"name": "tokenQuantity",
					"type": "uint256"
				}
			],
			"name": "mintKeithMeta",
			"outputs": [],
			"stateMutability": "payable",
			"type": "function"
		},
		{
			"inputs": [],
			"name": "mintPrice",
			"outputs": [
				{
					"internalType": "uint256",
					"name": "",
					"type": "uint256"
				}
			],
			"stateMutability": "view",
			"type": "function"
		},
		{
			"inputs": [],
			"name": "name",
			"outputs": [
				{
					"internalType": "string",
					"name": "",
					"type": "string"
				}
			],
			"stateMutability": "view",
			"type": "function"
		},
		{
			"inputs": [],
			"name": "notRevealedUri",
			"outputs": [
				{
					"internalType": "string",
					"name": "",
					"type": "string"
				}
			],
			"stateMutability": "view",
			"type": "function"
		},
		{
			"inputs": [],
			"name": "owner",
			"outputs": [
				{
					"internalType": "address",
					"name": "",
					"type": "address"
				}
			],
			"stateMutability": "view",
			"type": "function"
		},
		{
			"inputs": [
				{
					"internalType": "uint256",
					"name": "tokenId",
					"type": "uint256"
				}
			],
			"name": "ownerOf",
			"outputs": [
				{
					"internalType": "address",
					"name": "",
					"type": "address"
				}
			],
			"stateMutability": "view",
			"type": "function"
		},
		{
			"inputs": [],
			"name": "renounceOwnership",
			"outputs": [],
			"stateMutability": "nonpayable",
			"type": "function"
		},
		{
			"inputs": [
				{
					"internalType": "address",
					"name": "from",
					"type": "address"
				},
				{
					"internalType": "address",
					"name": "to",
					"type": "address"
				},
				{
					"internalType": "uint256",
					"name": "tokenId",
					"type": "uint256"
				}
			],
			"name": "safeTransferFrom",
			"outputs": [],
			"stateMutability": "nonpayable",
			"type": "function"
		},
		{
			"inputs": [
				{
					"internalType": "address",
					"name": "from",
					"type": "address"
				},
				{
					"internalType": "address",
					"name": "to",
					"type": "address"
				},
				{
					"internalType": "uint256",
					"name": "tokenId",
					"type": "uint256"
				},
				{
					"internalType": "bytes",
					"name": "_data",
					"type": "bytes"
				}
			],
			"name": "safeTransferFrom",
			"outputs": [],
			"stateMutability": "nonpayable",
			"type": "function"
		},
		{
			"inputs": [
				{
					"internalType": "address",
					"name": "operator",
					"type": "address"
				},
				{
					"internalType": "bool",
					"name": "approved",
					"type": "bool"
				}
			],
			"name": "setApprovalForAll",
			"outputs": [],
			"stateMutability": "nonpayable",
			"type": "function"
		},
		{
			"inputs": [
				{
					"internalType": "string",
					"name": "_newBaseExtension",
					"type": "string"
				}
			],
			"name": "setBaseExtension",
			"outputs": [],
			"stateMutability": "nonpayable",
			"type": "function"
		},
		{
			"inputs": [
				{
					"internalType": "string",
					"name": "_newBaseURI",
					"type": "string"
				}
			],
			"name": "setBaseURI",
			"outputs": [],
			"stateMutability": "nonpayable",
			"type": "function"
		},
		{
			"inputs": [
				{
					"internalType": "uint256",
					"name": "_maxBalance",
					"type": "uint256"
				}
			],
			"name": "setMaxBalance",
			"outputs": [],
			"stateMutability": "nonpayable",
			"type": "function"
		},
		{
			"inputs": [
				{
					"internalType": "uint256",
					"name": "_maxMint",
					"type": "uint256"
				}
			],
			"name": "setMaxMint",
			"outputs": [],
			"stateMutability": "nonpayable",
			"type": "function"
		},
		{
			"inputs": [
				{
					"internalType": "uint256",
					"name": "_mintPrice",
					"type": "uint256"
				}
			],
			"name": "setMintPrice",
			"outputs": [],
			"stateMutability": "nonpayable",
			"type": "function"
		},
		{
			"inputs": [
				{
					"internalType": "string",
					"name": "_notRevealedURI",
					"type": "string"
				}
			],
			"name": "setNotRevealedURI",
			"outputs": [],
			"stateMutability": "nonpayable",
			"type": "function"
		},
		{
			"inputs": [
				{
					"internalType": "bytes4",
					"name": "interfaceId",
					"type": "bytes4"
				}
			],
			"name": "supportsInterface",
			"outputs": [
				{
					"internalType": "bool",
					"name": "",
					"type": "bool"
				}
			],
			"stateMutability": "view",
			"type": "function"
		},
		{
			"inputs": [],
			"name": "symbol",
			"outputs": [
				{
					"internalType": "string",
					"name": "",
					"type": "string"
				}
			],
			"stateMutability": "view",
			"type": "function"
		},
		{
			"inputs": [
				{
					"internalType": "uint256",
					"name": "index",
					"type": "uint256"
				}
			],
			"name": "tokenByIndex",
			"outputs": [
				{
					"internalType": "uint256",
					"name": "",
					"type": "uint256"
				}
			],
			"stateMutability": "view",
			"type": "function"
		},
		{
			"inputs": [
				{
					"internalType": "address",
					"name": "owner",
					"type": "address"
				},
				{
					"internalType": "uint256",
					"name": "index",
					"type": "uint256"
				}
			],
			"name": "tokenOfOwnerByIndex",
			"outputs": [
				{
					"internalType": "uint256",
					"name": "",
					"type": "uint256"
				}
			],
			"stateMutability": "view",
			"type": "function"
		},
		{
			"inputs": [
				{
					"internalType": "uint256",
					"name": "tokenId",
					"type": "uint256"
				}
			],
			"name": "tokenURI",
			"outputs": [
				{
					"internalType": "string",
					"name": "",
					"type": "string"
				}
			],
			"stateMutability": "view",
			"type": "function"
		},
		{
			"inputs": [],
			"name": "totalSupply",
			"outputs": [
				{
					"internalType": "uint256",
					"name": "",
					"type": "uint256"
				}
			],
			"stateMutability": "view",
			"type": "function"
		},
		{
			"inputs": [
				{
					"internalType": "address",
					"name": "from",
					"type": "address"
				},
				{
					"internalType": "address",
					"name": "to",
					"type": "address"
				},
				{
					"internalType": "uint256",
					"name": "tokenId",
					"type": "uint256"
				}
			],
			"name": "transferFrom",
			"outputs": [],
			"stateMutability": "nonpayable",
			"type": "function"
		},
		{
			"inputs": [
				{
					"internalType": "address",
					"name": "newOwner",
					"type": "address"
				}
			],
			"name": "transferOwnership",
			"outputs": [],
			"stateMutability": "nonpayable",
			"type": "function"
		},
		{
			"inputs": [
				{
					"internalType": "address",
					"name": "to",
					"type": "address"
				}
			],
			"name": "withdraw",
			"outputs": [],
			"stateMutability": "nonpayable",
			"type": "function"
		}
	]
}